:100000000C942A040C946E040C946E040C946E04EC
:100010000C946E040C946E040C946E040C946E0498
:100020000C946E040C946E040C94BB1E0C948D1FE7
:100030000C9415150C946E040C946E040C946E04C0
:100040000C946E040C946E040C946E040C946E0468
:100050000C946E040C947C150C946E040C946E0439
:100060000C946E040C946E040C946E040C946E0448
:100070000C946E040C946E040C946E040C946E0438
:100080000C946E040C946E040C946E040C946E0428
:100090000C946E040C946E040C946E040C946E0418
:1000A0000C946E040C946E040C946E04F004F6042C
:1000B000FA04FD040105050509050D0512051605DF
:1000C0001A051E052105250529052D0531053605CD
:1000D000090C090C3C0C3C0C7C0C9E0CC60DC60D8E
:1000E000A90CC60D500D500DB90DC60DC60DC10D94
:1000F0005D0D5D0D5D0D5D0D5D0D5D0D5D0D5D0DB0
:100100005D0D5D0D5D0D5D0D5D0D5D0D5D0D5D0D9F
:100110006D0D7D0D840D8B0D950D460E460E590E01
:10012000590E4F0E590E590E590E460E460E550ECB
:10013000590E590E550EF21F1420FF201420FF20D7
:1001400056207920FF20CE20E120012F022F013000
:100150000230015002500001E1012F022F01300254
:100160003002E10150025001280228012802280132
:100170005202520001E1012602260127022702E174
:1001800001500250002CA128A265A429A331A3F09C
:10019000A3F0A5F0A1E20019000A00F90001000196
:1001A000002900042033003700E60000000520800D
:1001B00000F500FA00230040003B001E0003204C25
:1001C00062022000007C0081000B00180025004224
:1001D000003D0020001A000400E10000002A611028
:1001E000000E001200270044000000000000000084
:1001F00000000000000000000000000000000000FF
:100200000001002200150007001B00E3007D001123
:10021000000D000C00260043003E002100080016DF
:10022000001D0007207B00A800F6001C00240041F0
:10023000003C001F0014002B61025100000020054B
:1002400000F400010001003F003A003500280038AA
:10025000004C000000062006000900170001000104
:10026000002D0013000F00360001200000010001E6
:10027000003502010001000100010035002A004B99
:100280000001000000010001000100010001000167
:1002900000010001002B000100010000000100012D
:1002A0000050004A000100010001000100010001AE
:1002B000000100000001004C0052002D000100016F
:1002C000000000000000000000000000000000002E
:1002D000000000000000000000010001000100011A
:1002E000000100010001004D00510001000100016A
:1002F00000010001000100010001000100010001F6
:1003000000010001000100010001000100010001E5
:1003100000010000000100230201000100010001B2
:10032000000100010034004E000100000001000146
:1003300000010035000100010001002E004F0049BE
:100340000001000000010001000130010001000176
:1003500000010001002E0201000100000001000167
:100360000001000100010001000100010001000185
:100370000001000000010001000230240201000120
:1003800000010001001F022602010000000100011F
:1003900000340226020100010000000000000000FD
:1003A000000000000000000000000000000000004D
:1003B000000100010021022F0230000100010001B4
:1003C0000034002502010001000100010020022785
:1003D000022F0001000100010001002302010001C1
:1003E00000010001001E02010001000000010003E5
:1003F00030010001000100010001000100010001C5
:100400000001000000010001003002220201000191
:1004100000010027022D0201000100000001006917
:10042000003E000100010001000100010043006ED8
:1004300000010000000100010001000100010001B5
:1004400000010001000100010001000000010001A5
:10045000003F00240001000100010001001F003ADC
:10046000000100000001006C0041002600010001B5
:10047000000000000000000000000000000000007C
:100480000000000000000000000100010021003C0D
:10049000004500010001006B004000250001000143
:1004A000000100010020003B0044000100010001A8
:1004B000000100230001000100010001001E0001F5
:1004C000000100000001006A0001000100010001BC
:1004D000000100010001006F000100000001006840
:1004E000003D002200010001000100270042006DD4
:1004F00000010000000100AE000100010001000148
:10050000000100005C010001000100000001000189
:1005100000010001000100010001000100A500012F
:1005200000010000000100010001000100010001C4
:1005300000010001000100010001000000010001B4
:100540000001004700010001000000000000000061
:10055000000000000000000000000000000000009B
:1005600000010001000100AB00AA00010001000130
:10057000000100460001000100010001000100AC83
:1005800000A90001000100010001000100010001BB
:1005900000010001000100A60001000000010001AF
:1005A0000001000100010001000100010001000143
:1005B00000010000000100A800010001000100018D
:1005C00000010048000100010001000000010001DD
:1005D0000001000100010001000100010001005BB9
:1005E00000010000000100010001005400010001B1
:1005F00000010001000100010001000000010053A2
:100600000057005F0001000100010001000100012E
:100610000001000000010059005D006100010001BF
:1006200000000000000000000000000000000000CA
:1006300000000000000000000001000100010001B6
:100640000001000100010062005C00600001000187
:100650000001000100010001000100010001000192
:1006600000550056000100010001000100010001D9
:100670000001000000010001000100010001000173
:1006800000010001002A0037000100000001000104
:10069000000100010001000100010001005E005A9C
:1006A00000010000001C036100630063006500732B
:1006B000007300690073005F003100350078003678
:1006C00000000010034C0065006A0062006F0075B6
:1006D00000610000000403090409026D0004010028
:1006E000A0FA090400000103010100092111010021
:1006F000012240000705810308000A0904010001E6
:1007000003010200092111010001224D00070582A9
:100710000308000A09040200010300000009211176
:100720000100012236000705830308000A090403BB
:100730000001030000000921110100012239000716
:100740000584032000011201100100000008EDFEE5
:10075000606001000102000105010906A101050711
:1007600019E029E7150025019508750181020508A2
:1007700019012905950575019102950175039101EE
:100780000507190029F71500250195F87501810263
:10079000C005010980A10185021601002603001A87
:1007A00081002A8300751095018100C0050C0901A4
:1007B000A1018503160100269C021A01002A9C0251
:1007C000751095018100C005010902A1010901A16F
:1007D00000050919012905150025019505750181F7
:1007E0000295017503810105010930093115812543
:1007F0007F95027508810609381581257F95017559
:10080000088106050C0A38021581257F95017508B7
:100810008106C0C005010906A101050719E029E705
:100820001500250195087501810295017508810162
:1008300005081901290595057501910295017503B2
:1008400091010507190029FF150026FF009506757F
:10085000088100C011241FBECFEFDAE0DEBFCDBF9C
:1008600004B603FE24C08091400290914102A09101
:100870004202B09143028730904BA740B04BB9F48D
:1008800010924002109241021092420210924302D2
:1008900014BE84B7877F84BF88E10FB6F894809335
:1008A0006000109260000FBEE0E0FFE3099511E0E8
:1008B000A0E0B1E0EAE7F5E402C005900D92A634AD
:1008C000B107D9F712E0A6E4B1E001C01D92A0344F
:1008D000B107E1F70E94EF1B0C94BB220C940000BF
:1008E0000C9496040C9497040C9498040C949A0419
:1008F000FC01613041F018F0623049F00EC0828195
:1009000081110EC00AC0828181110DC006C0828192
:10091000882319F08AE491E0089580E090E008953A
:1009200084E791E0089587E591E00895089508959A
:1009300081E00895089581E008950E94340E2FEF1C
:1009400084E39CE0215080409040E1F700C000002B
:100950000C94A2150F931F93CF93DF938C01FC018E
:10096000C081D181CE010E942013BE010E94E60504
:10097000EC01B8010E947404882309F41AC1B8017B
:10098000CE010E940908882309F413C1C531FCE592
:10099000DF0708F0A3C0C2308CE5D80708F478C0A0
:1009A000F8018281882309F47FC00E94B314811169
:1009B00002C00E9499140E94C61490E090933202E3
:1009C00080933102FE01E350FC45E231F10520F451
:1009D000EA5AFF4F0C946B2280913102816003C070
:1009E000809131028260809331024BC0809131024C
:1009F0008460F9CF8091310213C08091310280610F
:100A0000F2CF809131028062EECF8091310280641A
:100A1000EACF809131028068E6CF80913102846014
:100A20008860E1CF809131028E7FDDCF80913102ED
:100A30008D7FD9CF809131028B7FD5CF80913102CC
:100A400013C0809131028F7ECECF809131028F7D95
:100A5000CACF809131028F7BC6CF809131028F77D0
:100A6000C2CF809131028B7F877FBDCF90913102C1
:100A700097FB882780F921E0822780FB97F99093E4
:100A80003102809131020E94CA140E94340E91C03A
:100A9000C115ECE5DE0779F0C130DC45A1F081E05D
:100AA0008093480180934901C801DF91CF911F9144
:100AB0000F910C949B04F8018281882309F479C07A
:100AC0000E949D0476C0F8018281882309F471C0D8
:100AD0008091FD0181608093FD016BC0CD338CE579
:100AE000D80739F5F8018281882361F01092490115
:100AF0000E944715909347018093460180E20E942F
:100B0000BE0B57C08091490181110FC080914601F1
:100B1000909147010E945315883C910530F487E27B
:100B20000E949C0A87E20E946F0B80E20E94C50B24
:100B300040C0CE33ECE5DE0738F5CC33DC4509F0B8
:100B4000AECFF8018281882351F0109248010E94B3
:100B50004715909347018093460182E0D0CF809162
:100B6000480181110FC080914601909147010E9478
:100B70005315883C910530F486E20E949C0A86E277
:100B80000E946F0B82E0D2CFC0348CE5D80731F4DD
:100B9000F8018281882369F080E009C0C134DC4516
:100BA00009F07DCFF8018281882319F082E00E944C
:100BB000811C80E0DF91CF911F910F9108950C94DB
:100BC00070040C9472040C94760408959CE0799F50
:100BD000F00111249CE6899FE00DF11D1124E60F20
:100BE000F11DEE0FFF1FEB56FE4F85919491089576
:100BF000880F991F8B579E4FFC0185919491089502
:100C00000E94E6050E948C07811520E49207B0F54A
:100C1000811540E3940708F0DBC0803E9105D8F4CD
:100C2000803C910508F069C0883A910578F4853ACE
:100C3000910508F065C08130910509F46CC108F494
:100C400023C18430910508F066C11EC18D3B91051A
:100C500008F461C019C18F3F910509F048F4803F45
:100C6000910508F0AFC0883E910508F454C10CC14D
:100C7000811520E2920708F0A7C00895811544E588
:100C80009407D8F4811523E5920708F0DCC081159C
:100C900041E5940740F4811520E5920708F0A2C0D1
:100CA0009F70906A0895811542E5940708F0B6C0D8
:100CB000982F8827816F906A0895811526E59207FD
:100CC00050F4811545E5940708F0D2C0982F882785
:100CD000846F906A0895811528E5920708F4D4C0BE
:100CE000811549E5940708F4C8C09C0130562115C8
:100CF000304208F0C9C09F71C5C0805C910965C0D1
:100D0000853A910509F4C3C0863A910509F4C2C039
:100D100083E890E40895883A910509F4BEC0893AC1
:100D2000910509F4BDC08A3A910509F4BCC08B3A1B
:100D3000910509F4BBC08C3A910509F4BAC08B3B0C
:100D4000910509F4B9C08C3B910509F4B8C08D3AFE
:100D5000910509F4B7C0803B910509F4B6C08E3AFD
:100D6000910509F4B5C08F3A910509F4B4C0813BEF
:100D7000910509F4B3C0823B910509F4B2C0833BED
:100D8000910509F4B1C0843B910509F4B0C0853BDD
:100D9000910509F4AFC0863B910509F4AEC0873BCD
:100DA000910509F4ADC0883B910509F4ACC0893BBD
:100DB000910509F4ABC08A3B910509F0AAC08AE20B
:100DC00096E40895906508959F700E94F80508952F
:100DD0009C01332793FF03C0C901986C0895C90192
:100DE000906C0895482F437021E030E002C0220F3C
:100DF000331F4A95E2F73C68AC0174E0569547957D
:100E00007A95E1F74370342B8F708695869540E292
:100E1000849FC0011124822B932B0895282F26959F
:100E2000269540E2249F90011124AC014370552780
:100E300081E090E002C0880F991F4A95E2F7822B6B
:100E4000932B9C680895282F2695269540E2249F91
:100E500090011124AC014370552781E090E002C05D
:100E6000880F991F4A95E2F7822B932B9A68089571
:100E70008F719927982F882705C0982F8827806F12
:100E8000906A08959062089580E090E0089581E866
:100E900090E4089582E890E4089582EE94E4089541
:100EA00089EE94E408958AEE94E4089585EB94E441
:100EB000089586EB94E4089583EB94E4089584EB1D
:100EC00094E4089587EB94E408958CEC94E40895F9
:100ED0008DEC94E4089583E895E408958AE895E418
:100EE000089582E995E4089584E995E4089581E2FE
:100EF00096E4089583E296E4089584E296E40895E2
:100F000085E296E4089586E296E4089587E296E401
:100F1000089580E094E408958238910549F1B0F491
:100F20008133910509F459C048F48932910509F4D7
:100F30004FC08A32910509F455C008958533910553
:100F400009F441C08933910599F00895833E9105D4
:100F500031F138F4803E910591F0823E9105A9F07F
:100F60000895863E910501F1873E910539F1089576
:100F70002091310220FD3BC021FD39C008958091B0
:100F8000310280FF34C089E341C08091310282FF89
:100F900032C08091310284FF2CC080E037C0809144
:100FA000310282FD28C0F5CF8091310283FF25C038
:100FB0008091310284FDF1CF87EE28C0809131020B
:100FC00083FD1BC0F5CF8091310285FF18C019C089
:100FD0008091310285FF15C012C08091310286FFD9
:100FE00012C013C08091310286FF0FC00CC080EE8A
:100FF0000DC083EE0BC082EE09C086EE07C085E30C
:1010000005C089E203C081E301C08AE290E008954F
:101010000895CF93DF93EC01FB018281811102C01F
:1010200081E040C080915701811125C0C531DC4568
:10103000B9F70E94080881E0809357010E94471584
:10104000909356018093550110924A0110924C01E1
:1010500010924B0110924E0110924D0110925001CE
:1010600010924F01109252011092510110925401AE
:101070001092530116C080915501909156010E9423
:101080005315883C910560F680914A01E82FF0E005
:10109000EE0FFF1FE55BFE4FD183C0838F5F809310
:1010A0004A0180E0DF91CF91089585B7806885BFC0
:1010B00085B7806885BFAFE1B1E021E030E08D9178
:1010C000E82FE295EF70F0E041A18F70B90102C006
:1010D000660F771F8A95E2F7CB01962F90954923EB
:1010E00041A392A1982B92A371E0A832B70739F7D8
:1010F000A3E1B1E021E030E08D91E82FE295EF70BF
:10110000F0E041A18F70B90102C0660F771F8A9588
:10111000E2F7CB01962F9095492341A392A1982BFA
:1011200092A371E0AF31B70739F7EAE6F1E0A8E53D
:10113000B1E0119211921D921D9281E0EC37F807F7
:10114000C1F70C94DF054F925F927F928F929F922E
:10115000AF92BF92CF92DF92EF92FF920F931F93C5
:10116000CF93DF930FE111E0C8E5D1E0EE24E394E3
:10117000F12C99249394BE01A880B9801982188219
:10118000D8012D918D01E22FE295EF70F0E081A161
:101190002F70A70102C0440F551F2A95E2F79A014C
:1011A000842B81A382A1842E8094882182A350EA7B
:1011B0005A95F1F743E1442E41E0542E80E090E04F
:1011C000D2014D912D01C42EC2943FE0C322D12CF7
:1011D000D60190967C90C880D9804F70D70102C00C
:1011E000AA0FBB1F4A95E2F77A2241F4A701082E05
:1011F00002C0440F551F0A94E2F702C040E050E0DD
:101200004C295D295983488301968C309105C1F69C
:1012100081A1882181A382A1822B82A32296FB0136
:1012200080819181A816B90641F090927C010E94BC
:10123000471590937E0180937D01F1E008321F07EE
:1012400009F099CF80917C018823B1F080917D01D4
:1012500090917E010E945315069770F0E8E5F1E049
:10126000AAE6B1E0819191918D939D9341E0EA3698
:10127000F407C1F710927C010E94E10581E0DF9143
:10128000CF911F910F91FF90EF90DF90CF90BF9083
:10129000AF909F908F907F905F904F900895E82F30
:1012A000F0E0EE0FFF1FE659FE4F80819181089517
:1012B000089590938401809383010895E0918301C0
:1012C000F0918401309721F00190F081E02D099494
:1012D00080E00895E0918301F0918401309721F03E
:1012E0000280F381E02D09940895E0918301F0914B
:1012F0008401309721F00480F581E02D0994089550
:1013000020918101309182018217930771F09093AF
:10131000820180938101E0918301F09184013097F3
:1013200021F00680F781E02D0994089520917F0136
:10133000309180018217930771F090938001809320
:101340007F01E0918301F0918401309721F00084C6
:10135000F185E02D0994089508950C94AC090E943C
:101360003E150E9455080C94C5155F926F927F92AE
:101370008F929F92AF92BF92CF92DF92EF92FF92A5
:101380000F931F93CF93DF93CDB7DEB72A970FB696
:10139000F894DEBF0FBECDBF0E94A30896E8C92E09
:1013A00091E0D92E00E010E0AA24A394B12C502E95
:1013B000802F0E944F093C01F601E190F1906F01EE
:1013C000E826F926E114F104B1F40F5F1F4F09304C
:1013D000110569F78FEF89838A831B820E94471565
:1013E0008160782F9D838C8349815A816B818D81A7
:1013F0000E946E0A3AC08091FD0181FD0E94580949
:1014000020E030E04501022E02C0880C991C0A94AD
:10141000E2F7C4018E219F21892B09F12E835F827F
:101420006820792081E0672809F480E088870E949D
:1014300047158160782F9A8789874E815F816885FB
:101440008A850E946E0AF801EE0FFF1FEA57FE4FD1
:1014500080819181882599259183808306C02F5FA3
:101460003F4F2C30310571F6B0CF0E9457171091C5
:1014700085010E945E091817D9F00E945E098093C9
:1014800085012A960FB6F894DEBF0FBECDBFDF915F
:10149000CF911F910F91FF90EF90DF90CF90BF9071
:1014A000AF909F908F907F906F905F900C94E3052A
:1014B0002A960FB6F894DEBF0FBECDBFDF91CF9155
:1014C0001F910F91FF90EF90DF90CF90BF90AF9062
:1014D0009F908F907F906F905F900895CF93DF9350
:1014E000CDB7DEB72B970FB6F894DEBF0FBECDBFDA
:1014F0004F83588769877A878B87DE01119686E04C
:10150000FD0111928A95E9F785E0FE013796019079
:101510000D928A95E1F749815A816B817C818D8199
:101520009E810E94FE102B960FB6F894DEBF0FBE70
:10153000CDBFDF91CF910895CF93C82F882309F4B1
:10154000CCC0823859F40E945E0981FDC6C089E38F
:101550000E94A0130E946A1489E30CC0833879F4B6
:101560000E945E0980FDB9C083E50E94A0130E941D
:101570006A1483E50E94E013CF910C946A148438B6
:1015800059F40E945E0982FDA8C087E40E94A0135E
:101590000E946A1487E4EECF8CEF8C0F813A48F4F6
:1015A0008C2F0E948E19811198C08C2F0E94A0133D
:1015B000E3CF80E28C0F883048F4C77081E001C02F
:1015C000880FCA95EAF70E942114D6CF8BE58C0FBD
:1015D000833078F4C53A29F0C63A31F482E890E0D5
:1015E00005C081E890E002C083E890E0CF910C94C0
:1015F000800988E58C0F853108F06FC0C83A61F129
:10160000C93A69F1CA3A71F1CB3A79F1CC3A81F130
:10161000CB3B89F1CC3B91F1CD3A99F1C03BA1F1A3
:10162000CE3AA9F1CF3AB1F1C13BB9F1C23BC1F118
:10163000C33BC9F1C43BD1F1C53BD9F1C63BE1F194
:10164000C73BE9F1C83BF1F1C93BF9F1CA3B09F0ED
:101650003FC08AE292E03EC082EE90E03BC089EE5D
:1016600090E038C08AEE90E035C085EB90E032C063
:1016700086EB90E02FC083EB90E02CC084EB90E0F1
:1016800029C087EB90E026C08CEC90E023C08DEC65
:1016900090E020C083E891E01DC08AE891E01AC084
:1016A00082E991E017C084E991E014C081E292E000
:1016B00011C083E292E00EC084E292E00BC085E2AA
:1016C00092E008C086E292E005C087E292E002C0A4
:1016D00080E090E0CF910C949609CF9108958823F3
:1016E00009F44BC0823859F40E945E0981FF45C05D
:1016F00089E30E94A0130E946A1489E30CC0833816
:1017000071F40E945E0980FF38C083E50E94A01337
:101710000E946A1483E50E94E0130C946A148438D2
:1017200059F40E945E0982FF28C087E40E94A0133A
:101730000E946A1487E4EFCF9CEF980F913A58F318
:1017400090E2980F983050F4877091E001C0990FA3
:101750008A95EAF7892F0E942714DFCF9BE5980F1F
:10176000933020F480E090E00C948009885A853111
:1017700020F480E090E00C9496090895882321F0ED
:101780000E9421140C946A140895882321F00E9469
:1017900027140C946A1408958F929F92AF92BF926F
:1017A000CF92DF92EF92FF920F931F93CF93DF932D
:1017B0001F92CDB7DEB74C01A62E472FFC01E58066
:1017C000E2948FE0E822F280FF2021F079830E94EA
:1017D0003E14498149830E9499134981882381F0ED
:1017E000FF2071F080E28A0D883050F082E00E9484
:1017F00082130E949913BB24B394B826498101C077
:10180000B12CE42FE295EF70F0E0E859FF4F0C9413
:101810006B22842F807F142F1F70882311F0129564
:10182000107FFF2099F0112309F499C180E28A0DFD
:10183000883010F0A11004C0812F0E94211403C031
:10184000812F0E9431140E946A1489C18A2D0E943E
:101850006F0B112309F49AC180E28A0D883010F0D1
:10186000A11004C0812F0E94271403C0812F0E9461
:1018700037140E946A148AC1242F207F842F8F700E
:10188000203211F08295807FAA2021F0F1E0AF167E
:10189000B1F021C0FF2041F0EE2039F191E0E912D2
:1018A00024C00E94511472C1EE2021F0E1E0EE1636
:1018B00009F46CC189830E94541489810BC1FF20F3
:1018C00029F0F5E0FE1508F461C10FC094E09E1503
:1018D00008F45CC1FFC0FF2059F0EE2031F0F401A4
:1018E000958190FF3CC19F7095830E94BE0B4EC1B5
:1018F000EE2009F4EFC039C1242F269526952370D8
:1019000030E02115310521F02130310561F03EC173
:10191000FF2021F08A2D942F937002C080E090E088
:101920000E94800933C1FF2021F08A2D942F9370EB
:1019300002C080E090E00E94960928C18A2DFF2015
:1019400019F00E945F1602C00E94C7160E944C1731
:101950001DC1842F837009F04EC0F11017C12A2DCC
:10196000229526952770220F220F8A2D8F70C82E60
:10197000D12CE12CF12C022E04C0CC0CDD1CEE1C71
:10198000FF1C0A94D2F7A4FE10C06FE070E080E064
:1019900090E004C0660F771F881F991F2A95D2F721
:1019A000609570958095909503C060E070E0CB01E4
:1019B000242F26952695237030E02230310569F0DA
:1019C0002330310589F06C297D298E299F2921300A
:1019D000310571F00E944F12D9C06C297D298E29E2
:1019E0009F290E946112D2C00E944F12C701B60106
:1019F0000E943D12CBC0FF2019F0842F817001C0DE
:101A00008695882309F4C2C02A2D22952695277031
:101A1000220F220F8A2D8F70C82ED12CE12CF12C91
:101A2000022E04C0CC0CDD1CEE1CFF1C0A94D2F765
:101A3000A4FE10C06FE070E080E090E004C0660F8C
:101A4000771F881F991F2A95D2F76095709580950A
:101A5000909503C060E070E0CB01242F2695269579
:101A6000237030E02230310569F02330310589F0F0
:101A70006C297D298E299F292130310571F00E9422
:101A8000FB1284C06C297D298E299F290E940D1389
:101A90007DC00E94FB12C701B6010E94E91276C008
:101AA0000A2D10E0F801E05EF109E531F10508F0DA
:101AB00052C0E858FF4F0C946B221A2D1F70842FD0
:101AC0008F71FF2021F00E949412812F0ECF0E946F
:101AD000AF12812F0E94C50B59C0FF2049F0F4E0DE
:101AE000FE1508F453C0842F8F710E94CE124EC091
:101AF00085E08E1508F44AC0F6CFFF2039F0842F18
:101B00008F710E94941242C0FF20C9F3842F8F71FD
:101B10000E94AF123BC0FF2029F0842F8F710E94DA
:101B2000851234C00E94801231C0FF2051F0142F62
:101B30001F71812F0E94941263E0812F0E947913FC
:101B400025C081E00E94821391E09E15F8F482E0A6
:101B50000E9482131BC0FF2031F0EE2081F28A2DFB
:101B60000E949C0A13C0EE2089F28A2D0E946F0BFE
:101B70000DC04F706A2DC4010E9478040E94AB1101
:101B800005C04F706A2DC4010E94E505BB20F1F02D
:101B90000E94751380FD1AC0F40112820E946F1317
:101BA0000E949412C4010E94F40D0E946F130F90C2
:101BB000DF91CF911F910F91FF90EF90DF90CF9029
:101BC000BF90AF909F908F900C94AF120F90DF91C9
:101BD000CF911F910F91FF90EF90DF90CF90BF902A
:101BE000AF909F908F9008950F931F93CF93DF93A3
:101BF000EC01288139818B819C81892B31F03F3F19
:101C000011F080E003C02F3FE1F781E0811113C0A4
:101C1000CE010E94AA04882371F0688179818A81AB
:101C20000E946B138C010E941F130E943A12B8018C
:101C3000CE010E94CC0BDF91CF911F910F9108959F
:101C40000E943E140E944E140E9413140E946A14B3
:101C50000E94F8170E944C1780E090E00E948009D3
:101C600080E090E00C9496090E942E140C94200EB3
:101C70000E946013E92FE295EF70F0E03297EE30AA
:101C8000F105B8F4E357FF4F0C946B22803F59F0F5
:101C900018F4803E70F407C0843F59F404C0803EBD
:101CA00010F0813F31F481E0089593FB882780F99B
:101CB000089580E00895CF93DF9300D000D01F9265
:101CC000CDB7DEB70F900F900F900F900F90DF9170
:101CD000CF910895CF93DF9300D000D000D0CDB73F
:101CE000DEB726960FB6F894DEBF0FBECDBFDF91EC
:101CF000CF9108951F93CF93DF93C091980116E081
:101D000080919901C81799F0D0E01C9FF0011D9FA8
:101D1000F00D1124E656FE4F40815181628173819E
:101D2000848195810E946A0E2196C770E9CFDF9168
:101D3000CF911F9108954091CA015091CB016091BC
:101D4000CC017091CD018091CE019091CF010C9486
:101D50006A0ECF938091CF0182958F7009F05FC09A
:101D60008091CC01882309F45AC020919801A09158
:101D700099016091CA017091CB018091CD01909140
:101D8000CE0131E06F3F09F030E0B32FC6E02A17F3
:101D900009F445C0009721F07F3F21F44B2F03C089
:101DA00041E001C040E030E040FD35C0C29FF0019D
:101DB000C39FF00D1124E656FE4F418174132BC0D2
:101DC0004081641328C04281411125C04381548160
:101DD0004817590710F441505109481B590B483C0A
:101DE0005105C8F48091CF018F7080618093CF013D
:101DF00086E0829FF001839FF00D1124E156FE4F93
:101E000080818F70806180838AEC91E00E94F40D64
:101E1000CF910C947A0E2F5F3F4F2770B8CFCF91A0
:101E20000895CF92DF92EF92FF920F931F93CF937B
:101E3000DF93CDB7DEB762970FB6F894DEBF0FBE63
:101E4000CDBF8C0185E0F801DE011D9601900D9259
:101E50008A95E1F7D8014C9111965C9111971296F1
:101E60006C9112971396ED90FC9014977091CA01A3
:101E7000E091CB012091CD013091CE0121153105AA
:101E800031F0EF3F31F481E07F3F19F403C081E08E
:101E900001C080E0B82FB170CB2E80FD6CC1D09016
:101EA000CC01DD2009F4F5C0F091CF01E216F30674
:101EB00038F0C701821B930B883C910548F09BC00A
:101EC000209530952E0D3F1D283C310508F093C01C
:101ED0008F2F807F09F052C0E51314C0741312C015
:101EE000D62E61110FC0FF70F061F093CF010E94F8
:101EF0009B0E8AEC91E00E94F40D8091CF01F801D5
:101F000085836CC1EF2831F05F3F31F481E04F3FB2
:101F100019F403C081E001C080E080FD03C081E0CE
:101F2000862701C080E0F82FF170FF2E80FF1CC0D3
:101F3000809198012091990136E0821709F428C117
:101F400090E0389FF001399FF00D1124E656FE4FC6
:101F50007181571306C07081471303C072816713E4
:101F600003C001968770E9CFD62E662309F436C1E7
:101F70008091CF0181608093CF0153C0E51308C0E9
:101F8000741306C0611104C0D8011596FC93AEC04D
:101F90004D875E878D859E856A8B0E94380E6A8983
:101FA000882329F1D62E662311F12091CF01822FAB
:101FB00082958F7090E002970CF460C08091CA0106
:101FC0009091CB0198878F831986FB86EA862C87B0
:101FD000CE01079651C0E51731F14D875E878D859B
:101FE0009E856A8B0E94380E6A8981112EC0C801B5
:101FF0000E94F40DA4C08F2F807F69F77E2DF98A8F
:10200000E88A89890E945B0E8AEC91E00E94F40DB7
:10201000EAECF1E086E0DF011D928A95E9F70E9483
:102020009B0ED12CDBC07413D8CF6111D6CFD80151
:102030001596FC93C8010E94F40DEAECF1E086E0ED
:10204000DF011D928A95E9F7C9C0D62E662379F281
:102050002091CF01822F82958F7090E0029774F0CB
:102060008091CA019091CB019A8389831B82FD8262
:10207000EC822E83CE0101960E94F40D86E0F801D9
:10208000AAECB1E001900D928A95E1F70E94A90EA9
:102090006FC0E216F30628F0C701821B930B9C0168
:1020A00004C0209530952E0D3F1D283C310508F0C9
:1020B00052C0D62E662309F49ACFE5132CC07413B0
:1020C0002AC08091CF0180FD1DC0982F92959F70EE
:1020D000C9F0D80115968C9315979F3039F09F5F02
:1020E0009295907F8F70892B15968C93C8010E94D2
:1020F000F40D86E0F801AAECB1E001900D928A950A
:10210000E1F736C086E0F801AAECB1E001900D924B
:102110008A95E1F763C04D875E878D859E850E9415
:10212000380E882379F086E0F801AAECB1E001903E
:102130000D928A95E1F70E94A90E0E949B0EDD2464
:10214000D3944CC08091CF0181608093CF01C801AE
:102150000E94F40D43C07E2DF98AE88A89890E9485
:102160005B0EEAECF1E086E0DF011D928A95E9F76B
:102170000E949B0E33C0662309F439CF4D875E87DA
:102180008D859E850E94380E882309F430CFCBCFF1
:102190004D875E878D859E850E946013292F22952D
:1021A0002F7030E0223031052CF49F7041F0811106
:1021B00006C00CC0243031052CF49F7049F4805EB9
:1021C000883020F0C8010E94F40DCF2CDC2C06C012
:1021D000D80115969C91907F91F7F8CF8D2D62963E
:1021E0000FB6F894DEBF0FBECDBFDF91CF911F9128
:1021F0000F91FF90EF90DF90CF9008951F93CF93B2
:10220000DF93CDB7DEB72C970FB6F894DEBF0FBEC5
:10221000CDBF4F83588769877A878B879C87CE018C
:1022200007960E94110F8823C1F02F8138858A8577
:102230009B85892B31F03F3F11F080E003C02F3F99
:10224000E1F781E0811147C04F81588569857A8522
:102250008B859C850E946A0E3EC086E0FE01379603
:10226000DE01119601900D928A95E1F7FF81E885D4
:102270004A855B854115510531F0EF3F31F481E02E
:10228000FF3F19F403C081E001C080E080FD23C05E
:102290002091990130E0C9010196877099276091DA
:1022A000980170E086179707F1F1F983EA835D835F
:1022B0004C8396E0929FD001939FB00D1124A656B7
:1022C000BE4FFE01319601900D929A95E1F78093F1
:1022D00099010E947A0E16E08091980190919901DF
:1022E000891779F1189FC001112486569E4F0E94CC
:1022F000110F882331F1E09198011E9FF001112404
:10230000E656FE4F408151816281738184819581BF
:102310000E946A0E8091980190E00196877099273B
:1023200080939801D9CF0E94340E10929901109297
:102330009801EAECF1E086E0DF011D928A95E9F769
:10234000CACF2C960FB6F894DEBF0FBECDBFDF917B
:10235000CF911F910895EF92FF920F931F93CF9308
:10236000DF939C01009709F471C0F12CEE24E394F3
:10237000E9012196F9018491843740F4843008F012
:1023800056C0813081F0823021F160C0853709F478
:1023900049C0C0F19CE7980F903708F057C08F777D
:1023A0000E946F0B46C089010E5F1F4FFE01849192
:1023B00090E2980F983050F48770FE2D01C0FF0F07
:1023C0008A95EAF78F2F0E94411415C00E949C0A3B
:1023D00014C089010E5F1F4FFE01849190E2980F97
:1023E000983068F48770FE2D01C0FF0F8A95EAF7D8
:1023F0008F2F0E9447140E946A14E8011AC00E949D
:102400006F0BFBCF2E5F3F4FFE01C491CC2341F0F9
:102410008FE99FE00197F1F700C00000C150F6CFAF
:10242000E90107C0FE01F490E901229602C00E9472
:102430009C0A8F2D882341F0EFE9FFE03197F1F7F7
:1024400000C000008150F6CF9E0192CFDF91CF9166
:102450001F910F91FF90EF90089508950E942D1203
:102460006093D4017093D5018093D6019093D701E6
:102470000C94200E08950C942E120F931F9300912C
:10248000D4011091D5012091D6013091D701602B54
:10249000712B822B932B1F910F910C942E120F9363
:1024A0001F930091D4011091D5012091D601309154
:1024B000D70160237123822393231F910F910C94E2
:1024C0002E120F931F930091D4011091D5012091EA
:1024D000D6013091D70160277127822793271F915A
:1024E0000F910C942E1208950E9473126093D001E4
:1024F0007093D1018093D2019093D3010C94200E5C
:1025000060E070E0CB010C94741241E050E060E0B8
:1025100070E004C0440F551F661F771F8A95D2F7DD
:10252000CB01BA010C94741241E050E060E070E01D
:1025300004C0440F551F661F771F8A95D2F78091FC
:10254000D0019091D101A091D201B091D301482B3B
:10255000592B6A2B7B2BCB01BA010C94741241E0EE
:1025600050E060E070E004C0440F551F661F771F05
:102570008A95D2F740955095609570958091D001DD
:102580009091D101A091D201B091D3014823592358
:102590006A237B23CB01BA010C94741241E050E012
:1025A00060E070E004C0440F551F661F771F8A95D6
:1025B000D2F78091D0019091D101A091D201B09138
:1025C000D301482759276A277B27CB01BA010C94EE
:1025D00074120F931F930091D0011091D10120919B
:1025E000D2013091D301602B712B822B932B1F9141
:1025F0000F910C9474120F931F930091D0011091BE
:10260000D1012091D2013091D30160237123822323
:1026100093231F910F910C9474120F931F930091A9
:10262000D0011091D1012091D2013091D3016027C6
:102630007127822793271F910F910C94741208958C
:10264000CF92DF92EF92FF920F931F93CF93DF937E
:10265000EC01C090D401D090D501E090D601F0906B
:10266000D7018091D0019091D101A091D201B09178
:10267000D301C82AD92AEA2AFB2A0FE110E0B701C0
:10268000A601002E04C076956795579547950A9444
:10269000D2F740FD05C00150110988F780E007C05E
:1026A000BE01802F0E9400060197A9F3802FDF91C1
:1026B000CF911F910F91FF90EF90DF90CF900895F1
:1026C000CF93DF93EC010E942013BE010E9400060D
:1026D000DF91CF910895CB010E94601308958091FE
:1026E000D80185958595859508958091D801877045
:1026F000089598E0899F90011124622B6093D8017E
:102700000C9494124091D801809584238093D80131
:10271000982F977069F450E0282F332727FD3095C4
:102720004217530729F08595859585950C94AF122E
:1027300008959091D801977081E009F480E00895A0
:10274000909112019923D9F09091310297FF17C00F
:10275000982F9695969596959F3188F5E091000172
:10276000F0910101E90FF11D877021E030E001C017
:10277000220F8A95EAF78181822B81830895409107
:1027800000015091010120E030E09FEFFA01E20FDB
:10279000F31F6281681799F09F3F19F4611101C01E
:1027A000922F2F5F3F4F2E31310581F79F3F39F038
:1027B000FA01E90FF11D97FDFA95828308950895B6
:1027C000909112019923E1F09091310297FF18C086
:1027D000982F9695969596959F3120F5E09100015A
:1027E000F0910101E90FF11D877021E030E001C097
:1027F000220F8A95EAF72095818128232183089565
:10280000409100015091010120E030E0FA01E20F17
:10281000F31F9281981301C012822F5F3F4F2E3118
:102820003105A1F7089581E090E0E0910001F09179
:102830000101E80FF91F1082019680329105A9F776
:1028400008959091FC01982B9093FC010895809538
:102850009091FC0198239093FC0108951092FC0143
:1028600008959091FB01982B9093FB01089580951A
:102870009091FB0198239093FB0108951092FB0126
:1028800008959091FA01982B9093FA0108958095FC
:102890009091FA0198239093FA0108951092FA0109
:1028A00008958093D90108951092D9010895409117
:1028B00000015091010120E030E080E0FA01E20FD8
:1028C000F31F918191118F5F2F5F3F4F2F313105A2
:1028D000A9F70895E0910001F09101018091FC01B8
:1028E0008083E0910001F091010180819091FB01D2
:1028F000892B8083E0910001F0910101808190910A
:10290000FA01892B80839091D901992361F0E0919C
:102910000001F09101018081892B80830E9457146E
:1029200081111092D90180910001909101010C94C4
:102930006A096DEE7EEF80E090E00E94A52260E0E3
:1029400082E090E00E94932260E083E090E00E94A9
:10295000932260E084E090E00E94932260E085E0B2
:1029600090E00C94932280E090E00E948D2221E080
:102970008D3E9E4F09F020E0822F089582E090E086
:102980000C94852283E090E00C94852284E090E012
:102990000C948522682F84E090E00C94932280911F
:1029A0003702843021F11092FE0120E488E190E0AA
:1029B0000FB6F894A895809360000FBE2093600036
:1029C00080E00E94E30583B7817F846083BF83B783
:1029D000816083BF7894889583B78E7F83BF88E1B9
:1029E0000FB6F89480936000109260000FBE0895B7
:1029F00008950895CF930E94F8140E94A3080E949E
:102A0000F914C0E08C2F0E944F09892B29F4CF5F65
:102A1000C930C1F780E001C081E0CF9108950E94E4
:102A2000340E0E945E090C94E3051F920F920FB6BC
:102A30000F9211248F939F93AF93BF938091FE01C8
:102A4000811113C080912D0290912E02A0912F022E
:102A5000B09130024196A11DB11D80932D0290933B
:102A60002E02A0932F02B0933002BF91AF919F919D
:102A70008F910F900FBE0F901F90189582E084BD2C
:102A800093E095BD9AEF97BD80936E0008952FB7A0
:102A9000F89480912D0290912E02A0912F02B09176
:102AA00030022FBF0895CF92DF92EF92FF920F93E3
:102AB0001F932FB7F89440912D0250912E026091F0
:102AC0002F02709130022FBF6A017B01EE24FF2498
:102AD0008C0120E030E0C016D106E206F30610F4C7
:102AE00041505109481B590BCA011F910F91FF908A
:102AF000EF90DF90CF90089578941F920F920FB6C9
:102B00000F9211248F939F93AF93BF9380912D02C7
:102B100090912E02A0912F02B09130020196A11D3A
:102B2000B11D80932D0290932E02A0932F02B0939B
:102B30003002BF91AF919F918F910F900FBE0F9078
:102B40001F9018950E94401EF8942FEF87EA91E697
:102B5000215080409040E1F700C0000087E090EBFA
:102B6000DC018093400290934102A0934202B09313
:102B700043022CE088E190E00FB6F894A89580938A
:102B800060000FBE20936000FFCF0E94B31481113C
:102B900002C00E9499140E94BE148093FD010E94FD
:102BA000C61490E090933202809331020E94C214C6
:102BB000682F70E080E090E00C943B12809101025D
:102BC00080FF0BC06091050185E0689FB001112472
:102BD00075956795759567952AC081FF09C06091C5
:102BE000050185E0689FB0011124759567951FC0A8
:102BF00082FF07C06091050185E0689FB001112444
:102C000016C0409102024423C9F0609104014617A6
:102C100088F72091050185E0289F90011124429FAB
:102C2000C001439F900D112470E00E94572260382C
:102C3000710540F46115710539F002C065E070E07E
:102C4000862F08958FE7089581E00895809101020D
:102C500080FF08C06091030170E0759567957595D8
:102C6000679521C081FF06C06091030170E07595F2
:102C7000679519C082FF04C06091030170E010C025
:102C8000809102028823C1F0609102018617A0F7AB
:102C900090910301989FC001112470E00E94572277
:102CA0006038710528F46115710521F0862F0895AB
:102CB0008FE7089581E0089561E070E0F4CF803FF0
:102CC00021F40E94DE15819504C0813F29F40E9401
:102CD000DE15809305020895823F21F40E94DE15DF
:102CE000819504C0833F29F40E94DE15809304027D
:102CF0000895893F19F40E94261605C08A3F31F4D1
:102D00000E94261681958093060208958B3F21F438
:102D10000E942616819504C08C3F29F40E94261635
:102D2000809307020895843F21F48091030281601B
:102D300017C0853F21F480910302826011C0863F55
:102D400021F48091030284600BC0873F21F48091BD
:102D50000302886005C0883F31F4809103028061DE
:102D60008093030208958D3F21F4809101028160D8
:102D70000BC08E3F21F480910102826005C08F3F1D
:102D800029F4809101028460809301020895803FBC
:102D900039F48091050287FF6CC01092050269C06A
:102DA000813F29F4809105021816BCF362C090910E
:102DB0000402823F29F497FF5CC01092040259C0BC
:102DC000833F19F41916CCF354C0893F41F4809124
:102DD000060218160CF04DC0109206024AC08A3F37
:102DE00029F48091060287FF44C0F6CF8B3F39F467
:102DF0008091070287FF3DC0109207023AC08C3FC6
:102E000029F4809107021816BCF333C0843F21F4E3
:102E1000809103028E7F17C0853F21F480910302C9
:102E20008D7F11C0863F21F4809103028B7F0BC000
:102E3000873F21F480910302877F05C0883F31F4EA
:102E4000809103028F7E8093030213C08D3F21F493
:102E5000809101028E7F0BC08E3F21F48091010290
:102E60008D7F05C08F3F29F4809101028B7F809375
:102E700001028091040281110EC08091050281112E
:102E80000AC080910602811106C08091070281115B
:102E900002C010920202089583E092E00E94750938
:102EA0000E944715909300028093FF0108951F939D
:102EB000CF93DF938091FF01909100020E94531500
:102EC00040910202442321F02091060130E006C027
:102ED000209107015AE0259F900111248217930742
:102EE00008F482C08091040210910502D09106027C
:102EF000C0910702811107C0111105C0D11103C093
:102F0000CC2309F471C04F3F19F04F5F4093020288
:102F1000181624F40E94DE158093040280910402A6
:102F200087FF05C00E94DE1581958093040211166B
:102F300024F40E94DE15809305028091050287FF2C
:102F400005C00E94DE158195809305026091040200
:102F5000662339F110910502112319F1772767FDD6
:102F60007095872F972F0E94682123E333E343E373
:102F70005FE30E94CC210E94352160930402612FFF
:102F8000772767FD7095872F972F0E94682123E38D
:102F900033E343E35FE30E94CC210E943521609339
:102FA00005021D1624F40E942616809306028091C5
:102FB000060287FF05C00E942616819580930602AF
:102FC0001C1624F40E9426168093070280910702A3
:102FD00087FF05C00E942616819580930702DF9126
:102FE000CF911F910C944C17DF91CF911F910895B1
:102FF000E3E0F2E085E0DF011D928A95E9F71092A7
:103000000202109201020895833081F128F4813088
:1030100059F08230D1F00895853009F449C0B8F1F3
:10302000863009F456C0089520910701862F90E05C
:10303000820F911D8F3F910520F4620F609307016D
:1030400008958FEF80930701089520910601862F40
:1030500090E0820F911D8F3F910520F4620F6093E5
:10306000060108958FEF80930601089520910501D0
:10307000862F90E0820F911D8F3F910520F4620F03
:103080006093050108958FEF8093050108952091C5
:103090000401862F90E0820F911D8F3F910520F44F
:1030A000620F6093040108958FEF809304010895E7
:1030B00020910301862F90E0820F911D8F3F910593
:1030C00020F4620F6093030108958FEF8093030152
:1030D000089520910201862F90E0820F911D8F3F6D
:1030E000910520F4620F6093020108958FEF8093A1
:1030F00002010895833011F128F4813049F08230C3
:1031000091F00895853081F120F18630C1F1089564
:1031100080910701681720F4861B809307010895AA
:1031200010920701089580910601681720F4861B0C
:10313000809306010895109206010895809105017B
:10314000681720F4861B80930501089510920501ED
:10315000089580910401681720F4861B8093040170
:10316000089510920401089580910301681720F4D6
:10317000861B8093030108951092030108958091A6
:103180000201681720F4861B8093020108951092B3
:1031900002010895873220F58E3108F098C0803101
:1031A00009F474C070F4873009F44CC018F4863008
:1031B00089F12EC08B3009F4A0C08E3009F45CC0B8
:1031C00027C0863109F499C020F4813109F46FC019
:1031D0001FC0893109F491C08B3109F443C018C074
:1031E000883309F48AC050F4893209F47EC08533EB
:1031F00009F47BC0873209F478C00AC0833409F42B
:1032000074C020F48A3308F060C002C0883461F0D2
:1032100080E008958091FD01817F8E7F8093FD0184
:1032200081E08093090208950E94340E2FEF83ED10
:1032300090E3215080409040E1F700C000000E94E0
:10324000A2155BC09091FD01892F8095817080FB54
:1032500090F99093FD01811150C0997F977F9093D1
:10326000FD014BC09091FD0191FB882780F921E081
:10327000822780FB91F913C09091FD0192FB882772
:1032800080F921E0822780FB92F909C09091FD012D
:1032900093FB882780F921E0822780FB93F99093A4
:1032A000FD01882351F191609093FD0108950E94E2
:1032B000340E9091310297FB882780F921E0822714
:1032C00080FB97F99093310218C027EC01C023EEE0
:1032D000280F61E070E080E090E004C0660F771F87
:1032E000881F991F2A95D2F704C061E070E080E042
:1032F00090E00E943B120E94340E81E0089580E02D
:10330000089580E008958E518A3030F4E82FF0E07F
:10331000E85DFE4F8081089580E00895CF93C82F27
:1033200080910902813069F018F08230B1F180C0DB
:10333000E0910001F09101018081823209F07AC0B0
:1033400007C0E0910001F09101018081823249F4CF
:103350008C2F0E947F1981111DC08C2F0E94CA18CA
:103360001AC08C2F0E948119811114C0C43179F0C8
:1033700048F4CB3079F0C03109F060C082E080932E
:10338000090208C0C93219F0C83321F057C01092A1
:10339000090254C081E0817053C0C93289F118F527
:1033A000C43171F1B0F4C73009F046C08EE18093AA
:1033B000070182E3809306018AE08093050184E19E
:1033C0008093040188E08093030188E280930201E6
:1033D00033C082EE8C0F863078F58C2F0E948319D3
:1033E0008093080229C0CE34E9F020F4CB3421F5D3
:1033F0006AE013C0C13579F0C235F1F461E00DC067
:1034000080910802882319F01092080215C081E00B
:103410008093090215C061E006C0809108020E94F5
:1034200004180AC06AE0809108020E947A1804C059
:103430001092090280E004C081E002C080E0ABCFBE
:10344000CF91089580912A0208950F931F93CF93EF
:10345000DF9300D01F92CDB7DEB78C010E94911C84
:10346000823011F0853019F583E089831B830A834C
:103470008093E9008FEF9091E800815095FD06C0A0
:1034800095ED9A95F1F700008111F5CF8091E80054
:1034900085FF0DC040E050E063E070E0CE01019692
:1034A0000E94AE1C8091E8008E778093E8000F9018
:1034B0000F900F90DF91CF911F910F910895CF93AF
:1034C000DF9300D01F92CDB7DEB7209137022430B2
:1034D00031F522E02983805891099B838A8383E018
:1034E0008093E9008FEF9091E800815095FD06C030
:1034F00095ED9A95F1F700008111F5CF8091E800E4
:1035000085FF0DC040E050E063E070E0CE01019621
:103510000E94AE1C8091E8008E778093E8000F90A7
:103520000F900F90DF91CF910895CF93DF93EC012F
:103530000E94911C823011F08530F9F482E0809372
:10354000E9008FEF9091E800815095FD06C095ED60
:103550009A95F1F700008111F5CF8091E80085FF81
:103560000CC040E050E065E070E0CE010E94AE1C6F
:103570008091E8008E778093E800DF91CF910895E5
:10358000CF93DF93EC010E94911C823019F08530BB
:1035900009F047C0809112018823E1F08091310247
:1035A00087FF18C084E08093E9008FEF9091E800D6
:1035B000815095FD06C095E19A95F1F700008111C3
:1035C000F5CF8091E80085FF2CC040E050E060E23C
:1035D00070E017C081E08093E9008FEF9091E800E0
:1035E000815095FD06C095ED9A95F1F70000811187
:1035F000F5CF8091E80085FF14C040E050E068E01E
:1036000070E0CE010E94AE1C8091E8008E7780931E
:10361000E80080E2FE01AAE0B2E001900D928A95F6
:10362000E1F7DF91CF91089580913602811109C0B1
:103630000E94401E0E949D1E8091E2008460809343
:10364000E2000895109236020895089508950C94AA
:103650000F1542E061EC81E00E94BA1D42E061EC8E
:1036600082E00E94BA1D42E061EC83E00E94BA1D34
:1036700042E261EC84E00C94BA1D809139028330FF
:1036800009F455C030F4813071F0823009F48EC0F5
:1036900008958A3009F47AC08B3009F460C089300B
:1036A00009F09CC020C080913802813A09F096C090
:1036B0008091E800877F8093E80080913C029091A0
:1036C0003D02892B21F060E080E090E003C060E2E1
:1036D0008AE092E070E00E94F71C8091E8008B770E
:1036E0008093E800089580913802813209F076C015
:1036F00080913C0290913D02009719F0039709F0E8
:103700006DC08091E800877F8093E8008091E80099
:1037100082FD05C0809137028111F8CF5FC0809192
:10372000F10080932A028091E8008B7753C080914A
:103730003802813A09F052C080913C0290913D02DA
:10374000892B09F04BC08091E800877F8093E800C7
:103750008091E80080FFFCCF8091120136C08091FB
:1037600038028132D9F580913C0290913D02892B3B
:10377000A9F58091E800877F8093E8000E94EF1D03
:1037800080913A02809312010C94340E8091380299
:10379000813221F58091E800877F8093E8000E94C4
:1037A000EF1D80913B0280932B0208958091380297
:1037B000813AA1F48091E800877F8093E8008091AE
:1037C000E80080FFFCCF80912B028093F100809174
:1037D000E8008E778093E8000C94EF1D089584B77D
:1037E000877F84BF88E10FB6F894809360001092C1
:1037F00060000FBE80E880936100109261000E941B
:10380000AD090E94401E0E949D1E8091E2008460CE
:103810008093E20078940E9418210E94AF0988E00A
:1038200091E00E94590980913702853069F40E9425
:10383000CF14809135028823B1F30E94FA148823B3
:1038400091F30E94981CEFCF0E94B509ECCF292F6D
:10385000332723303105A9F06CF42130310509F408
:1038600042C02230310509F043C08DE690E029EDD9
:1038700036E042C021323105C9F02232310519F15A
:1038800037C099278130910541F08230910541F090
:10389000892B71F5E5EDF6E005C0E3ECF6E002C03A
:1038A000E5EAF6E0849190E09F0126C0643000F5DF
:1038B000E62FF0E0EE0FFF1FE25CFE4F208131812A
:1038C00089E090E019C0643098F4E62FF0E0DF0161
:1038D000AA0FBB1FAA5CBE4F2D913C91EE5CFE4F20
:1038E000808190E009C082E190E026E437E004C0E6
:1038F00080E090E020E030E0FA01318320830895F9
:103900000895CF93C82F0E94801CC0932C02CF91A2
:10391000089580913702843011F482E0089581E0A7
:10392000089580912C02811102C00C94891C089585
:1039300080E189BD82E189BD09B400FEFDCF80919F
:10394000D8008F7D8093D8008091E00082608093C2
:10395000E0008091E00081FDFCCF0895CF92DF92DE
:10396000EF92FF920F931F93CF93DF937C018B0114
:10397000EA010E94101E811131C0209731F0888128
:103980009981081B190BE80EF91EC12CD12C0115C9
:10399000110519F18091E80085FD14C08091E800BF
:1039A0008E778093E800209741F0888199818C0D73
:1039B0009D1D9983888385E011C00E94101E882375
:1039C00031F30CC0F70181917F018093F100015028
:1039D0001109FFEFCF1ADF0ADACF80E0DF91CF9134
:1039E0001F910F91FF90EF90DF90CF90089520915D
:1039F0003E0230913F022617370748F061157105E6
:103A000039F42091E8002E772093E80001C0B90135
:103A1000FC0120E061157105B9F18091370288231E
:103A200009F440C0853009F43FC08091E80083FD6F
:103A30003DC08091E80082FF06C08091E80082FFCF
:103A400026C080E008958091E80080FFE3CF2091B8
:103A5000F3008091F20090E0922B6115710551F016
:103A60008830910538F421912093F100615071095B
:103A70000196F3CF21E0089709F020E08091E8005B
:103A80008E778093E800C6CF2111C7CFD6CF809123
:103A90003702882339F0853039F08091E80083FFC0
:103AA000CCCF04C082E0089583E0089581E00895BA
:103AB00020913E0230913F022617370748F06115EA
:103AC000710539F42091E8002E772093E80001C0B9
:103AD000B901FC0120E061157105C1F18091370247
:103AE000882309F441C0853009F440C08091E80082
:103AF00083FD3EC08091E80082FF06C08091E8000F
:103B000082FF27C080E008958091E80080FFE3CF26
:103B10002091F3008091F20090E0922B61157105E5
:103B200059F08830910540F424912093F1003196AA
:103B3000615071090196F2CF21E0089709F020E069
:103B40008091E8008E778093E800C5CF2111C6CF21
:103B5000D5CF80913702882339F0853039F08091B4
:103B6000E80083FFCBCF04C082E0089583E008958E
:103B700081E00895982F973058F59093E9009817B1
:103B800039F07091EC002091ED005091F00003C0ED
:103B9000242F762F50E021FF19C03091EB003E7F9B
:103BA0003093EB003091ED003D7F3093ED0030918C
:103BB000EB0031603093EB007093EC002093ED004C
:103BC0005093F0002091EE0027FF07C09F5FD3CFF6
:103BD0008F708093E90081E0089580E008958091DE
:103BE000380287FD05C08091E80080FF0EC012C03A
:103BF0008091E80082FD05C0809137028111F8CFE5
:103C000008958091E8008B7708C080913702811178
:103C1000EACF08958091E8008E778093E8000895B8
:103C20008091E4009091E50045E62091EC0020FFB2
:103C300021C02091E80020FD21C0209137022223DD
:103C400089F0253089F02091EB0025FD0FC02091EF
:103C5000E4003091E5002817390739F3415041F06D
:103C6000C901E3CF82E0089583E0089581E00895DB
:103C700084E008952091E80022FFDFCF80E00895DE
:103C80000E94AE1E0E94B61EE0EEF0E080818160D0
:103C90008083E8EDF0E080818F77808319BCA7ED09
:103CA000B0E08C918E7F8C9380818F7E8083109288
:103CB000360208950F931F93CF93DF930E94AE1E99
:103CC0000E94B61EC8EDD0E088818F7788838881F6
:103CD0008068888388818F7D888319BC1092370221
:103CE00010923302109235021092340200EE10E06E
:103CF000F80180818B7F808388818160888342E0A6
:103D000060E080E00E94BA1DE1EEF0E080818E7FED
:103D10008083E2EEF0E08081816080838081886032
:103D20008083F80180818E7F808388818061888391
:103D3000DF91CF911F910F910895E8EDF0E0808120
:103D40008F7E8083E7EDF0E080818160808384E076
:103D500082BF81E0809336020C945A1EE8EDF0E0B9
:103D600080818E7F80831092E20008951092DA00A5
:103D70001092E10008951F920F920FB60F92112436
:103D80002F933F934F935F936F937F938F939F9363
:103D9000AF93BF93EF93FF938091E10082FF0BC03D
:103DA0008091E20082FF07C08091E1008B7F8093C9
:103DB000E1000E9417218091DA0080FF1FC08091EE
:103DC000D80080FF1BC08091DA008E7F8093DA00DC
:103DD0008091D90080FF0DC080E189BD82E189BD5D
:103DE00009B400FEFDCF81E0809337020E94141BCE
:103DF00005C019BC109237020E94221B8091E1007D
:103E000080FF19C08091E20080FF15C08091E20020
:103E10008E7F8093E2008091E20080618093E200D7
:103E20008091D80080628093D80019BC85E080938F
:103E300037020E94261B8091E10084FF30C08091F0
:103E4000E20084FF2CC080E189BD82E189BD09B414
:103E500000FEFDCF8091D8008F7D8093D8008091A7
:103E6000E1008F7E8093E1008091E2008F7E80935D
:103E7000E2008091E20081608093E2008091330251
:103E8000882311F084E007C08091E30087FF02C01F
:103E900083E001C081E0809337020E94271B80915C
:103EA000E10083FF29C08091E20083FF25C080915B
:103EB000E100877F8093E10082E0809337021092D7
:103EC00033028091E1008E7F8093E1008091E200D7
:103ED0008E7F8093E2008091E20080618093E20017
:103EE00042E060E080E00E94BA1D8091F0008860AE
:103EF0008093F0000E94251BFF91EF91BF91AF913D
:103F00009F918F917F916F915F914F913F912F91F1
:103F10000F900FBE0F901F9018951F920F920FB623
:103F20000F9211242F933F934F935F936F937F933F
:103F30008F939F93AF93BF93CF93EF93FF93C091D2
:103F4000E900CF708091EC001092E9008091F000C0
:103F5000877F8093F00078940E94C91F1092E90037
:103F60008091F00088608093F000C093E900FF9199
:103F7000EF91CF91BF91AF919F918F917F916F9171
:103F80005F914F913F912F910F900FBE0F901F9017
:103F900018951F93CF93DF93CDB7DEB7AA970FB6CF
:103FA000F894DEBF0FBECDBFE8E3F2E08091F100F0
:103FB000819322E0E034F207C9F70E943D1B809113
:103FC000E80083FF1CC12091380230913902832F11
:103FD00090E08A30910508F012C1FC01E556FF4FD0
:103FE0000C946B22203881F0223809F008C18091AE
:103FF0003C028F708093E9008091EB0085FB88275D
:1040000080F91092E90006C0809134029091350247
:10401000911182609091E800977F9093E8008093DF
:10402000F1001092F100C5C0822F8D7F09F0E7C02A
:10403000222319F0223061F0E2C080913A028130EF
:1040400009F0DDC0333009F080E08093350228C0EC
:1040500080913A02811124C020913C022F7009F412
:10406000CEC02093E9008091EB0080FF19C08091C1
:10407000EB00333011F4806211C080618093EB005B
:1040800081E090E0022E01C0880F0A94EAF7809345
:10409000EA001092EA008091EB0088608093EB00C8
:1040A0001092E9008091E800877F86C02111A7C0A7
:1040B00010913A021F778091E3008078812B8093E2
:1040C000E3008091E800877F8093E8000E94EF1D65
:1040D0008091E80080FFFCCF8091E30080688093AE
:1040E000E300112311F083E001C082E080933702E6
:1040F00086C02058223008F082C080913A02909108
:104100003B028C3D23E0920779F583E08A838AE2C3
:1041100089834FB7F894DE01139620E03EE051E228
:10412000E32FF0E050935700E49120FF03C0E295A5
:10413000EF703F5FEF708E2F90E0EA3010F0C7967F
:1041400001C0C0968D939D932F5F243149F74FBFD7
:104150008091E800877F8093E8006AE270E0CE01FA
:1041600001960E94F71C14C0AE014F5F5F4F609133
:104170003C020E94271C009709F441C02091E800EE
:10418000277F2093E800BC0189819A810E94581DF5
:104190008091E8008B778093E80031C0203879F572
:1041A0008091E800877F8093E800809133028093BC
:1041B000F1008091E8008E778093E8000E94EF1D67
:1041C0001EC021111CC090913A029230C0F480911F
:1041D000E800877F8093E800909333020E94EF1DF0
:1041E00080913302811104C08091E30087FF02C0F7
:1041F00084E001C081E0809337020E94291B8091F6
:10420000E80083FF0AC08091E800877F8093E80080
:104210008091EB0080628093EB00AA960FB6F89431
:10422000DEBF0FBECDBFDF91CF911F9108950895DE
:10423000CF93809137028823B1F08091E9008F708D
:104240009091EC0090FF02C090E801C090E0C92F6F
:10425000C82B1092E9008091E80083FD0E94C91FDD
:10426000CF70C093E900CF91089504D06894B11144
:104270008DC0089570D088F09F5790F0B92F99277E
:10428000B751A0F0D1F0660F771F881F991F1AF061
:10429000BA95C9F712C0B13081F077D0B1E0089576
:1042A00074C0672F782F8827B85F39F0B93FCCF3F7
:1042B000869577956795B395D9F73EF49095809557
:1042C000709561957F4F8F4F9F4F0895E89409C077
:1042D00097FB3EF490958095709561957F4F8F4F39
:1042E0009F4F9923A9F0F92F96E9BB279395F6954F
:1042F000879577956795B795F111F8CFFAF4BB0FCD
:1043000011F460FF1BC06F5F7F4F8F4F9F4F16C030
:10431000882311F096E911C0772321F09EE8872FBA
:10432000762F05C0662371F096E8862F70E060E076
:104330002AF09A95660F771F881FDAF7880F9695EF
:10434000879597F9089557FD9058440F551F59F0D8
:104350005F3F71F04795880F97FB991F61F09F3F72
:1043600079F087950895121613061406551FF2CF9B
:104370004695F1DF08C0161617061806991FF1CFEB
:1043800086957105610508940895E894BB27662712
:104390007727CB0197F908950BD078C069D028F022
:1043A0006ED018F0952309F05AC05FC01124EECFEB
:1043B000CADFA0F3959FD1F3950F50E0551F629F80
:1043C000F001729FBB27F00DB11D639FAA27F00D6E
:1043D000B11DAA1F649F6627B00DA11D661F829F95
:1043E0002227B00DA11D621F739FB00DA11D621F7A
:1043F000839FA00D611D221F749F3327A00D611D97
:10440000231F849F600D211D822F762F6A2F112478
:104410009F5750408AF0E1F088234AF0EE0FFF1FCB
:10442000BB1F661F771F881F91505040A9F79E3F02
:10443000510570F014C0AACF5F3FECF3983EDCF357
:10444000869577956795B795F795E7959F5FC1F73F
:10445000FE2B880F911D9695879597F9089597F9EA
:104460009F6780E870E060E008959FEF80EC08951A
:1044700000240A9416161706180609060895002443
:104480000A9412161306140605060895092E0394BD
:10449000000C11F4882352F0BB0F40F4BF2B11F431
:1044A00060FF04C06F5F7F4F8F4F9F4F089597FB52
:1044B000072E16F4009407D077FD09D00E947122D0
:1044C00007FC05D03EF4909581959F4F0895709517
:1044D00061957F4F0895EE0FFF1F0590F491E02D39
:1044E0000994AA1BBB1B51E107C0AA1FBB1FA6173B
:1044F000B70710F0A61BB70B881F991F5A95A9F78D
:1045000080959095BC01CD010895F999FECF92BD9B
:1045100081BDF89A992780B50895A8E1B0E042E0FE
:1045200050E00C94AD22262FF999FECF92BD81BDAB
:10453000F89A019700B4021639F01FBA20BD0FB6E1
:10454000F894FA9AF99A0FBE08950196272F0E94BF
:1045500094220C949322DC01CB01FC01F999FECF4B
:1045600006C0F2BDE1BDF89A319600B40D924150FB
:0A4570005040B8F70895F894FFCF0B
:10457A00DA012808140A321E221AC01A951A5F1A7A
:10458A00251A016667F0F1F4F5F6F73635349730F7
:10459A0031323337909192930102030405060708DA
:1045AA000900404D36391408C70791075807EB062A
:0645BA0004071D0736078F
:00000001FF
