:100000000C949C020C94C2040C94E0020C94E00248
:100010000C94E0020C94E0020C94E0020C94E002D8
:100020000C94E0020C94E0020C94361E0C94081F11
:100030000C94DC140C94E0020C94E0020C94E002AA
:100040000C94E0020C94E0020C94E0020C94E002A8
:100050000C94E0020C9443150C94E0020C94E00222
:100060000C94E0020C94E0020C94E0020C94E00288
:100070000C94E0020C94E0020C94E0020C94E00278
:100080000C94E0020C94E0020C94E0020C94E00268
:100090000C94E0020C94E0020C94E0020C94E00258
:1000A0000C94E0020C94E0020C94E0020C061206A0
:1000B000160619061D062106250629062E063206F5
:1000C00036063A063D064106450649064D065206E5
:1000D0000F0C0F0C420C420C820CA40CCC0DCC0D5E
:1000E000AF0CCC0D560D560DBF0DCC0DCC0DC70D64
:1000F000630D630D630D630D630D630D630D630D80
:10010000630D630D630D630D630D630D630D630D6F
:10011000730D830D8A0D910D9B0D4C0E4C0E5F0ED1
:100120005F0E550E5F0E5F0E5F0E4C0E4C0E5B0E9B
:100130005F0E5F0E5B0E6D1F8F1F7A208F1F7A2060
:10014000D11FF41F7A2049205C20012F022F01309B
:100150000230015002500001E1012F022F01300254
:100160003002E10150025001280228012802280132
:100170005202520001E1012602260127022702E174
:1001800001500250002CA128A265A429A331A3F09C
:10019000A3F0A5F0A1032014001A00080015001711
:1001A000002B6104001600070009000A00E1001D91
:1001B000001B000600190005000720E3000620E2EE
:1001C00000002005201C0018000C00120013000481
:1001D000200B000D000E000F00330028001100104E
:1001E000003600370038004C622A610120E6004CDE
:1001F00000022002512B0001000100010001003526
:1002000000010001000100010001003502010001B0
:1002100000010001000100230201000100010001B2
:10022000000100010001004A0001002D002E0035F0
:10023000005000510052004F002A0034004D004C85
:100240000049004B004E00010001000100010001C7
:10025000000100010001001E021F022002210222F3
:10026000020100260227022F023002013001002F76
:100270000030000100010003300100010001000115
:1002800000010001002302240225022602270201A8
:10029000000230340034022D022E02010001000160
:1002A0000001000100010001000100010001000146
:1002B000000100010001001E001F0020002100229B
:1002C0000001003A003B003C003D003E00010044BC
:1002D000004500680069006A00010001000100019A
:1002E0000001000100230024002500260027000152
:1002F000003F00400041004200430001006B006CE1
:10030000006D006E006F000100010001000100019E
:100310000001000100A50001000100010001000131
:1003200000A6000100AC00AB00010001000100A923
:1003300000AA00A800AE00010001000100010001B8
:1003400000010001000100010046004700480000D4
:100350005C01000100010001000100010001000139
:100360000001000100010001000100010001000185
:1003700000010001000100010001000100540056CD
:1003800000010001000100010055005700010001BB
:1003900000010001005300620001000100010001A2
:1003A00000010001005F0060006100010001000128
:1003B000005C005D005E0001002A00010059005A47
:1003C000005B003700010001000100010001000195
:1003D00000010001001C034C006500740073002044
:1003E00000530070006C006900740020007600313A
:1003F000000000160357006F006F0074007000616A
:100400000074006F006F0074000000040309040909
:10041000025400030100A0FA0904000001030101D5
:100420000009211101000122400007058103080095
:100430000A09040100010301020009211101000160
:10044000224D000705820308000A09040200010387
:100450000000000921110100012236000705830375
:1004600008000A1201100100000008EDFE603001D2
:10047000000102000105010980A1018502160100A9
:100480002603001A81002A8300751095018100C09F
:10049000050C0901A1018503160100269C021A0121
:1004A000002A9C02751095018100C005010902A176
:1004B000010901A10005091901290515002501956A
:1004C0000575018102950175038101050109300956
:1004D000311581257F95027508810609381581251A
:1004E0007F950175088106050C0A38021581257F64
:1004F000950175088106C0C005010906A10105071F
:1005000019E029E71500250195087501810295017B
:1005100075088101050819012905950575019102E4
:100520009501750391010507190029FF150026FFA4
:1005300000950675088100C011241FBECFEFDAE0D8
:10054000DEBFCDBF04B603FE24C08091EC019091C4
:10055000ED01A091EE01B091EF018730904BA740E3
:10056000B04BB9F41092EC011092ED011092EE0133
:100570001092EF0114BE84B7877F84BF88E10FB665
:10058000F89480936000109260000FBEE0E0F8E302
:10059000099511E0A0E0B1E0E0E7F4E402C00590C5
:1005A0000D92AC33B107D9F711E0ACE3B1E001C073
:1005B0001D92AC3EB107E1F70E946A1B0C943622F3
:1005C0000C940000ABE1B1E021E030E08D91E82F28
:1005D000E295EF70F0E041A18F70B90102C0660FA3
:1005E000771F8A95E2F7CB01962F9095492341A377
:1005F00092A1982B92A371E0AF31B70739F7089514
:10060000089508950C9401038091C101836088606E
:100610008093C1010E94E202A5E1B1E021E030E057
:100620008D91E82FE295EF70F0E041A18F70B90154
:1006300002C0660F771F8A95E2F7CB01962F90953F
:10064000492341A392A1982B92A371E0AB31B70744
:1006500039F7559A209AE4E4F1E0ACE3B1E0119265
:100660001D9281E0EC34F807D1F70C94FB069F92C1
:10067000AF92BF92CF92DF92EF92FF920F931F93B0
:10068000CF93DF9380910101882319F000E010E0FF
:1006900002C004E010E08BE1C82E81E0D82EC0E05B
:1006A000D0E0EE24E394F12CA801445C5E4F5A01A3
:1006B00025E0922EF60181916F01E82FE295EF700F
:1006C000F0E021A18F70A70102C0440F551F8A9549
:1006D000E2F7CA01242B21A392A18095982392A32B
:1006E00050EA5A95F1F7E5E1F1E080E090E040E072
:1006F0005191A52FA295AF70B0E090962C9130E06B
:100700005F7002C0359527955A95E2F720FD07C026
:100710002E2D082E01C0220F0A94EAF701C020E016
:10072000422B01968630910519F7F501EC0FFD1F5C
:100730008081841719F04083909200010E94E202A8
:100740002196C430D10509F0B5CF809100018823EE
:10075000E1F0815080930001882339F08FE99FE018
:100760000197F1F700C0000010C080E090E00C5B42
:100770001E4FF801E80FF91FD501A80FB91F2C91E2
:100780002083019684309105A1F781E0DF91CF911C
:100790001F910F91FF90EF90DF90CF90BF90AF909F
:1007A0009F900895CF93DF9380910101882319F0E2
:1007B000C4E0D0E002C0C0E0D0E00E943405009761
:1007C00091F420E030E0CC5BDE4FF901E15BFE4FBD
:1007D0004081FE01E20FF31F40832F5F3F4F243023
:1007E000310599F702C081E090E0DF91CF91089543
:1007F000CF930E943703C82F0E94D203892BC1F0E8
:100800005D9890914C019F5F90934C01963098F0C9
:1008100080910101882319F0E4E0F0E002C0E0E0FB
:10082000F0E0EC5BFE4F108211821282138203C053
:100830005D9A10924C010E94FD068C2FCF91089575
:100840000E94370380910101882319F020E030E0F5
:1008500002C024E030E080E090E02C5B3E4FF901E4
:10086000E80FF91F4081FC01E15BFE4F40830196D8
:1008700084309105A1F70895E82FF0E0EC5BFE4F7E
:10088000808108950895E8EDF0E0808180618083A3
:100890008AE18A95F1F700C08091D90081700895AE
:1008A0000E944304809301010E944304882319F0AD
:1008B0000E94B50402C00E94B904789408950E9471
:1008C00004030E942004FDCF0E9450040E944304B0
:1008D000811102C00E945F040895509A08955098B3
:1008E000589A0895589A08951F93CF93DF93C82F6D
:1008F0000E946D0418E0D0E0115088F0CE01012E66
:1009000002C0959587950A94E2F780FF03C00E9484
:10091000720401C0589880E88A95F1F7EDCFDF9115
:10092000CF911F9108950E946F04489BFECF80E8ED
:100930008A95F1F708950E946F0498E080E029B14C
:100940002170880F822B20E82A95F1F725E02A955F
:10095000F1F70000915099F708950E946D0458989E
:1009600080E88A95F1F70C9472040E946D040C944F
:1009700072040E946F04E89AE9E6F0E080818C7FBF
:10098000808308951F920F920FB60F921124CF9279
:10099000DF92FF920F931F932F933F934F935F9399
:1009A0006F937F938F939F93AF93BF93EF93FF9337
:1009B000CF93DF931F92CDB7DEB70E94AD04C12C59
:1009C000D12CF12C8601015B1E4FF80180810E9421
:1009D00074040E94AD04F8018081F80EFFEFCF1A75
:1009E000DF0A84E0C816D10469F78F2D0E947404D1
:1009F0000E94AD04E0E8EA95F1F7F0E4FA95F1F72A
:100A00000E949B0480934E010E94AD0410914E0100
:100A10000E949B0489830E94AD040E946F04898117
:100A2000181721F080914D01816003C080914D0124
:100A30008E7F80934D010F90DF91CF91FF91EF91C9
:100A4000BF91AF919F918F917F916F915F914F91E6
:100A50003F912F911F910F91FF90DF90CF900F90BA
:100A60000FBE0F901F901895CF92DF92FF920F93B9
:100A70001F93CF93DF931F92CDB7DEB7F8940E94F8
:100A80006D04589885E08A95F1F700000E946F0484
:100A90000E947204E0E8EA95F1F7489934C00E9498
:100AA0009304C12CD12CF12C0E949B048601015B84
:100AB0001E4FF80180830E949304F8018081F80E94
:100AC000FFEFCF1ADF0A84E0C816D10469F70E944D
:100AD0009B0489830E9493048981F81214C0809139
:100AE0004E010E9474040E94930480914E010E9462
:100AF00074040E9493040E946D040E94720478940E
:100B000080E090E003C0789481E090E00F90DF9166
:100B1000CF911F910F91FF90DF90CF900895FC012E
:100B2000613041F018F0623049F00EC082818111CD
:100B30000EC00AC0828181110DC006C08281882347
:100B400019F08AE491E0089580E090E0089584E748
:100B500091E0089587E591E0089581E0089581E0AE
:100B600008950C94AF050E943A0E2FEF84E39CE0A9
:100B7000215080409040E1F700C0000087E797E7F0
:100B800090930108809300080C9469150F931F93AC
:100B9000CF93DF938C01FC01C081D181CE010E94F3
:100BA0002613BE010E940507EC01B8010E94B105A1
:100BB000882309F41AC1B801CE010E9428098823AC
:100BC00009F413C1C531FCE5DF0708F0A3C0C2304A
:100BD0008CE5D80708F478C0F8018281882309F4ED
:100BE0007FC00E947A14811102C00E9460140E948A
:100BF0008D1490E09093DE018093DD01FE01E350BF
:100C0000FC45E231F10520F4EA5AFF4F0C94E6214D
:100C10008091DD01816003C08091DD01826080935D
:100C2000DD014BC08091DD018460F9CF8091DD0151
:100C300013C08091DD018061F2CF8091DD0180627F
:100C4000EECF8091DD018064EACF8091DD01806884
:100C5000E6CF8091DD0184608860E1CF8091DD0185
:100C60008E7FDDCF8091DD018D7FD9CF8091DD0139
:100C70008B7FD5CF8091DD0113C08091DD018F7E08
:100C8000CECF8091DD018F7DCACF8091DD018F7B3A
:100C9000C6CF8091DD018F77C2CF8091DD018B7F40
:100CA000877FBDCF9091DD0197FB882780F921E0F8
:100CB000822780FB97F99093DD018091DD010E94EE
:100CC00091140E943A0E91C0C115ECE5DE0779F04F
:100CD000C130DC45A1F081E080935501809356013D
:100CE000C801DF91CF911F910F910C94AD05F801D0
:100CF0008281882309F479C00E94B30576C0F80187
:100D00008281882309F471C08091C1018160809340
:100D1000C1016BC0CD338CE5D80739F5F80182816C
:100D2000882361F0109256010E940E159093540191
:100D30008093530180E20E94C40B57C080915601FA
:100D400081110FC080915301909154010E941A1596
:100D5000883C910530F487E20E94A20A87E20E9453
:100D6000750B80E20E94CB0B40C0CE33ECE5DE0772
:100D700038F5CC33DC4509F0AECFF8018281882309
:100D800051F0109255010E940E15909354018093DA
:100D9000530182E0D0CF8091550181110FC0809125
:100DA0005301909154010E941A15883C910530F42A
:100DB00086E20E94A20A86E20E94750B82E0D2CFF0
:100DC000C0348CE5D80731F4F8018281882369F0BA
:100DD00080E009C0C134DC4509F07DCFF801828193
:100DE000882319F082E00E94FC1B80E0DF91CF9104
:100DF0001F910F9108950C9474090C9402030895A7
:100E00000C94FF060C940007089596E0799FF0017A
:100E1000112490E3899FE00DF11D1124E60FF11DCF
:100E2000EE0FFF1FEB56FE4F859194910895880FAA
:100E3000991F8B579E4FFC018591949108950E94B4
:100E400005070E94AB08811520E49207B0F58115D3
:100E500040E3940708F0DBC0803E9105D8F4803C65
:100E6000910508F069C0883A910578F4853A9105B2
:100E700008F065C08130910509F46CC108F423C104
:100E80008430910508F066C11EC18D3B910508F4C0
:100E900061C019C18F3F910509F048F4803F910569
:100EA00008F0AFC0883E910508F454C10CC181150B
:100EB00020E2920708F0A7C00895811544E5940741
:100EC000D8F4811523E5920708F0DCC0811541E5CF
:100ED000940740F4811520E5920708F0A2C09F70A6
:100EE000906A0895811542E5940708F0B6C0982FDE
:100EF0008827816F906A0895811526E5920750F43E
:100F0000811545E5940708F0D2C0982F8827846F93
:100F1000906A0895811528E5920708F4D4C08115D8
:100F200049E5940708F4C8C09C01305621153042A9
:100F300008F0C9C09F71C5C0805C910965C0853A41
:100F4000910509F4C3C0863A910509F4C2C083E84B
:100F500090E40895883A910509F4BEC0893A910554
:100F600009F4BDC08A3A910509F4BCC08B3A9105D9
:100F700009F4BBC08C3A910509F4BAC08B3B9105CA
:100F800009F4B9C08C3B910509F4B8C08D3A9105BC
:100F900009F4B7C0803B910509F4B6C08E3A9105BB
:100FA00009F4B5C08F3A910509F4B4C0813B9105AD
:100FB00009F4B3C0823B910509F4B2C0833B9105AB
:100FC00009F4B1C0843B910509F4B0C0853B91059B
:100FD00009F4AFC0863B910509F4AEC0873B91058B
:100FE00009F4ADC0883B910509F4ACC0893B91057B
:100FF00009F4ABC08A3B910509F0AAC08AE296E4E5
:101000000895906508959F700E94170708959C01A8
:10101000332793FF03C0C901986C0895C901906CF0
:101020000895482F437021E030E002C0220F331FA3
:101030004A95E2F73C68AC0174E0569547957A957D
:10104000E1F74370342B8F708695869540E2849F3C
:10105000C0011124822B932B0895282F26952695C5
:1010600040E2249F90011124AC014370552781E098
:1010700090E002C0880F991F4A95E2F7822B932BCC
:101080009C680895282F2695269540E2249F90017C
:101090001124AC014370552781E090E002C0880F15
:1010A000991F4A95E2F7822B932B9A6808958F71C6
:1010B0009927982F882705C0982F8827806F906AD6
:1010C00008959062089580E090E0089581E890E4AA
:1010D000089582E890E4089582EE94E4089589EEFC
:1010E00094E408958AEE94E4089585EB94E40895D9
:1010F00086EB94E4089583EB94E4089584EB94E400
:10110000089587EB94E408958CEC94E408958DECB5
:1011100094E4089583E895E408958AE895E40895B1
:1011200082E995E4089584E995E4089581E296E4DE
:10113000089583E296E4089584E296E4089585E2B2
:1011400096E4089586E296E4089587E296E4089589
:1011500080E094E408958238910549F1B0F4813338
:10116000910509F459C048F48932910509F44FC03A
:101170008A32910509F455C008958533910509F423
:1011800041C08933910599F00895833E910531F16D
:1011900038F4803E910591F0823E9105A9F00895C2
:1011A000863E910501F1873E910539F10895209120
:1011B000DD0120FD3BC021FD39C008958091DD0196
:1011C00080FF34C089E341C08091DD0182FF32C0DD
:1011D0008091DD0184FF2CC080E037C08091DD016B
:1011E00082FD28C0F5CF8091DD0183FF25C080916D
:1011F000DD0184FDF1CF87EE28C08091DD0183FD04
:101200001BC0F5CF8091DD0185FF18C019C080910A
:10121000DD0185FF15C012C08091DD0186FF12C07F
:1012200013C08091DD0186FF0FC00CC080EE0DC0A1
:1012300083EE0BC082EE09C086EE07C085E305C0D1
:1012400089E203C081E301C08AE290E00895089535
:10125000CF93DF93EC01FB018281811102C081E019
:1012600040C080916401811125C0C531DC45B9F7CA
:101270000E94270981E0809364010E940E159093DB
:1012800063018093620110925701109259011092EC
:10129000580110925B0110925A0110925D01109258
:1012A0005C0110925F0110925E0110926101109238
:1012B000600116C080916201909163010E941A152D
:1012C000883C910560F680915701E82FF0E0EE0F21
:1012D000FF1FE85AFE4FD183C0838F5F8093570171
:1012E00080E0DF91CF9108950C94000390936A0100
:1012F000809369010895E0916901F0916A01309746
:1013000021F00190F081E02D099480E00895E091B2
:101310006901F0916A01309721F00280F381E02D9C
:1013200009940895E0916901F0916A01309721F0E4
:101330000480F581E02D0994089520916701309192
:1013400068018217930771F0909368018093670199
:10135000E0916901F0916A01309721F00680F781F0
:10136000E02D09940895209165013091660182175E
:10137000930771F09093660180936501E091690194
:10138000F0916A01309721F00084F185E02D0994F5
:1013900008950C9464040E9405150E9404030C94A3
:1013A0007B15CF92DF92EF92FF920F931F93CF9313
:1013B000DF93CDB7DEB72B970FB6F894DEBF0FBE25
:1013C000CDBF0E94F8033CE6E32E31E0F32E00E0AF
:1013D00010E0C02E802F0E943C04F701D1907F01C5
:1013E000D826B1F40F5F1F4F0830110591F78FEF2A
:1013F00089838A831B820E940E158160782F9D83CA
:101400008C8349815A816B818D810E94740A41C00D
:101410009091C10191FF04C08B870E9442048B858B
:1014200020E030E04D2D50E0922FBA01022E02C094
:10143000759567950A94E2F760FF25C02E83CF82E9
:10144000EE24E394F12C02C0EE0CFF1C9A95E2F717
:1014500090E08E219F2121E0892B09F420E028874C
:101460000E940E158160782F9A8789874E815F814F
:1014700068858A850E94740AF801E459FE4F8081CC
:101480008E25808306C02F5F3F4F2630310561F6E1
:10149000A9CF0E940D1710916B010E947B091817AC
:1014A000A1F00E947B0980936B012B960FB6F894F4
:1014B000DEBF0FBECDBFDF91CF911F910F91FF9087
:1014C000EF90DF90CF900C9402072B960FB6F89414
:1014D000DEBF0FBECDBFDF91CF911F910F91FF9067
:1014E000EF90DF90CF900895CF93DF93CDB7DEB725
:1014F0002B970FB6F894DEBF0FBECDBF4F83588732
:1015000069877A878B87DE01119686E0FD0111924B
:101510008A95E9F785E0FE01379601900D928A954C
:10152000E1F749815A816B817C818D819E810E9486
:1015300004112B960FB6F894DEBF0FBECDBFDF911E
:10154000CF910895CF93C82F882309F4CCC0823857
:1015500059F40E947B0981FDC6C089E30E94A6134D
:101560000E94311489E30CC0833879F40E947B090E
:1015700080FDB9C083E50E94A6130E94311483E563
:101580000E94C713CF910C943114843859F40E94EF
:101590007B0982FDA8C087E40E94A6130E94311433
:1015A00087E4EECF8CEF8C0F813A48F48C2F0E94A9
:1015B0003119811198C08C2F0E94A613E3CF80E2CD
:1015C0008C0F883048F4C77081E001C0880FCA953D
:1015D000EAF70E94E813D6CF8BE58C0F833078F4BE
:1015E000C53A29F0C63A31F482E890E005C081E8B6
:1015F00090E002C083E890E0CF910C949D0988E5CB
:101600008C0F853108F06FC0C83A61F1C93A69F1B1
:10161000CA3A71F1CB3A79F1CC3A81F1CB3B89F1FD
:10162000CC3B91F1CD3A99F1C03BA1F1CE3AA9F171
:10163000CF3AB1F1C13BB9F1C23BC1F1C33BC9F1F2
:10164000C43BD1F1C53BD9F1C63BE1F1C73BE9F160
:10165000C83BF1F1C93BF9F1CA3B09F03FC08AE24E
:1016600092E03EC082EE90E03BC089EE90E038C050
:101670008AEE90E035C085EB90E032C086EB90E0DA
:101680002FC083EB90E02CC084EB90E029C087EB67
:1016900090E026C08CEC90E023C08DEC90E020C060
:1016A00083E891E01DC08AE891E01AC082E991E0E8
:1016B00017C084E991E014C081E292E011C083E296
:1016C00092E00EC084E292E00BC085E292E008C096
:1016D00086E292E005C087E292E002C080E090E0FE
:1016E000CF910C94B309CF910895882309F44BC08E
:1016F000823859F40E947B0981FF45C089E30E942A
:10170000A6130E94311489E30CC0833871F40E943F
:101710007B0980FF38C083E50E94A6130E94311424
:1017200083E50E94C7130C943114843859F40E9445
:101730007B0982FF28C087E40E94A6130E9431140F
:1017400087E4EFCF9CEF980F913A58F390E2980F0F
:10175000983050F4877091E001C0990F8A95EAF7AC
:10176000892F0E94EE13DFCF9BE5980F933020F472
:1017700080E090E00C949D09885A853120F480E047
:1017800090E00C94B3090895882321F00E94E81397
:101790000C9431140895882321F00E94EE130C94C8
:1017A000311408958F929F92AF92BF92CF92DF92A1
:1017B000EF92FF920F931F93CF93DF931F92CDB7BA
:1017C000DEB74C01A62E472FFC01E580E2948FE0A6
:1017D000E822F280FF2021F079830E9405144981DC
:1017E00049830E949F134981882381F0FF2071F073
:1017F00080E28A0D883050F082E00E9488130E94B7
:101800009F13BB24B394B826498101C0B12CE42FA7
:10181000E295EF70F0E0E859FF4F0C94E621842F39
:10182000807F142F1F70882311F01295107FFF20E6
:1018300099F0112309F499C180E28A0D883010F0E3
:10184000A11004C0812F0E94E81303C0812F0E94C1
:10185000F8130E94311489C18A2D0E94750B11233F
:1018600009F49AC180E28A0D883010F0A11004C0FA
:10187000812F0E94EE1303C0812F0E94FE130E944D
:1018800031148AC1242F207F842F8F70203211F0D1
:101890008295807FAA2021F0F1E0AF16B1F021C03F
:1018A000FF2041F0EE2039F191E0E91224C00E94BE
:1018B000181472C1EE2021F0E1E0EE1609F46CC1BB
:1018C00089830E941B1489810BC1FF2029F0F5E058
:1018D000FE1508F461C10FC094E09E1508F45CC1C8
:1018E000FFC0FF2059F0EE2031F0F401958190FF08
:1018F0003CC19F7095830E94C40B4EC1EE2009F439
:10190000EFC039C1242F26952695237030E021158C
:10191000310521F02130310561F03EC1FF2021F079
:101920008A2D942F937002C080E090E00E949D0960
:1019300033C1FF2021F08A2D942F937002C080E0E4
:1019400090E00E94B30928C18A2DFF2019F00E945F
:10195000151602C00E947D160E9402171DC1842F19
:10196000837009F04EC0F11017C12A2D22952695DB
:101970002770220F220F8A2D8F70C82ED12CE12CB8
:10198000F12C022E04C0CC0CDD1CEE1CFF1C0A94B2
:10199000D2F7A4FE10C06FE070E080E090E004C0D9
:1019A000660F771F881F991F2A95D2F7609570954B
:1019B0008095909503C060E070E0CB01242F2695C0
:1019C0002695237030E02230310569F0233031054F
:1019D00089F06C297D298E299F292130310571F0EC
:1019E0000E945512D9C06C297D298E299F290E94F9
:1019F0006712D2C00E945512C701B6010E9443125D
:101A0000CBC0FF2019F0842F817001C086958823F8
:101A100009F4C2C02A2D229526952770220F220F85
:101A20008A2D8F70C82ED12CE12CF12C022E04C0EF
:101A3000CC0CDD1CEE1CFF1C0A94D2F7A4FE10C0D7
:101A40006FE070E080E090E004C0660F771F881FB1
:101A5000991F2A95D2F7609570958095909503C04F
:101A600060E070E0CB01242F26952695237030E0AE
:101A70002230310569F02330310589F06C297D2948
:101A80008E299F292130310571F00E94011384C0F5
:101A90006C297D298E299F290E9413137DC00E94E5
:101AA0000113C701B6010E94EF1276C00A2D10E0A3
:101AB000F801E05EF109E531F10508F052C0E8589F
:101AC000FF4F0C94E6211A2D1F70842F8F71FF2079
:101AD00021F00E949A12812F0ECF0E94B512812F01
:101AE0000E94CB0B59C0FF2049F0F4E0FE1508F42A
:101AF00053C0842F8F710E94D4124EC085E08E1582
:101B000008F44AC0F6CFFF2039F0842F8F710E946D
:101B10009A1242C0FF20C9F3842F8F710E94B51220
:101B20003BC0FF2029F0842F8F710E948B1234C09C
:101B30000E94861231C0FF2051F0142F1F71812F97
:101B40000E949A1263E0812F0E947F1325C081E0DA
:101B50000E94881391E09E15F8F482E00E94881399
:101B60001BC0FF2031F0EE2081F28A2D0E94A20AD4
:101B700013C0EE2089F28A2D0E94750B0DC04F70A4
:101B80006A2DC4010E948F050E94B11105C04F70DB
:101B90006A2DC4010E940407BB20F1F00E947B1350
:101BA00080FD1AC0F40112820E9475130E949A12DD
:101BB000C4010E94FA0D0E9475130F90DF91CF911E
:101BC0001F910F91FF90EF90DF90CF90BF90AF905B
:101BD0009F908F900C94B5120F90DF91CF911F9131
:101BE0000F91FF90EF90DF90CF90BF90AF909F90BC
:101BF0008F9008950F931F93CF93DF93EC0128816B
:101C000039818B819C81892B31F03F3F11F080E03D
:101C100003C02F3FE1F781E0811113C0CE010E9484
:101C2000C605882371F0688179818A810E947113C9
:101C30008C010E9425130E944012B801CE010E941F
:101C4000D20BDF91CF911F910F9108950E9405143F
:101C50000E9415140E94DA130E9431140E94AE17DC
:101C60000E94021780E090E00E949D0980E090E0D1
:101C70000C94B3090E94F5130C94260E0E9466136F
:101C8000E92FE295EF70F0E03297EE30F105B8F40D
:101C9000E357FF4F0C94E621803F59F018F4803E43
:101CA00070F407C0843F59F404C0803E10F0813FB7
:101CB00031F481E0089593FB882780F9089580E04E
:101CC0000895CF93DF9300D000D01F92CDB7DEB739
:101CD0000F900F900F900F900F90DF91CF9108957C
:101CE000CF93DF9300D000D000D0CDB7DEB72696DB
:101CF0000FB6F894DEBF0FBECDBFDF91CF91089530
:101D00001F93CF93DF93C091740116E0809175010A
:101D1000C81799F0D0E01C9FF0011D9FF00D112411
:101D2000EA58FE4F4081518162817381848195819F
:101D30000E94700E2196C770E9CFDF91CF911F915D
:101D400008954091A6015091A7016091A80170915A
:101D5000A9018091AA019091AB010C94700ECF93D0
:101D60008091AB0182958F7009F05FC08091A801CE
:101D7000882309F45AC020917401A09175016091E3
:101D8000A6017091A7018091A9019091AA0131E06B
:101D90006F3F09F030E0B32FC6E02A1709F445C0C1
:101DA000009721F07F3F21F44B2F03C041E001C099
:101DB00040E030E040FD35C0C29FF001C39FF00D10
:101DC0001124EA58FE4F418174132BC040816413E3
:101DD00028C04281411125C04381548148175907C9
:101DE00010F441505109481B590B483C5105C8F4A7
:101DF0008091AB018F7080618093AB0186E0829F00
:101E0000F001839FF00D1124E558FE4F80818F7003
:101E10008061808386EA91E00E94FA0DCF910C9454
:101E2000800E2F5F3F4F2770B8CFCF910895CF928C
:101E3000DF92EF92FF920F931F93CF93DF93CDB773
:101E4000DEB762970FB6F894DEBF0FBECDBF8C0130
:101E500085E0F801DE011D9601900D928A95E1F76B
:101E6000D8014C9111965C91119712966C91129732
:101E70001396ED90FC9014977091A601E091A70144
:101E80002091A9013091AA012115310531F0EF3FD0
:101E900031F481E07F3F19F403C081E001C080E0AC
:101EA000B82FB170CB2E80FD6CC1D090A801DD2081
:101EB00009F4F5C0F091AB01E216F30638F0C70162
:101EC000821B930B883C910548F09BC02095309570
:101ED0002E0D3F1D283C310508F093C08F2F807FC9
:101EE00009F052C0E51314C0741312C0D62E61114C
:101EF0000FC0FF70F061F093AB010E94A10E86EA63
:101F000091E00E94FA0D8091AB01F80185836CC1CC
:101F1000EF2831F05F3F31F481E04F3F19F403C007
:101F200081E001C080E080FD03C081E0862701C020
:101F300080E0F82FF170FF2E80FF1CC080917401AB
:101F40002091750136E0821709F428C190E0389F8E
:101F5000F001399FF00D1124EA58FE4F718157139B
:101F600006C07081471303C07281671303C00196D6
:101F70008770E9CFD62E662309F436C18091AB0174
:101F800081608093AB0153C0E51308C0741306C091
:101F9000611104C0D8011596FC93AEC04D875E87D1
:101FA0008D859E856A8B0E943E0E6A89882329F161
:101FB000D62E662311F12091AB01822F82958F706E
:101FC00090E002970CF460C08091A6019091A70167
:101FD00098878F831986FB86EA862C87CE01079621
:101FE00051C0E51731F14D875E878D859E856A8BDF
:101FF0000E943E0E6A8981112EC0C8010E94FA0D0E
:10200000A4C08F2F807F69F77E2DF98AE88A89899D
:102010000E94610E86EA91E00E94FA0DE6EAF1E084
:1020200086E0DF011D928A95E9F70E94A10ED12C6E
:10203000DBC07413D8CF6111D6CFD8011596FC93AD
:10204000C8010E94FA0DE6EAF1E086E0DF011D9288
:102050008A95E9F7C9C0D62E662379F22091AB01A3
:10206000822F82958F7090E0029774F08091A60184
:102070009091A7019A8389831B82FD82EC822E8333
:10208000CE0101960E94FA0D86E0F801A6EAB1E0C1
:1020900001900D928A95E1F70E94AF0E6FC0E21693
:1020A000F30628F0C701821B930B9C0104C0209506
:1020B00030952E0D3F1D283C310508F052C0D62E1C
:1020C000662309F49ACFE5132CC074132AC08091BB
:1020D000AB0180FD1DC0982F92959F70C9F0D8016B
:1020E00015968C9315979F3039F09F5F9295907F4E
:1020F0008F70892B15968C93C8010E94FA0D86E08B
:10210000F801A6EAB1E001900D928A95E1F736C098
:1021100086E0F801A6EAB1E001900D928A95E1F718
:1021200063C04D875E878D859E850E943E0E882305
:1021300079F086E0F801A6EAB1E001900D928A9567
:10214000E1F70E94AF0E0E94A10EDD24D3944CC093
:102150008091AB0181608093AB01C8010E94FA0DB0
:1021600043C07E2DF98AE88A89890E94610EE6EAD9
:10217000F1E086E0DF011D928A95E9F70E94A10E49
:1021800033C0662309F439CF4D875E878D859E85E0
:102190000E943E0E882309F430CFCBCF4D875E8757
:1021A0008D859E850E946613292F22952F7030E021
:1021B000223031052CF49F7041F0811106C00CC013
:1021C000243031052CF49F7049F4805E883020F073
:1021D000C8010E94FA0DCF2CDC2C06C0D801159640
:1021E0009C91907F91F7F8CF8D2D62960FB6F89461
:1021F000DEBF0FBECDBFDF91CF911F910F91FF903A
:10220000EF90DF90CF9008951F93CF93DF93CDB7DA
:10221000DEB72C970FB6F894DEBF0FBECDBF4F834D
:10222000588769877A878B879C87CE0107960E949B
:10223000170F8823C1F02F8138858A859B85892BCC
:1022400031F03F3F11F080E003C02F3FE1F781E024
:10225000811147C04F81588569857A858B859C851A
:102260000E94700E3EC086E0FE013796DE01119698
:1022700001900D928A95E1F7FF81E8854A855B859B
:102280004115510531F0EF3F31F481E0FF3F19F482
:1022900003C081E001C080E080FD23C02091750172
:1022A00030E0C9010196877099276091740170E050
:1022B00086179707F1F1F983EA835D834C8396E0F3
:1022C000929FD001939FB00D1124AA58BE4FFE01DA
:1022D000319601900D929A95E1F7809375010E94D5
:1022E000800E16E08091740190917501891779F143
:1022F000189FC00111248A589E4F0E94170F8823EF
:1023000031F1E09174011E9FF0011124EA58FE4F53
:102310004081518162817381848195810E94700E18
:102320008091740190E001968770992780937401E1
:10233000D9CF0E943A0E1092750110927401E6EA0C
:10234000F1E086E0DF011D928A95E9F7CACF2C966D
:102350000FB6F894DEBF0FBECDBFDF91CF911F91B6
:102360000895EF92FF920F931F93CF93DF939C01F9
:10237000009709F471C0F12CEE24E394E901219651
:10238000F9018491843740F4843008F056C08130DC
:1023900081F0823021F160C0853709F449C0C0F175
:1023A0009CE7980F903708F057C08F770E94750B05
:1023B00046C089010E5F1F4FFE01849190E2980F85
:1023C000983050F48770FE2D01C0FF0F8A95EAF710
:1023D0008F2F0E94081415C00E94A20A14C0890100
:1023E0000E5F1F4FFE01849190E2980F983068F4C1
:1023F0008770FE2D01C0FF0F8A95EAF78F2F0E948C
:102400000E140E943114E8011AC00E94750BFBCF14
:102410002E5F3F4FFE01C491CC2341F08FE99FE036
:102420000197F1F700C00000C150F6CFE90107C0E5
:10243000FE01F490E901229602C00E94A20A8F2DAB
:10244000882341F0EFE9FFE03197F1F700C0000089
:102450008150F6CF9E0192CFDF91CF911F910F91C6
:10246000FF90EF90089508950E9433126093B00199
:102470007093B1018093B2019093B3010C94260E36
:1024800008950C9434120F931F930091B001109192
:10249000B1012091B2013091B301602B712B822BDD
:1024A000932B1F910F910C9434120F931F93009153
:1024B000B0011091B1012091B2013091B3016023BC
:1024C0007123822393231F910F910C9434120F9345
:1024D0001F930091B0011091B1012091B201309190
:1024E000B30160277127822793271F910F910C94C6
:1024F000341208950E9479126093AC017093AD017B
:102500008093AE019093AF010C94260E60E070E0D2
:10251000CB010C947A1241E050E060E070E004C01E
:10252000440F551F661F771F8A95D2F7CB01BA015A
:102530000C947A1241E050E060E070E004C0440F77
:10254000551F661F771F8A95D2F78091AC01909135
:10255000AD01A091AE01B091AF01482B592B6A2B70
:102560007B2BCB01BA010C947A1241E050E060E081
:1025700070E004C0440F551F661F771F8A95D2F77D
:1025800040955095609570958091AC019091AD010A
:10259000A091AE01B091AF01482359236A237B2358
:1025A000CB01BA010C947A1241E050E060E070E097
:1025B00004C0440F551F661F771F8A95D2F780917C
:1025C000AC019091AD01A091AE01B091AF0148274F
:1025D00059276A277B27CB01BA010C947A120F93F3
:1025E0001F930091AC011091AD012091AE0130918B
:1025F000AF01602B712B822B932B1F910F910C94A9
:102600007A120F931F930091AC011091AD012091AC
:10261000AE013091AF0160237123822393231F9178
:102620000F910C947A120F931F930091AC011091AB
:10263000AD012091AE013091AF0160277127822753
:1026400093271F910F910C947A120895CF92DF92E5
:10265000EF92FF920F931F93CF93DF93EC01C09003
:10266000B001D090B101E090B201F090B30180913F
:10267000AC019091AD01A091AE01B091AF01C82A1B
:10268000D92AEA2AFB2A0FE110E0B701A601002EA1
:1026900004C076956795579547950A94D2F740FD03
:1026A00005C00150110988F780E007C0BE01802FE6
:1026B0000E941F070197A9F3802FDF91CF911F91EF
:1026C0000F91FF90EF90DF90CF900895CF93DF931D
:1026D000EC010E942613BE010E941F07DF91CF91DB
:1026E0000895CB010E94661308958091B4018595E9
:1026F0008595859508958091B4018770089598E037
:10270000899F90011124622B6093B4010C949A125A
:102710004091B401809584238093B401982F9770E1
:1027200069F450E0282F332727FD309542175307CF
:1027300029F08595859585950C94B512089590910D
:10274000B401977081E009F480E00895409102019E
:102750005091030120E030E09FEFFA01E20FF31FF8
:102760006281681799F09F3F19F4611101C0922F9F
:102770002F5F3F4F2630310581F79F3F39F0FA0137
:10278000E90FF11D97FDFA95828308950895409110
:1027900002015091030120E030E0FA01E20FF31F43
:1027A0009281981301C012822F5F3F4F263031056E
:1027B000A1F7089581E090E0E0910201F09103011A
:1027C000E80FF91F1082019688309105A9F7089546
:1027D0009091C001982B9093C0010895809590919D
:1027E000C00198239093C00108951092C0010895EC
:1027F0009091BF01982B9093BF010895809590917F
:10280000BF0198239093BF0108951092BF010895CE
:102810009091BE01982B9093BE0108958095909160
:10282000BE0198239093BE0108951092BE010895B1
:102830008093B50108951092B50108954091020169
:102840005091030120E030E080E0FA01E20FF31F35
:10285000918191118F5F2F5F3F4F27303105A9F78D
:102860000895E0910201F09103018091C0018083FD
:10287000E0910201F091030180819091BF01892BC9
:102880008083E0910201F091030180819091BE016B
:10289000892B80839091B501992361F0E091020129
:1028A000F09103018081892B80830E941E14811185
:1028B0001092B50180910201909103010C94870957
:1028C0006DEE7EEF80E090E00E94202260E082E0EA
:1028D00090E00E940E2260E083E090E00E940E22D1
:1028E00060E084E090E00E940E2260E085E090E0ED
:1028F0000C940E2280E090E00E94082221E08D3EA0
:102900009E4F09F020E0822F089582E090E00C9421
:10291000002283E090E00C94002284E090E00C948C
:102920000022682F84E090E00C940E228091E30155
:10293000843021F11092C20120E488E190E00FB6CA
:10294000F894A895809360000FBE2093600080E00B
:102950000E94020783B7817F846083BF83B7816051
:1029600083BF7894889583B78E7F83BF88E10FB645
:10297000F89480936000109260000FBE089508954F
:102980000895CF930E94BF140E94F8030E94C014C0
:10299000C0E08C2F0E943C04811105C0CF5FC8307D
:1029A000C1F780E001C081E0CF9108950E943A0E06
:1029B0000E947B090C9402071F920F920FB60F9290
:1029C00011248F939F93AF93BF938091C201811184
:1029D00013C08091D9019091DA01A091DB01B091EF
:1029E000DC014196A11DB11D8093D9019093DA01BC
:1029F000A093DB01B093DC01BF91AF919F918F91C8
:102A00000F900FBE0F901F90189582E084BD93E049
:102A100095BD9AEF97BD80936E0008952FB7F894F7
:102A20008091D9019091DA01A091DB01B091DC0194
:102A30002FBF0895CF92DF92EF92FF920F931F93D3
:102A40002FB7F8944091D9015091DA016091DB01E0
:102A50007091DC012FBF6A017B01EE24FF248C0101
:102A600020E030E0C016D106E206F30610F4415033
:102A70005109481B590BCA011F910F91FF90EF900C
:102A8000DF90CF90089578941F920F920FB60F9217
:102A900011248F939F93AF93BF938091D90190910D
:102AA000DA01A091DB01B091DC010196A11DB11DFD
:102AB0008093D9019093DA01A093DB01B093DC01FC
:102AC000BF91AF919F918F910F900FBE0F901F906C
:102AD000189587E797E790930108809300082AE00C
:102AE00088E190E00FB6F894A895809360000FBE3F
:102AF00020936000FFCF0E947A14811102C00E94CF
:102B000060140E9485148093C1010E948D1490E08E
:102B10009093DE018093DD010E948914682F70E09C
:102B200080E090E00C9441128091C50180FF0BC0C1
:102B30006091070185E0689FB00111247595679544
:102B4000759567952AC081FF09C06091070185E0EE
:102B5000689FB0011124759567951FC082FF07C05B
:102B60006091070185E0689FB001112416C0409173
:102B7000C6014423C9F060910601461788F72091E9
:102B8000070185E0289F90011124429FC001439FC7
:102B9000900D112470E00E94D2216038710540F43C
:102BA0006115710539F002C065E070E0862F089567
:102BB0008FE7089581E008958091C50180FF08C0E6
:102BC0006091050170E0759567957595679521C0D1
:102BD00081FF06C06091050170E07595679519C089
:102BE00082FF04C06091050170E010C08091C601B1
:102BF0008823C1F0609104018617A0F79091050128
:102C0000989FC001112470E00E94D22160387105A4
:102C100028F46115710521F0862F08958FE7089536
:102C200081E0089561E070E0F4CF803F21F40E94DC
:102C30009415819504C0813F29F40E9494158093D6
:102C4000C9010895823F21F40E949415819504C022
:102C5000833F29F40E9494158093C8010895893F09
:102C600019F40E94DC1505C08A3F31F40E94DC157E
:102C700081958093CA0108958B3F21F40E94DC1551
:102C8000819504C08C3F29F40E94DC158093CB0110
:102C90000895843F21F48091C701816017C0853F6A
:102CA00021F48091C701826011C0863F21F4809198
:102CB000C70184600BC0873F21F48091C701886001
:102CC00005C0883F31F48091C70180618093C701BE
:102CD00008958D3F21F48091C50181600BC08E3F26
:102CE00021F48091C501826005C08F3F29F4809155
:102CF000C50184608093C5010895803F39F48091B7
:102D0000C90187FF6CC01092C90169C0813F29F4D5
:102D10008091C9011816BCF362C09091C801823F2E
:102D200029F497FF5CC01092C80159C0833F19F481
:102D30001916CCF354C0893F41F48091CA0118168A
:102D40000CF04DC01092CA014AC08A3F29F480910C
:102D5000CA0187FF44C0F6CF8B3F39F48091CB0185
:102D600087FF3DC01092CB013AC08C3F29F480917F
:102D7000CB011816BCF333C0843F21F48091C70106
:102D80008E7F17C0853F21F48091C7018D7F11C0D0
:102D9000863F21F48091C7018B7F0BC0873F21F4D0
:102DA0008091C701877F05C0883F31F48091C701BA
:102DB0008F7E8093C70113C08D3F21F48091C501A0
:102DC0008E7F0BC08E3F21F48091C5018D7F05C0A1
:102DD0008F3F29F48091C5018B7F8093C50180913D
:102DE000C80181110EC08091C90181110AC0809172
:102DF000CA01811106C08091CB01811102C01092DD
:102E0000C601089587EC91E00E9492090E940E1578
:102E10009093C4018093C30108951F93CF93DF93D0
:102E20008091C3019091C4010E941A154091C6017E
:102E3000442321F02091080130E006C020910901CF
:102E40005AE0259F900111248217930708F482C04D
:102E50008091C8011091C901D091CA01C091CB01E4
:102E6000811107C0111105C0D11103C0CC2309F491
:102E700071C04F3F19F04F5F4093C601181624F4FC
:102E80000E9494158093C8018091C80187FF05C0F6
:102E90000E94941581958093C801111624F40E9414
:102EA00094158093C9018091C90187FF05C00E94D4
:102EB000941581958093C9016091C801662339F109
:102EC0001091C901112319F1772767FD7095872F9C
:102ED000972F0E94E32023E333E343E35FE30E9461
:102EE00047210E94B0206093C801612F772767FDBA
:102EF0007095872F972F0E94E32023E333E343E36A
:102F00005FE30E9447210E94B0206093C9011D1613
:102F100024F40E94DC158093CA018091CA0187FFC6
:102F200005C00E94DC1581958093CA011C1624F40B
:102F30000E94DC158093CB018091CB0187FF05C0F7
:102F40000E94DC1581958093CB01DF91CF911F9179
:102F50000C940217DF91CF911F910895E7ECF1E0F7
:102F600085E0DF011D928A95E9F71092C601109263
:102F7000C5010895833081F128F4813059F0823001
:102F8000D1F00895853009F449C0B8F1863009F4CC
:102F900056C0089520910901862F90E0820F911D5F
:102FA0008F3F910520F4620F6093090108958FEF20
:102FB00080930901089520910801862F90E0820FE7
:102FC000911D8F3F910520F4620F609308010895D1
:102FD0008FEF80930801089520910701862F90E0DC
:102FE000820F911D8F3F910520F4620F60930701BE
:102FF00008958FEF80930701089520910601862F91
:1030000090E0820F911D8F3F910520F4620F609335
:10301000060108958FEF8093060108952091050120
:10302000862F90E0820F911D8F3F910520F4620F53
:103030006093050108958FEF809305010895209115
:103040000401862F90E0820F911D8F3F910520F49F
:10305000620F6093040108958FEF80930401089537
:10306000833011F128F4813049F0823091F00895D5
:10307000853081F120F18630C1F1089580910901F8
:10308000681720F4861B80930901089510920901A6
:10309000089580910801681720F4861B8093080129
:1030A000089510920801089580910701681720F48F
:1030B000861B80930701089510920701089580915F
:1030C0000601681720F4861B80930601089510926C
:1030D0000601089580910501681720F4861B8093EE
:1030E0000501089510920501089580910401681763
:1030F00020F4861B80930401089510920401089522
:103100008732F8F48E3108F085C08E3009F465C03E
:1031100048F4873009F447C08B3009F491C08630F9
:1031200051F127C0863109F48BC020F4803109F4B5
:103130005EC01FC0893109F483C08B3109F443C0DC
:1031400018C0883309F47CC050F4893209F470C087
:10315000853309F46DC0873209F46AC00AC083342C
:1031600009F466C020F48A3308F052C002C08834E3
:1031700061F080E008958091C101817F8E7F80930E
:10318000C10181E08093CD0108950E943A0E2FEF96
:1031900083ED90E3215080409040E1F700C00000B3
:1031A0000E9469154DC09091C101892F8095817051
:1031B00080FB90F99093C101811142C0997F977F64
:1031C0009093C1013DC09091C10191FB882780F986
:1031D00021E0822780FB91F913C09091C10192FBFD
:1031E000882780F921E0822780FB92F909C090911D
:1031F000C10193FB882780F921E0822780FB93F9A6
:103200009093C1018823E1F091609093C1010895EA
:1032100027EC01C023EE280F61E070E080E090E031
:1032200004C0660F771F881F991F2A95D2F704C024
:1032300061E070E080E090E00E9441120E943A0E4E
:1032400081E0089580E0089580E008958E518A30ED
:1032500030F4E82FF0E0ED5DFE4F8081089580E0CE
:103260000895CF93C82F8091CD01813069F018F077
:103270008230B1F180C0E0910201F09103018081C0
:10328000823209F07AC007C0E0910201F091030197
:103290008081823249F48C2F0E94221981111DC035
:1032A0008C2F0E9480181AC08C2F0E942419811123
:1032B00014C0C43179F048F4CB3079F0C03109F052
:1032C00060C082E08093CD0108C0C93219F0C833D4
:1032D00021F057C01092CD0154C081E0817053C0DD
:1032E000C93289F118F5C43171F1B0F4C73009F071
:1032F00046C08EE18093090182E3809308018AE051
:103300008093070184E18093060188E080930501A2
:1033100088E28093040133C082EE8C0F863078F50A
:103320008C2F0E9426198093CC0129C0CE34E9F05D
:1033300020F4CB3421F56AE013C0C13579F0C235F1
:10334000F1F461E00DC08091CC01882319F0109256
:10335000CC0115C081E08093CD0115C061E006C0AD
:103360008091CC010E94BA170AC06AE08091CC011A
:103370000E94301804C01092CD0180E004C081E0AA
:1033800002C080E0ABCFCF9108958091D60108951F
:103390000F931F93CF93DF9300D01F92CDB7DEB76B
:1033A0008C010E940C1C823011F0853019F583E0ED
:1033B00089831B830A838093E9008FEF9091E80053
:1033C000815095FD06C095ED9A95F1F700008111A9
:1033D000F5CF8091E80085FF0DC040E050E063E04C
:1033E00070E0CE0101960E94291C8091E8008E7742
:1033F0008093E8000F900F900F90DF91CF911F9175
:103400000F910895CF93DF9300D01F92CDB7DEB711
:103410002091E301243031F522E02983805891097D
:103420009B838A8383E08093E9008FEF9091E8008B
:10343000815095FD06C095ED9A95F1F70000811138
:10344000F5CF8091E80085FF0DC040E050E063E0DB
:1034500070E0CE0101960E94291C8091E8008E77D1
:103460008093E8000F900F900F90DF91CF91089517
:10347000CF93DF93EC010E940C1C823011F0853059
:10348000F9F482E08093E9008FEF9091E800815099
:1034900095FD06C095ED9A95F1F700008111F5CFE5
:1034A0008091E80085FF0CC040E050E065E070E0EE
:1034B000CE010E94291C8091E8008E778093E8005D
:1034C000DF91CF910895CF93DF93EC010E940C1C04
:1034D000823011F0853039F581E08093E9008FEF7B
:1034E0009091E800815095FD06C095ED9A95F1F711
:1034F00000008111F5CF8091E80085FF14C040E005
:1035000050E068E070E0CE010E94291C8091E80044
:103510008E778093E80088E0FE01AEECB1E0019088
:103520000D928A95E1F7DF91CF9108958091E201A4
:10353000811109C00E94BB1D0E94181E8091E200EB
:1035400084608093E20008951092E2010895089546
:1035500008950C94D61442E061EC81E00E94351D80
:1035600042E061EC82E00E94351D42E061EC83E0C4
:103570000C94351D8091E501833009F453C030F47B
:10358000813071F0823009F48CC008958A3009F4DA
:1035900078C08B3009F45EC0893009F09AC020C031
:1035A0008091E401813A09F094C08091E800877F1E
:1035B0008093E8008091E8019091E901892B21F046
:1035C00060E080E090E003C068E08EEC91E070E0A5
:1035D0000E94721C8091E8008B778093E800089528
:1035E0008091E401813209F074C08091E8019091EA
:1035F000E901892B09F06DC08091E800877F8093F5
:10360000E8008091E80082FD05C08091E30181110E
:10361000F8CF5FC08091F1008093D6018091E800DF
:103620008B7753C08091E401813A09F052C08091B8
:10363000E8019091E901892B09F04BC08091E800E5
:10364000877F8093E8008091E80080FFFCCF809125
:10365000140136C08091E4018132D9F58091E801EE
:103660009091E901892BA9F58091E800877F8093EB
:10367000E8000E946A1D8091E601809314010C9479
:103680003A0E8091E401813221F58091E800877F34
:103690008093E8000E946A1D8091E7018093D70122
:1036A00008958091E401813AA1F48091E800877F38
:1036B0008093E8008091E80080FFFCCF8091D701E3
:1036C0008093F1008091E8008E778093E8000C945D
:1036D0006A1D089584B7877F84BF88E10FB6F89488
:1036E00080936000109260000FBE80E880936100BC
:1036F000109261000E94C9090E94BB1D0E94181E01
:103700008091E20084608093E20078940E9493208C
:103710000E94CB098AE091E00E9476098091E30142
:10372000853069F40E9496148091E1018823B1F3F9
:103730000E94C114882391F30E94131CEFCF0E94B2
:10374000D109ECCF292F332723303105A9F06CF4B0
:103750002130310509F442C02230310509F043C05F
:1037600084E590E02FE034E042C021323105C9F019
:103770002232310519F137C099278130910541F086
:103780008230910541F0892B71F5EBE0F4E005C042
:10379000E3EFF3E002C0E5EDF3E0849190E09F01F8
:1037A00026C0633000F5E62FF0E0EE0FFF1FEA5C65
:1037B000FE4F2081318189E090E019C0633098F498
:1037C000E62FF0E0DF01AA0FBB1FA05DBE4F2D91D9
:1037D0003C91E35DFE4F808190E009C082E190E082
:1037E00023E634E004C080E090E020E030E0FA011D
:1037F0003183208308950895CF93C82F0E94FB1B27
:10380000C093D801CF9108958091E301843011F4E1
:1038100082E0089581E008958091D801811102C06D
:103820000C94041C089580E189BD82E189BD09B42E
:1038300000FEFDCF8091D8008F7D8093D8008091CD
:10384000E00082608093E0008091E00081FDFCCF89
:103850000895CF92DF92EF92FF920F931F93CF9331
:10386000DF937C018B01EA010E948B1D811131C025
:10387000209731F088819981081B190BE80EF91EF9
:10388000C12CD12C0115110519F18091E80085FD9D
:1038900014C08091E8008E778093E800209741F073
:1038A000888199818C0D9D1D9983888385E011C045
:1038B0000E948B1D882331F30CC0F70181917F0199
:1038C0008093F10001501109FFEFCF1ADF0ADACF20
:1038D00080E0DF91CF911F910F91FF90EF90DF90EB
:1038E000CF9008952091EA013091EB012617370718
:1038F00048F06115710539F42091E8002E77209386
:10390000E80001C0B901FC0120E061157105B9F1C1
:103910008091E301882309F440C0853009F43FC059
:103920008091E80083FD3DC08091E80082FF06C0E1
:103930008091E80082FF26C080E008958091E80031
:1039400080FFE3CF2091F3008091F20090E0922B72
:103950006115710551F08830910538F4219120935B
:10396000F100615071090196F3CF21E0089709F049
:1039700020E08091E8008E778093E800C6CF211187
:10398000C7CFD6CF8091E301882339F0853039F055
:103990008091E80083FFCCCF04C082E0089583E0EB
:1039A000089581E008952091EA013091EB012617F6
:1039B000370748F06115710539F42091E8002E773A
:1039C0002093E80001C0B901FC0120E061157105F8
:1039D000C1F18091E301882309F441C0853009F4E5
:1039E00040C08091E80083FD3EC08091E80082FFE6
:1039F00006C08091E80082FF27C080E00895809192
:103A0000E80080FFE3CF2091F3008091F20090E086
:103A1000922B6115710559F08830910540F424917D
:103A20002093F1003196615071090196F2CF21E0A7
:103A3000089709F020E08091E8008E778093E800F5
:103A4000C5CF2111C6CFD5CF8091E301882339F0AE
:103A5000853039F08091E80083FFCBCF04C082E04D
:103A6000089583E0089581E00895982F973058F5E0
:103A70009093E900981739F07091EC002091ED00D7
:103A80005091F00003C0242F762F50E021FF19C081
:103A90003091EB003E7F3093EB003091ED003D7FA5
:103AA0003093ED003091EB0031603093EB00709378
:103AB000EC002093ED005093F0002091EE0027FFE2
:103AC00007C09F5FD3CF8F708093E90081E0089596
:103AD00080E008958091E40187FD05C08091E800B1
:103AE00080FF0EC012C08091E80082FD05C0809169
:103AF000E3018111F8CF08958091E8008B7708C029
:103B00008091E3018111EACF08958091E8008E77DA
:103B10008093E80008958091E4009091E50045E6E7
:103B20002091EC0020FF21C02091E80020FD21C061
:103B30002091E301222389F0253089F02091EB00C8
:103B400025FD0FC02091E4003091E50028173907CA
:103B500039F3415041F0C901E3CF82E0089583E099
:103B6000089581E0089584E008952091E80022FFFF
:103B7000DFCF80E008950E94291E0E94311EE0EEF2
:103B8000F0E0808181608083E8EDF0E080818F77D4
:103B9000808319BCA7EDB0E08C918E7F8C938081DF
:103BA0008F7E80831092E20108950F931F93CF932D
:103BB000DF930E94291E0E94311EC8EDD0E088814B
:103BC0008F77888388818068888388818F7D8883C8
:103BD00019BC1092E3011092DF011092E1011092E2
:103BE000E00100EE10E0F80180818B7F8083888106
:103BF0008160888342E060E080E00E94351DE1EE54
:103C0000F0E080818E7F8083E2EEF0E08081816051
:103C10008083808188608083F80180818E7F8083AB
:103C2000888180618883DF91CF911F910F910895E2
:103C3000E8EDF0E080818F7E8083E7EDF0E0808129
:103C40008160808384E082BF81E08093E2010C94F4
:103C5000D51DE8EDF0E080818E7F80831092E20038
:103C600008951092DA001092E10008951F920F92C9
:103C70000FB60F9211242F933F934F935F936F933F
:103C80007F938F939F93AF93BF93EF93FF93809115
:103C9000E10082FF0BC08091E20082FF07C08091AB
:103CA000E1008B7F8093E1000E9492208091DA00F6
:103CB00080FF1FC08091D80080FF1BC08091DA0078
:103CC0008E7F8093DA008091D90080FF0DC080E163
:103CD00089BD82E189BD09B400FEFDCF81E08093FA
:103CE000E3010E94961A05C019BC1092E3010E94DC
:103CF000A41A8091E10080FF19C08091E20080FF4A
:103D000015C08091E2008E7F8093E2008091E200F6
:103D100080618093E2008091D80080628093D80017
:103D200019BC85E08093E3010E94A81A8091E1000C
:103D300084FF30C08091E20084FF2CC080E189BD07
:103D400082E189BD09B400FEFDCF8091D8008F7D4E
:103D50008093D8008091E1008F7E8093E100809174
:103D6000E2008F7E8093E2008091E2008160809388
:103D7000E2008091DF01882311F084E007C0809188
:103D8000E30087FF02C083E001C081E08093E3018C
:103D90000E94A91A8091E10083FF29C08091E2006E
:103DA00083FF25C08091E100877F8093E10082E05E
:103DB0008093E3011092DF018091E1008E7F809378
:103DC000E1008091E2008E7F8093E2008091E2002A
:103DD00080618093E20042E060E080E00E94351D57
:103DE0008091F00088608093F0000E94A71AFF91F4
:103DF000EF91BF91AF919F918F917F916F915F9163
:103E00004F913F912F910F900FBE0F901F901895DB
:103E10001F920F920FB60F9211242F933F934F933F
:103E20005F936F937F938F939F93AF93BF93CF9342
:103E3000EF93FF93C091E900CF708091EC00109256
:103E4000E9008091F000877F8093F00078940E94D1
:103E5000441F1092E9008091F00088608093F00088
:103E6000C093E900FF91EF91CF91BF91AF919F91E6
:103E70008F917F916F915F914F913F912F910F9013
:103E80000FBE0F901F9018951F93CF93DF93CDB760
:103E9000DEB7AA970FB6F894DEBF0FBECDBFE4EE33
:103EA000F1E08091F100819321E0EC3EF207C9F747
:103EB0000E94BA1A8091E80083FF1CC12091E4019E
:103EC0003091E501832F90E08A30910508F012C10E
:103ED000FC01E556FF4F0C94E621203881F0223892
:103EE00009F008C18091E8018F708093E90080910A
:103EF000EB0085FB882780F91092E90006C08091CD
:103F0000E0019091E101911182609091E800977F2A
:103F10009093E8008093F1001092F100C5C0822FC9
:103F20008D7F09F0E7C0222319F0223061F0E2C052
:103F30008091E601813009F0DDC0333009F080E086
:103F40008093E10128C08091E601811124C0209175
:103F5000E8012F7009F4CEC02093E9008091EB00B6
:103F600080FF19C08091EB00333011F4806211C0E2
:103F700080618093EB0081E090E0022E01C0880F09
:103F80000A94EAF78093EA001092EA008091EB002D
:103F900088608093EB001092E9008091E800877FB1
:103FA00086C02111A7C01091E6011F778091E30020
:103FB0008078812B8093E3008091E800877F809355
:103FC000E8000E946A1D8091E80080FFFCCF80918C
:103FD000E30080688093E300112311F083E001C0C7
:103FE00082E08093E30186C02058223008F082C02E
:103FF0008091E6019091E7018C3D23E0920779F5ED
:1040000083E08A838AE289834FB7F894DE011396AE
:1040100020E03EE051E2E32FF0E050935700E491BE
:1040200020FF03C0E295EF703F5FEF708E2F90E0AE
:10403000EA3010F0C79601C0C0968D939D932F5F14
:10404000243149F74FBF8091E800877F8093E800D3
:104050006AE270E0CE0101960E94721C14C0AE01AB
:104060004F5F5F4F6091E8010E94A21B009709F427
:1040700041C02091E800277F2093E800BC0189819E
:104080009A810E94D31C8091E8008B778093E8008E
:1040900031C0203879F58091E800877F8093E8006F
:1040A0008091DF018093F1008091E8008E7780930A
:1040B000E8000E946A1D1EC021111CC09091E601FB
:1040C0009230C0F48091E800877F8093E80090935D
:1040D000DF010E946A1D8091DF01811104C080917F
:1040E000E30087FF02C084E001C081E08093E30128
:1040F0000E94AB1A8091E80083FF0AC08091E8001B
:10410000877F8093E8008091EB0080628093EB00D2
:10411000AA960FB6F894DEBF0FBECDBFDF91CF9148
:104120001F9108950895CF938091E3018823B1F002
:104130008091E9008F709091EC0090FF02C090E8B0
:1041400001C090E0C92FC82B1092E9008091E800CF
:1041500083FD0E94441FCF70C093E900CF91089562
:1041600004D06894B1118DC0089570D088F09F5725
:1041700090F0B92F9927B751A0F0D1F0660F771FB3
:10418000881F991F1AF0BA95C9F712C0B13081F093
:1041900077D0B1E0089574C0672F782F8827B85F73
:1041A00039F0B93FCCF3869577956795B395D9F7F4
:1041B0003EF490958095709561957F4F8F4F9F4FFE
:1041C0000895E89409C097FB3EF49095809570950A
:1041D00061957F4F8F4F9F4F9923A9F0F92F96E953
:1041E000BB279395F695879577956795B795F111C8
:1041F000F8CFFAF4BB0F11F460FF1BC06F5F7F4F65
:104200008F4F9F4F16C0882311F096E911C0772376
:1042100021F09EE8872F762F05C0662371F096E87F
:10422000862F70E060E02AF09A95660F771F881F4E
:10423000DAF7880F9695879597F9089557FD905866
:10424000440F551F59F05F3F71F04795880F97FB5A
:10425000991F61F09F3F79F0879508951216130614
:104260001406551FF2CF4695F1DF08C01616170643
:104270001806991FF1CF8695710561050894089578
:10428000E894BB2766277727CB0197F908950BD0D1
:1042900078C069D028F06ED018F0952309F05AC084
:1042A0005FC01124EECFCADFA0F3959FD1F3950F25
:1042B00050E0551F629FF001729FBB27F00DB11DAA
:1042C000639FAA27F00DB11DAA1F649F6627B00D3A
:1042D000A11D661F829F2227B00DA11D621F739F23
:1042E000B00DA11D621F839FA00D611D221F749F31
:1042F0003327A00D611D231F849F600D211D822F78
:10430000762F6A2F11249F5750408AF0E1F08823BE
:104310004AF0EE0FFF1FBB1F661F771F881F9150CB
:104320005040A9F79E3F510570F014C0AACF5F3FDF
:10433000ECF3983EDCF3869577956795B795F795FE
:10434000E7959F5FC1F7FE2B880F911D9695879586
:1043500097F9089597F99F6780E870E060E0089505
:104360009FEF80EC089500240A941616170618068D
:104370000906089500240A94121613061406050669
:104380000895092E0394000C11F4882352F0BB0FFA
:1043900040F4BF2B11F460FF04C06F5F7F4F8F4F5D
:1043A0009F4F089597FB072E16F4009407D077FDD2
:1043B00009D00E94EC2107FC05D03EF49095819530
:1043C0009F4F0895709561957F4F0895EE0FFF1FE1
:1043D0000590F491E02D0994AA1BBB1B51E107C085
:1043E000AA1FBB1FA617B70710F0A61BB70B881F85
:1043F000991F5A95A9F780959095BC01CD01089514
:10440000F999FECF92BD81BDF89A992780B508959C
:10441000A8E1B0E042E050E00C942822262FF99960
:10442000FECF92BD81BDF89A019700B4021639F013
:104430001FBA20BD0FB6F894FA9AF99A0FBE0895E4
:104440000196272F0E940F220C940E22DC01CB0133
:10445000FC01F999FECF06C0F2BDE1BDF89A319694
:1044600000B40D9241505040B8F70895F894FFCF32
:104470000501B6012808140A321EC519631A381A34
:10448000021AC81901F4F5F6F731333534C697002E
:1044900000000001020304050607080900404D362C
:0C44A000F804AB04750421043A04530432
:00000001FF
