:100000000C94EE010C9432020C9432020C943202E5
:100010000C9432020C9432020C9432020C94320290
:100020000C9432020C9432020C940C190C94DE19CC
:100030000C94E1120C9432020C9432020C943202B1
:100040000C9432020C9432020C9432020C94320260
:100050000C9432020C9448130C9432020C94320229
:100060000C9432020C9432020C9432020C94320240
:100070000C9432020C9432020C9432020C94320230
:100080000C9432020C9432020C9432020C94320220
:100090000C9432020C9432020C9432020C94320210
:1000A0000C9432020C9432020C94320253024A0233
:1000B0004D025002560259025C025F026202650262
:1000C00068026B026E027102740277027A027D028C
:1000D000800283021E03240328032B032F03330310
:1000E00037033B034003440348034C034F035303CC
:1000F00057035B035F036403E309E309160A160A67
:10010000560A950B950B950B780A950B1F0B1F0B39
:10011000880B950B950B900B2C0B2C0B2C0B2C0B95
:100120002C0B2C0B2C0B2C0B2C0B2C0B2C0B2C0B17
:100130002C0B2C0B2C0B2C0B3C0B4C0B530B5A0B82
:10014000640B110C110C240C240C1A0C240C240C20
:10015000240C110C110C200C240C240C200C431A20
:10016000651A501B651A501BA71ACA1A501B1F1B71
:10017000321B01E1012602260127022702E101507C
:1001800002500001E00104020402E0012202220008
:1001900001E00104020402E0012102210001E0016A
:1001A00004020402E0012002200001E00104020434
:1001B00002E0011F021F0001E00104020402E0014D
:1001C0001E021E0001E00104020402E001270227D2
:1001D0000001E30131023102E30001E001E2014FDD
:1001E000024F02E202E00001E001E201500250028F
:1001F000E202E00001E00104020402E00111021148
:100200000001E00104020402E0013602360001E0D0
:100210000104020402E0013802380001E001040296
:100220000402E001E10134023402E10001E00104D2
:10023000020402E0011D021D0001E00104020402AB
:10024000E0012902290001E2012B022B02E2000158
:10025000E00119021902E00001E00106020602E0D5
:100260000001E0011B021B02E0001BA10130033072
:1002700005300730002000300230043006300930ED
:100280000E30103012300B300C300D300F3011307A
:100290000A3008301A036D006100630072006F00BD
:1002A0007000610064005F003200780035000000DB
:1002B00010034C0065006A0062006F007500610069
:1002C00000000403090409025400030100A0FA0914
:1002D0000400000103010100092111010001224075
:1002E000000705810308000A09040100010300005A
:1002F00000092111010001223600070582030800D0
:100300000A09040200010300000009211101000193
:1003100022390007058303200001120110010000AB
:100320000008EDFE606002000102000105010906FF
:10033000A101050719E029E71500250195087501B8
:10034000810205081901290595057501910295019C
:10035000750391010507190029F71500250195F886
:1003600075018102C005010980A101850216010005
:100370002603001A81002A8300751095018100C0B0
:10038000050C0901A1018503160100269C021A0132
:10039000002A9C02751095018100C005010906A183
:1003A00001050719E029E715002501950875018168
:1003B0000295017508810105081901290595057542
:1003C0000191029501750391010507190029FF1597
:1003D0000026FF00950675088100C00011241FBE8D
:1003E000CFEFDAE0DEBFCDBF04B603FE24C08091BC
:1003F000E4019091E501A091E601B091E701873019
:10040000904BA740B04BB9F41092E4011092E50173
:100410001092E6011092E70114BE84B7877F84BF73
:1004200088E10FB6F89480936000109260000FBED0
:10043000E0E0F8E3099511E0A0E0B1E0E8E8F7E3D7
:1004400002C005900D92A432B107D9F711E0A4E2E1
:10045000B1E001C01D92A43EB107E1F70E94401631
:100460000C94C21B0C9400000C94C4020C94C502A2
:100470000C94C6020C94C802462F50E0443151053A
:1004800008F046C0FA01EA5AFF4FDC0112968C913F
:100490000C94861B81113FC03BC081113FC038C006
:1004A00081113FC035C081113FC032C081113FC0B2
:1004B0002FC081113FC02CC081113FC029C08111C4
:1004C0003FC026C081113FC023C081113FC020C062
:1004D00081113FC01DC081113FC01AC081113FC0B2
:1004E00017C081113FC014C081113FC011C08111DC
:1004F0003FC00EC081113FC00BC081113FC008C07A
:1005000081113FC005C0882319F082E791E008956A
:1005100080E090E0089581E692E0089588E592E019
:1005200008958FE492E0089586E492E0089589E3C7
:1005300092E008958CE292E008958BE192E00895B4
:100540008EE092E0089581E092E0089584EF91E0DA
:10055000089587EE91E008958AED91E0089581ED88
:1005600091E0089584EC91E0089587EB91E008957F
:100570008AEA91E008958DE991E0089580E991E09B
:10058000089583E891E008950895089581E008951D
:10059000089581E008950E94FF0B2FEF84E39CE013
:1005A000215080409040E1F700C000000C946E1391
:1005B0000F931F93CF93DF938C01FC01C081D181F6
:1005C000CE010E94EB10BE010E941404EC01B801A0
:1005D0000E943802882309F41AC1B801CE010E9492
:1005E0003706882309F413C1C531FCE5DF0708F09D
:1005F000A3C0C2308CE5D80708F478C0F801828126
:10060000882309F47FC00E947E12811102C00E94DB
:1006100064120E94911290E09093D6018093D501CC
:10062000FE01E350FC45E231F10520F4E659FF4FAD
:100630000C94861B8091D501816003C08091D50107
:1006400082608093D5014BC08091D5018460F9CF41
:100650008091D50113C08091D5018061F2CF809146
:10066000D5018062EECF8091D5018064EACF809180
:10067000D5018068E6CF8091D50184608860E1CFA4
:100680008091D5018E7FDDCF8091D5018D7FD9CF2F
:100690008091D5018B7FD5CF8091D50113C08091FA
:1006A000D5018F7ECECF8091D5018F7DCACF80912D
:1006B000D5018F7BC6CF8091D5018F77C2CF809136
:1006C000D5018B7F877FBDCF9091D50197FB882780
:1006D00080F921E0822780FB97F99093D5018091E2
:1006E000D5010E9495120E94FF0B91C0C115ECE547
:1006F000DE0779F0C130DC45A1F081E0809326016E
:1007000080932701C801DF91CF911F910F910C9425
:10071000C902F8018281882309F479C00E94CB02C2
:1007200076C0F8018281882309F471C08091AB0101
:1007300081608093AB016BC0CD338CE5D80739F570
:10074000F8018281882361F0109227010E9413131F
:10075000909325018093240180E20E94980957C05C
:100760008091270181110FC0809124019091250172
:100770000E941F13883C910530F487E20E9476089E
:1007800087E20E94490980E20E949F0940C0CE335F
:10079000ECE5DE0738F5CC33DC4509F0AECFF801E7
:1007A0008281882351F0109226010E9413139093A6
:1007B00025018093240182E0D0CF80912601811110
:1007C0000FC080912401909125010E941F13883C45
:1007D000910530F486E20E94760886E20E9449097B
:1007E00082E0D2CFC0348CE5D80731F4F8018281A1
:1007F000882369F080E009C0C134DC4509F07DCF71
:10080000F8018281882319F082E00E94D21680E0EC
:10081000DF91CF911F910F9108950C9434020C94A5
:1008200036020C943A02089595E0799FF001112464
:100830009AE0899FE00DF11D1124E60FF11DEE0FE6
:10084000FF1FE459FD4F859194910895880F991FDA
:1008500086599D4FFC018591949108950E9414043E
:100860000E94BA05811520E49207B0F5811540E396
:10087000940708F0DBC0803E9105D8F4803C9105D8
:1008800008F069C0883A910578F4853A910508F036
:1008900065C08130910509F46CC108F423C184302E
:1008A000910508F066C11EC18D3B910508F461C039
:1008B00019C18F3F910509F048F4803F910508F078
:1008C000AFC0883E910508F454C10CC1811520E2E7
:1008D000920708F0A7C00895811544E59407D8F45D
:1008E000811523E5920708F0DCC0811541E59407E6
:1008F00040F4811520E5920708F0A2C09F70906A2D
:100900000895811542E5940708F0B6C0982F88270E
:10091000816F906A0895811526E5920750F481153C
:1009200045E5940708F0D2C0982F8827846F906A15
:100930000895811528E5920708F4D4C0811549E58A
:10094000940708F4C8C09C0130562115304208F0C5
:10095000C9C09F71C5C0805C910965C0853A910589
:1009600009F4C3C0863A910509F4C2C083E890E453
:100970000895883A910509F4BEC0893A910509F4B1
:10098000BDC08A3A910509F4BCC08B3A910509F4BF
:10099000BBC08C3A910509F4BAC08B3B910509F4B0
:1009A000B9C08C3B910509F4B8C08D3A910509F4A2
:1009B000B7C0803B910509F4B6C08E3A910509F4A1
:1009C000B5C08F3A910509F4B4C0813B910509F493
:1009D000B3C0823B910509F4B2C0833B910509F491
:1009E000B1C0843B910509F4B0C0853B910509F481
:1009F000AFC0863B910509F4AEC0873B910509F471
:100A0000ADC0883B910509F4ACC0893B910509F460
:100A1000ABC08A3B910509F0AAC08AE296E408952A
:100A2000906508959F700E94260408959C013327C5
:100A300093FF03C0C901986C0895C901906C089593
:100A4000482F437021E030E002C0220F331F4A9547
:100A5000E2F73C68AC0174E0569547957A95E1F76A
:100A60004370342B8F708695869540E2849FC00139
:100A70001124822B932B0895282F2695269540E24A
:100A8000249F90011124AC014370552781E090E030
:100A900002C0880F991F4A95E2F7822B932B9C681E
:100AA0000895282F2695269540E2249F9001112431
:100AB000AC014370552781E090E002C0880F991F78
:100AC0004A95E2F7822B932B9A6808958F719927A4
:100AD000982F882705C0982F8827806F906A0895DF
:100AE0009062089580E090E0089581E890E4089590
:100AF00082E890E4089582EE94E4089589EE94E407
:100B000008958AEE94E4089585EB94E4089586EBC5
:100B100094E4089583EB94E4089584EB94E40895B9
:100B200087EB94E408958CEC94E408958DEC94E4C0
:100B3000089583E895E408958AE895E4089582E9A4
:100B400095E4089584E995E4089581E296E4089592
:100B500083E296E4089584E296E4089585E296E4BB
:100B6000089586E296E4089587E296E4089580E089
:100B700094E408958238910549F1B0F481339105E8
:100B800009F459C048F48932910509F44FC08A32FA
:100B9000910509F455C008958533910509F441C0C4
:100BA0008933910599F00895833E910531F138F428
:100BB000803E910591F0823E9105A9F00895863E10
:100BC000910501F1873E910539F108952091D501F4
:100BD00020FD3BC021FD39C008958091D50180FFE3
:100BE00034C089E341C08091D50182FF32C0809139
:100BF000D50184FF2CC080E037C08091D50182FDF3
:100C000028C0F5CF8091D50183FF25C08091D50103
:100C100084FDF1CF87EE28C08091D50183FD1BC0F4
:100C2000F5CF8091D50185FF18C019C08091D501FD
:100C300085FF15C012C08091D50186FF12C013C078
:100C40008091D50186FF0FC00CC080EE0DC083EEF1
:100C50000BC082EE09C086EE07C085E305C089E2BD
:100C600003C081E301C08AE290E008950895CF9324
:100C7000DF93EC01FB018281811102C081E040C061
:100C800080913501811125C0C531DC45B9F70E943D
:100C9000360681E0809335010E941313909334014E
:100CA000809333011092280110922A011092290199
:100CB00010922C0110922B0110922E0110922D01F6
:100CC0001092300110922F011092320110923101D6
:100CD00016C080913301909134010E941F13883C0B
:100CE000910560F680912801E82FF0E0EE0FFF1FDC
:100CF000E75DFE4FD183C0838F5F8093280180E042
:100D0000DF91CF91089585B7806885BF85B78068EA
:100D100085BF23982B9A26982E9AADE0B1E021E06A
:100D200030E08D91E82FE295EF70F0E041A18F70F7
:100D3000B90102C0660F771F8A95E2F7CB01962FA3
:100D40009095492341A392A1982B92A371E0A231DF
:100D5000B70739F710923801109236011092390115
:100D6000109237010C940D046F927F929F92AF9274
:100D7000BF92CF92DF92EF92FF920F931F93CF9388
:100D8000DF9302E111E0C6E3D1E0EE24E394F12C1D
:100D9000BB24B394AE0198801882D8012D918D01A7
:100DA000E22FE295EF70F0E081A12F70B70102C051
:100DB000660F771F2A95E2F79B01862B81A382A1FC
:100DC000A62EA0948A2182A370EA7A95F1F76DE0AD
:100DD000662E61E0762E80E090E0D3017D913D01AA
:100DE000C72EC2943FE0C322D12CD6019096DC904E
:100DF000C8807F70D70102C0AA0FBB1F7A95E2F7A7
:100E0000DA2239F46E2D082E01C0660F0A94EAF733
:100E100001C060E06C296883019685309105E9F690
:100E200081A18A2181A382A1822B82A32196FA012A
:100E30008081981641F0B0923A010E94131390936A
:100E40003C0180933B01F1E004311F0709F0A2CF80
:100E500080913A01882391F080913B0190913C016F
:100E60000E941F13069750F080913601809338013D
:100E7000809137018093390110923A010E940F044A
:100E800081E0DF91CF911F910F91FF90EF90DF9064
:100E9000CF90BF90AF909F907F906F900895E82F74
:100EA000F0E0E85CFE4F8081089508959093420140
:100EB000809341010895E0914101F0914201309702
:100EC00021F00190F081E02D099480E00895E091F7
:100ED0004101F0914201309721F00280F381E02D31
:100EE0000994089520913F013091400182179307A2
:100EF00071F09093400180933F01E0914101F091A6
:100F00004201309721F00680F781E02D0994089581
:100F100020913D0130913E018217930771F090932B
:100F20003E0180933D01E0914101F09142013097F3
:100F300021F00084F185E02D0994089508950C9422
:100F40009E070E940A130E9483060C949113CF926D
:100F5000DF92EF92FF920F931F93CF93DF93CDB762
:100F6000DEB72B970FB6F894DEBF0FBECDBF0E9441
:100F7000B40634E4E32E31E0F32E00E010E0C02E9E
:100F8000802F0E944F07F701D1907F01D826B1F43E
:100F90000F5F1F4F0230110591F78FEF89838A830E
:100FA0001B820E9413138160782F9D838C8349815B
:100FB0005A816B818D810E94480841C09091AB019C
:100FC00091FF04C08B870E9455078B8520E030E09D
:100FD0004D2D50E0922FBA01022E02C075956795F3
:100FE0000A94E2F760FF25C02E83CF82EE24E394BB
:100FF000F12C02C0EE0CFF1C9A95E2F790E08E21D6
:101000009F2121E0892B09F420E028870E941313F7
:101010008160782F9A8789874E815F8168858A856C
:101020000E944808F801EC5BFE4F80818E2580838A
:1010300006C02F5F3F4F2530310561F6A9CF1091D3
:1010400043010E945B071817A1F00E945B07809381
:1010500043012B960FB6F894DEBF0FBECDBFDF91D4
:10106000CF911F910F91FF90EF90DF90CF900C9454
:1010700011042B960FB6F894DEBF0FBECDBFDF91E3
:10108000CF911F910F91FF90EF90DF90CF90089537
:10109000CF93DF93CDB7DEB72B970FB6F894DEBFB3
:1010A0000FBECDBF4F83588769877A878B87DE0154
:1010B000119686E0FD0111928A95E9F785E0FE011F
:1010C000379601900D928A95E1F749815A816B819B
:1010D0007C818D819E810E94C90E2B960FB6F8945B
:1010E000DEBF0FBECDBFDF91CF910895CF93C82F44
:1010F000882309F4CCC0823859F40E945B0781FD33
:10110000C6C089E30E946B110E94351289E30CC0AE
:10111000833879F40E945B0780FDB9C083E50E94A3
:101120006B110E94351283E50E94AB11CF910C9494
:101130003512843859F40E945B0782FDA8C087E409
:101140000E946B110E94351287E4EECF8CEF8C0F5A
:10115000813A48F48C2F0E946314811198C08C2F1F
:101160000E946B11E3CF80E28C0F883048F4C77087
:1011700081E001C0880FCA95EAF70E94EC11D6CF32
:101180008BE58C0F833078F4C53A29F0C63A31F4F8
:1011900082E890E005C081E890E002C083E890E03A
:1011A000CF910C94720788E58C0F853108F06FC0E1
:1011B000C83A61F1C93A69F1CA3A71F1CB3A79F1A9
:1011C000CC3A81F1CB3B89F1CC3B91F1CD3A99F10D
:1011D000C03BA1F1CE3AA9F1CF3AB1F1C13BB9F18F
:1011E000C23BC1F1C33BC9F1C43BD1F1C53BD9F10D
:1011F000C63BE1F1C73BE9F1C83BF1F1C93BF9F16D
:10120000CA3B09F03FC08AE292E03EC082EE90E025
:101210003BC089EE90E038C08AEE90E035C085EBA7
:1012200090E032C086EB90E02FC083EB90E02CC0C2
:1012300084EB90E029C087EB90E026C08CEC90E036
:1012400023C08DEC90E020C083E891E01DC08AE8C7
:1012500091E01AC082E991E017C084E991E014C0DE
:1012600081E292E011C083E292E00EC084E292E05B
:101270000BC085E292E008C086E292E005C087E2FA
:1012800092E002C080E090E0CF910C948807CF916B
:101290000895882309F44BC0823859F40E945B07F3
:1012A00081FF45C089E30E946B110E94351289E3DA
:1012B0000CC0833871F40E945B0780FF38C083E55F
:1012C0000E946B110E94351283E50E94AB110C94B1
:1012D0003512843859F40E945B0782FF28C087E4E6
:1012E0000E946B110E94351287E4EFCF9CEF980F9C
:1012F000913A58F390E2980F983050F4877091E04B
:1013000001C0990F8A95EAF7892F0E94F211DFCF69
:101310009BE5980F933020F480E090E00C947207E6
:10132000885A853120F480E090E00C948807089575
:10133000882321F00E94EC110C9435120895882323
:1013400021F00E94F2110C94351208958F929F9211
:10135000AF92BF92CF92DF92EF92FF920F931F93C3
:10136000CF93DF931F92CDB7DEB74C01A62E472F48
:10137000FC01E580E2948FE0E822F280FF2021F07A
:1013800079830E940912498149830E94641149812D
:10139000882381F0FF2071F080E28A0D883050F0C0
:1013A00082E00E944D110E946411BB24B394B826C0
:1013B000498101C0B12CE42FE295EF70F0E0E458D0
:1013C000FF4F0C94861B842F807F142F1F7088235F
:1013D00011F01295107FFF2099F0112309F48EC1AE
:1013E00080E28A0D883010F0A11004C0812F0E9485
:1013F000EC1103C0812F0E94FC110E9435127EC1A6
:101400008A2D0E944909112309F48FC180E28A0DB7
:10141000883010F0A11004C0812F0E94F21103C087
:10142000812F0E9402120E9435127FC1242F207F3B
:10143000842F8F70203211F08295807FAA2021F0B6
:10144000F1E0AF16B1F021C0FF2041F0EE2039F1FC
:1014500091E0E91224C00E941C1267C1EE2021F025
:10146000E1E0EE1609F461C189830E941F128981AF
:1014700000C1FF2029F0F5E0FE1508F456C10FC0A9
:1014800094E09E1508F451C1F4C0FF2059F0EE20FD
:1014900031F0F401958190FF31C19F7095830E94D6
:1014A000980943C1EE2009F4E4C02EC1242F2695EB
:1014B0002695237030E02115310521F021303105CA
:1014C00061F033C1FF2021F08A2D942F937002C068
:1014D00080E090E00E94720728C1FF2021F08A2D51
:1014E000942F937002C080E090E00E9488071DC195
:1014F000842F837009F04EC0F11017C12A2D229558
:1015000026952770220F220F8A2D8F70C82ED12C7E
:10151000E12CF12C022E04C0CC0CDD1CEE1CFF1CB7
:101520000A94D2F7A4FE10C06FE070E080E090E073
:1015300004C0660F771F881F991F2A95D2F7609500
:1015400070958095909503C060E070E0CB01242FEA
:1015500026952695237030E02230310569F023303E
:10156000310589F06C297D298E299F29213031058B
:1015700071F00E941A10D9C06C297D298E299F29EB
:101580000E942C10D2C00E941A10C701B6010E94FE
:101590000810CBC0FF2019F0842F817001C0869500
:1015A000882309F4C2C02A2D229526952770220F80
:1015B000220F8A2D8F70C82ED12CE12CF12C022EF7
:1015C00004C0CC0CDD1CEE1CFF1C0A94D2F7A4FE58
:1015D00010C06FE070E080E090E004C0660F771FFD
:1015E000881F991F2A95D2F76095709580959095E0
:1015F00003C060E070E0CB01242F26952695237070
:1016000030E02230310569F02330310589F06C2952
:101610007D298E299F292130310571F00E94C61045
:1016200084C06C297D298E299F290E94D8107DC0F5
:101630000E94C610C701B6010E94B41076C00A2DE0
:1016400010E0F801E05EF109E531F10508F052C063
:10165000E457FF4F0C94861B1A2D1F70842F8F7137
:10166000FF2021F00E945F10812F19CF0E947A1075
:10167000812F0E949F0959C0FF2049F0F4E0FE1518
:1016800008F453C0842F8F710E9499104EC085E0DA
:101690008E1508F44AC0F6CFFF2039F0842F8F71E1
:1016A0000E945F1042C0FF20C9F3842F8F710E94F7
:1016B0007A103BC0FF2029F0842F8F710E945010B8
:1016C00034C00E944B1031C0FF2051F0142F1F7105
:1016D000812F0E945F1063E0812F0E94441125C07A
:1016E00081E00E944D1191E09E15F8F482E00E9485
:1016F0004D111BC0FF2031F0EE2081F28A2D0E9497
:10170000760813C0EE2089F28A2D0E9449090DC087
:101710004F706A2DC4010E943C020E94760F05C0E2
:101720004F706A2DC4010E941304BB20F1F00E9487
:10173000401180FD1AC0F40112820E943A110E94E9
:101740005F10C4010E94C30B0E943A110F90DF91F9
:10175000CF911F910F91FF90EF90DF90CF90BF90AE
:10176000AF909F908F900C947A100F90DF91CF9153
:101770001F910F91FF90EF90DF90CF90BF90AF90AF
:101780009F908F9008950F931F93CF93DF93EC0159
:10179000288139818B819C81892B31F03F3F11F069
:1017A00080E003C02F3FE1F781E0811113C0CE013B
:1017B0000E94D802882371F0688179818A810E9411
:1017C00036118C010E94EA100E940510B801CE016A
:1017D0000E94A609DF91CF911F910F9108950E9459
:1017E00009120E9419120E94DE110E94351280E037
:1017F00090E00E94720780E090E00C9488070E94BD
:10180000F9110C94EF0B0E942B11E92FE295EF7068
:10181000F0E03297EE30F105B8F4EF55FF4F0C943D
:10182000861B803F59F018F4803E70F407C0843F57
:1018300059F404C0803E10F0813F31F481E00895F6
:1018400093FB882780F9089580E00895CF93DF9374
:1018500000D000D01F92CDB7DEB70F900F900F9041
:101860000F900F90DF91CF910895CF93DF9300D029
:1018700000D000D0CDB7DEB726960FB6F894DEBF05
:101880000FBECDBFDF91CF9108951F93CF93DF930C
:10189000C091460116E080914701C81799F0D0E049
:1018A0001C9FF0011D9FF00D1124E85BFE4F40814D
:1018B000518162817381848195810E94350C2196CA
:1018C000C770E9CFDF91CF911F91089540917801C2
:1018D0005091790160917A0170917B0180917C0136
:1018E00090917D010C94350CCF9380917D01829570
:1018F0008F7009F05FC080917A01882309F45AC083
:1019000020914601A0914701609178017091790181
:1019100080917B0190917C0131E06F3F09F030E0D4
:10192000B32FC6E02A1709F445C0009721F07F3F86
:1019300021F44B2F03C041E001C040E030E040FD06
:1019400035C0C29FF001C39FF00D1124E85BFE4F2C
:10195000418174132BC04081641328C0428141111E
:1019600025C0438154814817590710F4415051094B
:10197000481B590B483C5105C8F480917D018F707C
:10198000806180937D0186E0829FF001839FF00D4E
:101990001124E35BFE4F80818F708061808388E734
:1019A00091E00E94C30BCF910C94450C2F5F3F4FE9
:1019B0002770B8CFCF910895CF92DF92EF92FF9228
:1019C0000F931F93CF93DF93CDB7DEB762970FB618
:1019D000F894DEBF0FBECDBF8C0185E0F801DE01BB
:1019E0001D9601900D928A95E1F7D8014C911196C0
:1019F0005C91119712966C9112971396ED90FC9052
:101A0000149770917801E091790120917B013091D8
:101A10007C012115310531F0EF3F31F481E07F3F4A
:101A200019F403C081E001C080E0B82FB170CB2E63
:101A300080FD6CC1D0907A01DD2009F4F5C0F091F1
:101A40007D01E216F30638F0C701821B930B883C38
:101A5000910548F09BC0209530952E0D3F1D283CE8
:101A6000310508F093C08F2F807F09F052C0E51335
:101A700014C0741312C0D62E61110FC0FF70F06134
:101A8000F0937D010E94660C88E791E00E94C30BF1
:101A900080917D01F80185836CC1EF2831F05F3FB3
:101AA00031F481E04F3F19F403C081E001C080E0D0
:101AB00080FD03C081E0862701C080E0F82FF1702F
:101AC000FF2E80FF1CC0809146012091470136E027
:101AD000821709F428C190E0389FF001399FF00D7A
:101AE0001124E85BFE4F7181571306C070814713C4
:101AF00003C07281671303C001968770E9CFD62EA9
:101B0000662309F436C180917D01816080937D0157
:101B100053C0E51308C0741306C0611104C0D80196
:101B20001596FC93AEC04D875E878D859E856A8B2A
:101B30000E94030C6A89882329F1D62E662311F1AD
:101B400020917D01822F82958F7090E002970CF496
:101B500060C0809178019091790198878F83198670
:101B6000FB86EA862C87CE01079651C0E51731F136
:101B70004D875E878D859E856A8B0E94030C6A89DE
:101B800081112EC0C8010E94C30BA4C08F2F807F7B
:101B900069F77E2DF98AE88A89890E94260C88E7F0
:101BA00091E00E94C30BE8E7F1E086E0DF011D92BF
:101BB0008A95E9F70E94660CD12CDBC07413D8CF4C
:101BC0006111D6CFD8011596FC93C8010E94C30BB2
:101BD000E8E7F1E086E0DF011D928A95E9F7C9C0E8
:101BE000D62E662379F220917D01822F82958F7007
:101BF00090E0029774F080917801909179019A8336
:101C000089831B82FD82EC822E83CE0101960E9485
:101C1000C30B86E0F801A8E7B1E001900D928A9528
:101C2000E1F70E94740C6FC0E216F30628F0C701BA
:101C3000821B930B9C0104C0209530952E0D3F1DF7
:101C4000283C310508F052C0D62E662309F49ACFFD
:101C5000E5132CC074132AC080917D0180FD1DC046
:101C6000982F92959F70C9F0D80115968C9315976F
:101C70009F3039F09F5F9295907F8F70892B1596DA
:101C80008C93C8010E94C30B86E0F801A8E7B1E07D
:101C900001900D928A95E1F736C086E0F801A8E739
:101CA000B1E001900D928A95E1F763C04D875E87A0
:101CB0008D859E850E94030C882379F086E0F801CB
:101CC000A8E7B1E001900D928A95E1F70E94740CAB
:101CD0000E94660CDD24D3944CC080917D0181600C
:101CE00080937D01C8010E94C30B43C07E2DF98AF9
:101CF000E88A89890E94260CE8E7F1E086E0DF01A6
:101D00001D928A95E9F70E94660C33C0662309F498
:101D100039CF4D875E878D859E850E94030C882371
:101D200009F430CFCBCF4D875E878D859E850E948D
:101D30002B11292F22952F7030E0223031052CF401
:101D40009F7041F0811106C00CC0243031052CF485
:101D50009F7049F4805E883020F0C8010E94C30B58
:101D6000CF2CDC2C06C0D80115969C91907F91F762
:101D7000F8CF8D2D62960FB6F894DEBF0FBECDBFA3
:101D8000DF91CF911F910F91FF90EF90DF90CF9057
:101D900008951F93CF93DF93CDB7DEB72C970FB67F
:101DA000F894DEBF0FBECDBF4F83588769877A870F
:101DB0008B879C87CE0107960E94DC0C8823C1F09C
:101DC0002F8138858A859B85892B31F03F3F11F023
:101DD00080E003C02F3FE1F781E0811147C04F81D0
:101DE000588569857A858B859C850E94350C3EC017
:101DF00086E0FE013796DE01119601900D928A95DC
:101E0000E1F7FF81E8854A855B854115510531F091
:101E1000EF3F31F481E0FF3F19F403C081E001C0DE
:101E200080E080FD23C02091470130E0C901019688
:101E3000877099276091460170E086179707F1F146
:101E4000F983EA835D834C8396E0929FD001939F50
:101E5000B00D1124A85BBE4FFE01319601900D928A
:101E60009A95E1F7809347010E94450C16E0809116
:101E7000460190914701891779F1189FC0011124FB
:101E8000885B9E4F0E94DC0C882331F1E091460173
:101E90001E9FF0011124E85BFE4F40815181628159
:101EA0007381848195810E94350C8091460190E078
:101EB00001968770992780934601D9CF0E94FF0B26
:101EC0001092470110924601E8E7F1E086E0DF0159
:101ED0001D928A95E9F7CACF2C960FB6F894DEBF0B
:101EE0000FBECDBFDF91CF911F910895EF92FF926A
:101EF0000F931F93CF93DF939C01009709F471C058
:101F0000F12CEE24E394E9012196F90184918437C0
:101F100040F4843008F056C0813081F0823021F1E5
:101F200060C0853709F449C0C0F19CE7980F90372D
:101F300008F057C08F770E94490946C089010E5F9B
:101F40001F4FFE01849190E2980F983050F48770F3
:101F5000FE2D01C0FF0F8A95EAF78F2F0E940C1209
:101F600015C00E94760814C089010E5F1F4FFE0144
:101F7000849190E2980F983068F48770FE2D01C02C
:101F8000FF0F8A95EAF78F2F0E9412120E943512D6
:101F9000E8011AC00E944909FBCF2E5F3F4FFE01A6
:101FA000C491CC2341F08FE99FE00197F1F700C085
:101FB0000000C150F6CFE90107C0FE01F490E9012D
:101FC000229602C00E9476088F2D882341F0EFE907
:101FD000FFE03197F1F700C000008150F6CF9E017D
:101FE00092CFDF91CF911F910F91FF90EF900895C5
:101FF00008950E94F80F609382017093830180938B
:102000008401909385010C94EF0B08950C94F90FC3
:102010000F931F93009182011091830120918401FD
:1020200030918501602B712B822B932B1F910F9187
:102030000C94F90F0F931F9300918201109183016B
:1020400020918401309185016023712382239323A1
:102050001F910F910C94F90F0F931F930091820120
:1020600010918301209184013091850160277127AF
:10207000822793271F910F910C94F90F08950E94C6
:102080003E1060937E0170937F0180938001909356
:1020900081010C94EF0B60E070E0CB010C943F10D9
:1020A00041E050E060E070E004C0440F551F661F3F
:1020B000771F8A95D2F7CB01BA010C943F1041E00B
:1020C00050E060E070E004C0440F551F661F771FAA
:1020D0008A95D2F780917E0190917F01A091800135
:1020E000B0918101482B592B6A2B7B2BCB01BA0174
:1020F0000C943F1041E050E060E070E004C0440FF9
:10210000551F661F771F8A95D2F7409550956095A9
:10211000709580917E0190917F01A0918001B09196
:102120008101482359236A237B23CB01BA010C94F4
:102130003F1041E050E060E070E004C0440F551FE4
:10214000661F771F8A95D2F780917E0190917F015B
:10215000A0918001B0918101482759276A277B27E8
:10216000CB01BA010C943F100F931F9300917E0195
:1021700010917F012091800130918101602B712BA2
:10218000822B932B1F910F910C943F100F931F9351
:1021900000917E0110917F01209180013091810199
:1021A00060237123822393231F910F910C943F107E
:1021B0000F931F9300917E0110917F012091800168
:1021C0003091810160277127822793271F910F91FA
:1021D0000C943F100895CF92DF92EF92FF920F93ED
:1021E0001F93CF93DF93EC01C0908201D0908301C5
:1021F000E0908401F090850180917E0190917F01B3
:10220000A0918001B0918101C82AD92AEA2AFB2A2B
:102210000FE110E0B701A601002E04C07695679586
:10222000579547950A94D2F740FD05C00150110912
:1022300088F780E007C0BE01802F0E942E0401971E
:10224000A9F3802FDF91CF911F910F91FF90EF9015
:10225000DF90CF900895CF93DF93EC010E94EB10B5
:10226000BE010E942E04DF91CF910895CB010E9400
:102270002B11089580918601859585958595089502
:10228000809186018770089598E0899F90011124BC
:10229000622B609386010C945F10409186018095BB
:1022A000842380938601982F977069F450E0282F3B
:1022B000332727FD30954217530729F085958595DB
:1022C00085950C947A10089590918601977081E01D
:1022D00009F480E0089590910C019923D9F0909130
:1022E000D50197FF17C0982F9695969596959F3193
:1022F00088F5E0910001F0910101E90FF11D87706F
:1023000021E030E001C0220F8A95EAF78181822B1B
:1023100081830895409100015091010120E030E057
:102320009FEFFA01E20FF31F6281681799F09F3F58
:1023300019F4611101C0922F2F5F3F4F2E313105EB
:1023400081F79F3F39F0FA01E90FF11D97FDFA95EA
:1023500082830895089590910C019923E1F0909162
:10236000D50197FF18C0982F9695969596959F3111
:1023700020F5E0910001F0910101E90FF11D877056
:1023800021E030E001C0220F8A95EAF72095818193
:10239000282321830895409100015091010120E0FC
:1023A00030E0FA01E20FF31F9281981301C012820C
:1023B0002F5F3F4F2E313105A1F7089581E090E066
:1023C000E0910001F0910101E80FF91F10820196E0
:1023D00080329105A9F708959091AA01982B9093C6
:1023E000AA01089580959091AA0198239093AA013B
:1023F00008951092AA0108959091A901982B9093A5
:10240000A901089580959091A90198239093A9011D
:1024100008951092A90108959091A801982B909386
:10242000A801089580959091A80198239093A80100
:1024300008951092A801089580938701089510923D
:1024400087010895409100015091010120E030E0A2
:1024500080E0FA01E20FF31F918191118F5F2F5FEE
:102460003F4F2F313105A9F70895E0910001F09118
:1024700001018091AA018083E0910001F0910101A6
:1024800080819091A901892B8083E0910001F091D6
:10249000010180819091A801892B8083909187010F
:1024A000992361F0E0910001F09101018081892B75
:1024B00080830E9422128111109287018091000175
:1024C000909101010C9467076DEE7EEF80E090E043
:1024D0000E94AC1B60E082E090E00E949A1B60E0EA
:1024E00083E090E00E949A1B60E084E090E00E940C
:1024F0009A1B60E085E090E00C949A1B80E090E0ED
:102500000E94941B21E08D3E9E4F09F020E0822F17
:10251000089582E090E00C948C1B83E090E00C9492
:102520008C1B84E090E00C948C1B682F84E090E07E
:102530000C949A1B8091DB01843021F11092AC0144
:1025400020E488E190E00FB6F894A89580936000AD
:102550000FBE2093600080E00E94110483B7817F4A
:10256000846083BF83B7816083BF7894889583B785
:102570008E7F83BF88E10FB6F8948093600010923D
:1025800060000FBE0895089508950E94C3120E942E
:10259000B4060E94C41280E00E944F07811108C057
:1025A00081E00E944F0791E0811103C090E001C0DB
:1025B00091E0892F08950E94FF0B0E945B070C9405
:1025C00011041F920F920FB60F9211248F939F93B5
:1025D000AF93BF938091AC01811113C08091D10161
:1025E0009091D201A091D301B091D4014196A11D47
:1025F000B11D8093D1019093D201A093D301B093E8
:10260000D401BF91AF919F918F910F900FBE0F900A
:102610001F90189582E084BD93E095BD9AEF97BD19
:1026200080936E0008952FB7F8948091D101909116
:10263000D201A091D301B091D4012FBF0895CF92C0
:10264000DF92EF92FF920F931F932FB7F894409170
:10265000D1015091D2016091D3017091D4012FBF6B
:102660006A017B01EE24FF248C0120E030E0C016DB
:10267000D106E206F30610F441505109481B590BEC
:10268000CA011F910F91FF90EF90DF90CF900895B6
:1026900078941F920F920FB60F9211248F939F93ED
:1026A000AF93BF938091D1019091D201A091D301BA
:1026B000B091D4010196A11DB11D8093D1019093D9
:1026C000D201A093D301B093D401BF91AF919F9158
:1026D0008F910F900FBE0F901F9018950E94911828
:1026E000F8942FEF87EA91E6215080409040E1F77F
:1026F00000C0000087E090EBDC018093E401909340
:10270000E501A093E601B093E7012CE088E190E0B9
:102710000FB6F894A895809360000FBE20936000D8
:10272000FFCF0E947E12811102C00E9464120E949B
:1027300089128093AB010E94911290E09093D60190
:102740008093D5010E948D12682F70E080E090E0A8
:102750000C940610873220F58E3108F098C0803135
:1027600009F474C070F4873009F44CC018F4863052
:1027700089F12EC08B3009F4A0C08E3009F45CC002
:1027800027C0863109F499C020F4813109F46FC063
:102790001FC0893109F491C08B3109F443C018C0BE
:1027A000883309F48AC050F4893209F47EC0853335
:1027B00009F47BC0873209F478C00AC0833409F475
:1027C00074C020F48A3308F060C002C0883461F01D
:1027D00080E008958091AB01817F8E7F8093AB0173
:1027E00081E08093AD0108950E94FF0B2FEF83EDF0
:1027F00090E3215080409040E1F700C000000E942B
:102800006E135BC09091AB01892F8095817080FB26
:1028100090F99093AB01811150C0997F977F90936D
:10282000AB014BC09091AB0191FB882780F921E06F
:10283000822780FB91F913C09091AB0192FB88270E
:1028400080F921E0822780FB92F909C09091AB01C9
:1028500093FB882780F921E0822780FB93F99093EE
:10286000AB01882351F191609093AB0108950E94D0
:10287000FF0B9091D50197FB882780F921E08227F3
:1028800080FB97F99093D50118C027EC01C023EE87
:10289000280F61E070E080E090E004C0660F771FD1
:1028A000881F991F2A95D2F704C061E070E080E08C
:1028B00090E00E9406100E94FF0B81E0089580E0E6
:1028C000089580E00895CF93C82F8091AD018823AB
:1028D00019F0813049F02EC0E0910001F091010122
:1028E0008081823249F507C0E0910001F091010139
:1028F0008081823249F48C2F0E945F14811117C0AD
:102900008C2F0E94AA1314C08C2F0E946114811175
:102910000EC0C43149F018F4CB3049F00FC0C932B1
:1029200019F0C83321F00AC01092AD0107C081E050
:10293000817006C01092AD0180E002C080E0F8CF47
:10294000CF9108958091CE01089508950F931F931C
:10295000CF93DF9300D01F92CDB7DEB78C010E94DA
:10296000E216823011F0853021F583E089831B83E4
:102970000A8382E08093E9008FEF9091E800815014
:1029800095FD06C095ED9A95F1F700008111F5CF00
:102990008091E80085FF0DC040E050E063E070E00A
:1029A000CE0101960E94FF168091E8008E778093F9
:1029B000E8000F900F900F90DF91CF911F910F9132
:1029C0000895CF93DF9300D01F92CDB7DEB720914B
:1029D000DB01243029F522E02983805891099B836B
:1029E0008A832093E9008FEF9091E800815095FD54
:1029F00006C095ED9A95F1F700008111F5CF809111
:102A0000E80085FF0DC040E050E063E070E0CE01DB
:102A100001960E94FF168091E8008E778093E8006F
:102A20000F900F900F90DF91CF910895CF93DF9388
:102A3000EC010E94E216823019F0853009F047C09F
:102A400080910C018823E1F08091D50187FF18C0A7
:102A500083E08093E9008FEF9091E800815095FD2D
:102A600006C095E19A95F1F700008111F5CF8091AC
:102A7000E80085FF2CC040E050E060E270E017C045
:102A800081E08093E9008FEF9091E800815095FDFF
:102A900006C095ED9A95F1F700008111F5CF809170
:102AA000E80085FF14C040E050E068E070E0CE012F
:102AB0000E94FF168091E8008E778093E80080E204
:102AC000FE01AEEAB1E001900D928A95E1F7DF9147
:102AD000CF9108958091DA01811109C00E94911867
:102AE0000E94EE188091E20084608093E2000895D5
:102AF0001092DA010895089508950C94DB1242E0D3
:102B000061EC81E00E940B1842E061EC82E00E94DF
:102B10000B1842E261EC83E00C940B188091DD010C
:102B2000833009F455C030F4813071F0823009F4FB
:102B30008EC008958A3009F47AC08B3009F460C0E1
:102B4000893009F09CC020C08091DC01813A09F0F5
:102B500096C08091E800877F8093E8008091E00133
:102B60009091E101892B21F060E080E090E003C0CA
:102B700060E28EEA91E070E00E9448178091E800E0
:102B80008B778093E80008958091DC01813209F011
:102B900076C08091E0019091E101009719F00297D1
:102BA00009F06DC08091E800877F8093E8008091F4
:102BB000E80082FD05C08091DB018111F8CF5FC084
:102BC0008091F1008093CE018091E8008B7753C013
:102BD0008091DC01813A09F052C08091E00190912E
:102BE000E101892B09F04BC08091E800877F809339
:102BF000E8008091E80080FFFCCF80910C0136C096
:102C00008091DC018132D9F58091E0019091E10160
:102C1000892BA9F58091E800877F8093E8000E94C6
:102C200040188091DE0180930C010C94FF0B809181
:102C3000DC01813221F58091E800877F8093E800F4
:102C40000E9440188091DF018093CF010895809108
:102C5000DC01813AA1F48091E800877F8093E8004D
:102C60008091E80080FFFCCF8091CF018093F1003C
:102C70008091E8008E778093E8000C9440180895C6
:102C800084B7877F84BF88E10FB6F8948093600093
:102C9000109260000FBE80E8809361001092610086
:102CA0000E949F070E9491180E94EE188091E200F6
:102CB00084608093E20078940E94691B0E94A107BF
:102CC00082E091E00E9456078091DB01853069F433
:102CD0000E949A128091D9018823B1F30E94C512F3
:102CE000882391F30E94E916EFCF0E94A707ECCF4B
:102CF000292F332723303105A9F06CF42130310519
:102D000009F442C02230310509F043C084E590E067
:102D100026EC32E042C021323105C9F022323105C1
:102D200019F137C099278130910541F08230910522
:102D300041F0892B71F5E2ECF2E005C0E0EBF2E046
:102D400002C0E4E9F2E0849190E09F0126C0633084
:102D500000F5E62FF0E0EE0FFF1FE35EFE4F20814F
:102D6000318189E090E019C0633098F4E62FF0E0FB
:102D7000DF01AA0FBB1FA95EBE4F2D913C91EC5EF7
:102D8000FE4F808190E009C082E190E02AE133E0CB
:102D900004C080E090E020E030E0FA01318320833D
:102DA00008950895CF93C82F0E94D116C093D001E3
:102DB000CF9108958091DB01843011F482E0089571
:102DC00081E008958091D001811102C00C94DA163F
:102DD000089580E189BD82E189BD09B400FEFDCF7F
:102DE0008091D8008F7D8093D8008091E000826030
:102DF0008093E0008091E00081FDFCCF0895CF92A8
:102E0000DF92EF92FF920F931F93CF93DF937C019A
:102E10008B01EA010E946118811131C0209731F0C5
:102E200088819981081B190BE80EF91EC12CD12C41
:102E30000115110519F18091E80085FD14C08091FC
:102E4000E8008E778093E800209741F0888199818F
:102E50008C0D9D1D9983888385E011C00E946118A7
:102E6000882331F30CC0F70181917F018093F10039
:102E700001501109FFEFCF1ADF0ADACF80E0DF91AE
:102E8000CF911F910F91FF90EF90DF90CF90089519
:102E90002091E2013091E3012617370748F06115D0
:102EA000710539F42091E8002E772093E80001C0E5
:102EB000B901FC0120E061157105B9F18091DB01D8
:102EC000882309F440C0853009F43FC08091E800B0
:102ED00083FD3DC08091E80082FF06C08091E8003C
:102EE00082FF26C080E008958091E80080FFE3CF54
:102EF0002091F3008091F20090E0922B6115710512
:102F000051F08830910538F421912093F1006150FF
:102F100071090196F3CF21E0089709F020E0809134
:102F2000E8008E778093E800C6CF2111C7CFD6CFB7
:102F30008091DB01882339F0853039F08091E800F9
:102F400083FFCCCF04C082E0089583E0089581E040
:102F500008952091E2013091E3012617370748F0E8
:102F60006115710539F42091E8002E772093E8006F
:102F700001C0B901FC0120E061157105C1F180912A
:102F8000DB01882309F441C0853009F440C08091F9
:102F9000E80083FD3EC08091E80082FF06C080917A
:102FA000E80082FF27C080E008958091E80080FF5C
:102FB000E3CF2091F3008091F20090E0922B611515
:102FC000710559F08830910540F424912093F10067
:102FD0003196615071090196F2CF21E0089709F00E
:102FE00020E08091E8008E778093E800C5CF211122
:102FF000C6CFD5CF8091DB01882339F0853039F0F9
:103000008091E80083FFCBCF04C082E0089583E085
:10301000089581E00895982F973058F59093E9002E
:10302000981739F07091EC002091ED005091F0006C
:1030300003C0242F762F50E021FF19C03091EB0000
:103040003E7F3093EB003091ED003D7F3093ED00FB
:103050003091EB0031603093EB007093EC002093E3
:10306000ED005093F0002091EE0027FF07C09F5F16
:10307000D3CF8F708093E90081E0089580E00895B8
:103080008091DC0187FD05C08091E80080FF0EC0C3
:1030900012C08091E80082FD05C08091DB018111A2
:1030A000F8CF08958091E8008B7708C08091DB010C
:1030B0008111EACF08958091E8008E778093E8002F
:1030C00008958091E4009091E50045E62091EC00A0
:1030D00020FF21C02091E80020FD21C02091DB01CC
:1030E000222389F0253089F02091EB0025FD0FC0C7
:1030F0002091E4003091E5002817390739F3415059
:1031000041F0C901E3CF82E0089583E0089581E0B2
:10311000089584E008952091E80022FFDFCF80E049
:1031200008950E94FF180E940719E0EEF0E08081E8
:1031300081608083E8EDF0E080818F77808319BC27
:10314000A7EDB0E08C918E7F8C9380818F7E808301
:103150001092DA0108950F931F93CF93DF930E948B
:10316000FF180E940719C8EDD0E088818F77888307
:1031700088818068888388818F7D888319BC1092BC
:10318000DB011092D7011092D9011092D80100EE04
:1031900010E0F80180818B7F808388818160888343
:1031A00042E060E080E00E940B18E1EEF0E08081F8
:1031B0008E7F8083E2EEF0E0808181608083808179
:1031C00088608083F80180818E7F80838881806120
:1031D0008883DF91CF911F910F910895E8EDF0E082
:1031E00080818F7E8083E7EDF0E080818160808345
:1031F00084E082BF81E08093DA010C94AB18E8EDA3
:10320000F0E080818E7F80831092E200089510921A
:10321000DA001092E10008951F920F920FB60F92FC
:1032200011242F933F934F935F936F937F938F93CB
:103230009F93AF93BF93EF93FF938091E10082FF41
:103240000BC08091E20082FF07C08091E1008B7F7C
:103250008093E1000E94681B8091DA0080FF1FC00C
:103260008091D80080FF1BC08091DA008E7F809310
:10327000DA008091D90080FF0DC080E189BD82E134
:1032800089BD09B400FEFDCF81E08093DB010E947F
:103290006A1505C019BC1092DB010E947815809157
:1032A000E10080FF19C08091E20080FF15C080918D
:1032B000E2008E7F8093E2008091E2008061809343
:1032C000E2008091D80080628093D80019BC85E02C
:1032D0008093DB010E947C158091E10084FF30C067
:1032E0008091E20084FF2CC080E189BD82E189BD2C
:1032F00009B400FEFDCF8091D8008F7D8093D80067
:103300008091E1008F7E8093E1008091E2008F7ECA
:103310008093E2008091E20081608093E2008091DE
:10332000D701882311F084E007C08091E30087FF74
:1033300002C083E001C081E08093DB010E947D1523
:103340008091E10083FF29C08091E20083FF25C0C6
:103350008091E100877F8093E10082E08093DB0130
:103360001092D7018091E1008E7F8093E1008091DF
:10337000E2008E7F8093E2008091E2008061809382
:10338000E20042E060E080E00E940B188091F000D3
:1033900088608093F0000E947B15FF91EF91BF91B0
:1033A000AF919F918F917F916F915F914F913F91DD
:1033B0002F910F900FBE0F901F9018951F920F9294
:1033C0000FB60F9211242F933F934F935F936F93F8
:1033D0007F938F939F93AF93BF93CF93EF93FF937D
:1033E000C091E900CF708091EC001092E9008091CB
:1033F000F000877F8093F00078940E941A1A109250
:10340000E9008091F00088608093F000C093E900AB
:10341000FF91EF91CF91BF91AF919F918F917F914C
:103420006F915F914F913F912F910F900FBE0F9031
:103430001F9018951F93CF93DF93CDB7DEB7AA9750
:103440000FB6F894DEBF0FBECDBFECEDF1E080917A
:10345000F100819321E0E43EF207C9F70E948E1546
:103460008091E80083FF1CC12091DC013091DD01D7
:10347000832F90E08A30910508F012C1FC01E155DC
:10348000FF4F0C94861B203881F0223809F008C1C8
:103490008091E0018F708093E9008091EB0085FBC3
:1034A000882780F91092E90006C08091D801909198
:1034B000D901911182609091E800977F9093E80084
:1034C0008093F1001092F100C5C0822F8D7F09F02A
:1034D000E7C0222319F0223061F0E2C08091DE01C2
:1034E000813009F0DDC0333009F080E08093D901EC
:1034F00028C08091DE01811124C02091E0012F704D
:1035000009F4CEC02093E9008091EB0080FF19C040
:103510008091EB00333011F4806211C080618093A0
:10352000EB0081E090E0022E01C0880F0A94EAF7D8
:103530008093EA001092EA008091EB00886080930B
:10354000EB001092E9008091E800877F86C021118E
:10355000A7C01091DE011F778091E3008078812B56
:103560008093E3008091E800877F8093E8000E94C9
:1035700040188091E80080FFFCCF8091E3008068D4
:103580008093E300112311F083E001C082E0809377
:10359000DB0186C02058223008F082C08091DE0115
:1035A0009091DF018C3D23E0920779F583E08A83D7
:1035B0008AE289834FB7F894DE01139620E03EE05B
:1035C00051E2E32FF0E050935700E49120FF03C055
:1035D000E295EF703F5FEF708E2F90E0EA3010F0D1
:1035E000C79601C0C0968D939D932F5F243149F7F4
:1035F0004FBF8091E800877F8093E8006AE270E027
:10360000CE0101960E94481714C0AE014F5F5F4F74
:103610006091E0010E947816009709F441C0209162
:10362000E800277F2093E800BC0189819A810E94ED
:10363000A9178091E8008B778093E80031C020388B
:1036400079F58091E800877F8093E8008091D70129
:103650008093F1008091E8008E778093E8000E94CB
:1036600040181EC021111CC09091DE019230C0F4A0
:103670008091E800877F8093E8009093D7010E94B3
:1036800040188091D701811104C08091E30087FF29
:1036900002C084E001C081E08093DB010E947F15BD
:1036A0008091E80083FF0AC08091E800877F8093C3
:1036B000E8008091EB0080628093EB00AA960FB641
:1036C000F894DEBF0FBECDBFDF91CF911F9108955B
:1036D0000895CF938091DB018823B1F08091E900B8
:1036E0008F709091EC0090FF02C090E801C090E0D4
:1036F000C92FC82B1092E9008091E80083FD0E9439
:103700001A1ACF70C093E900CF910895EE0FFF1FF2
:103710000590F491E02D0994F999FECF92BD81BDF9
:10372000F89A992780B50895A8E1B0E042E050E00A
:103730000C94B41B262FF999FECF92BD81BDF89A47
:10374000019700B4021639F01FBA20BD0FB6F894E5
:10375000FA9AF99A0FBE08950196272F0E949B1B93
:103760000C949A1BDC01CB01FC01F999FECF06C039
:10377000F2BDE1BDF89A319600B40D92415050402F
:08378000B8F70895F894FFCF9B
:103788008801A2141615A514E114A6140131F7F640
:10379800F5F433364036399B0365032C03D802F120
:0437A800020A03000E
:00000001FF
