:100000000C9431070C9475070C9475070C947507C4
:100010000C9475070C9475070C9475070C94750770
:100020000C9475070C9475070C945C290C942E2A7B
:100030000C9475070C9475070C9475070C94750750
:100040000C9475070C94B3230C9475070C947507E6
:100050000C9475070C94F2190C9475070C947507A1
:100060000C9475070C9475070C9475070C94750720
:100070000C9475070C9475070C9475070C94750710
:100080000C9475070C9475070C9475070C94750700
:100090000C9475070C9475070C9475070C947507F0
:1000A0000C9475070C9475070C94750744083B086D
:1000B0003E08410847084A084D08500853085608AA
:1000C00059085C085F086208650868086B086E08D4
:1000D000030909090D091009140918091C09200947
:1000E000250929092D093109340938093C09400934
:1000F0004409490980108010B310B310F310151192
:100100003D123D1220113D12C711C71130123D1290
:100110003D123812D411D411D411D411D411D411E8
:10012000D411D411D411D411D411D411D411D411A7
:10013000D411D411E411F411FB1102120C12BD12EE
:10014000BD12D012D012C612D012D012D012BD12CF
:10015000BD12CC12D012D012CC12932AB52AA02BE9
:10016000B52AA02BF72A1A2BA02B6F2B822B01E08C
:100170000104020402E00114021401200220000123
:10018000E00104020402E001140214011F021F0036
:1001900001E00104020402E001140214011E021E27
:1001A0000001E00104020402E0011402140127022C
:1001B000270001E30131023102E30001E3015102B2
:1001C0005102E30001E30152025202E30001E301A4
:1001D0004F024F02E30001E30150025002E300012D
:1001E000E00104020402E0011102110001E0010437
:1001F000020402E0013802380001E00104020402B6
:10020000E001E10134023402E10001E001040204F2
:1002100002E0011D021D0001E00104020402E001F0
:100220002902290001E2012B022B02E20001E00178
:1002300019021902E00001E00106020602E00001D5
:10024000E0011B021B02E0001BA101300330E000B3
:10025000E100002000300230F600F500F4000F301D
:1002600011300A300B3001000E30103009300C30E4
:100270000D300A44454255473A20656E61626C650F
:10028000642E0A000A0025303862003A200025302A
:100290003258000A722F632030313233343536370A
:1002A0000A000A002530325820006B6579626F61C0
:1002B00072645F7265706F72743A20000A002530B4
:1002C0003258006B6579626F6172645F7365745F49
:1002D0006C65643A200064656C5F6B65795F626988
:1002E000743A2063616E27742064656C3A2025306F
:1002F00032580A006164645F6B65795F6269743AC1
:100300002063616E2774206164643A20253032587E
:100310000A00646F6E652E0A00626F6F746D61670C
:100320006963207363616E3A202E2E2E2000290A05
:10033000002575002F002575005D2800256400202C
:1003400000256400200025640020002564007C0056
:1003500025303258006D6F7573656B6579205B626F
:10036000746E7C782079207620685D287265702F05
:1003700061636C293A205B006D6B5F776865656C23
:100380005F74696D655F746F5F6D6178203D2025D6
:10039000640A006D6B5F776865656C5F6D61785F9F
:1003A0007370656564203D2025640A006D6B5F7481
:1003B000696D655F746F5F6D6178203D2025640A0B
:1003C000006D6B5F6D61785F7370656564203D20C3
:1003D00025640A006D6B5F696E74657276616C20CE
:1003E0003D2025640A006D6B5F64656C6179203D7A
:1003F0002025640A006D6B5F776865656C5F7469C2
:100400006D655F746F5F6D6178203D2025640A0023
:100410006D6B5F776865656C5F6D61785F73706544
:100420006564203D2025640A006D6B5F74696D650D
:100430005F746F5F6D6178203D2025640A006D6BED
:100440005F6D61785F7370656564203D2025640A87
:10045000006D6B5F696E74657276616C203D20255E
:10046000640A006D6B5F64656C6179203D202564D2
:100470000A000A00257500363A20776865656C5FCA
:1004800074696D655F746F5F6D61783A20000A0072
:10049000257500353A20776865656C5F6D61785F1A
:1004A00073706565643A20000A00257500343A20AF
:1004B00074696D655F746F5F6D61783A20000A0042
:1004C000257500333A206D61785F73706565643A15
:1004D00020000A00257500323A20696E7465727634
:1004E000616C286D73293A20000A00257500313AA5
:1004F0002064656C6179282A31306D73293A2000B7
:100500000A092D2056616C756573202D0A004D3E39
:10051000004D25643E20003F0073657420646566CD
:1005200061756C740A00433E20007768657265202F
:1005300064656C74613A20637572736F723D2564F3
:100540002C20776865656C3D25640A5365652068D5
:100550007474703A2F2F656E2E77696B69706564BD
:1005600069612E6F72672F77696B692F4D6F757395
:10057000655F6B6579730A000A092D204D6F7573ED
:10058000656B6579202D0A4553432F713A097175C2
:1005900069740A313A0964656C6179282A31306DD1
:1005A00073290A323A09696E74657276616C286D36
:1005B00073290A333A096D61785F73706565640A5F
:1005C000343A0974696D655F746F5F6D61780A35DF
:1005D0003A09776865656C5F6D61785F7370656512
:1005E000640A363A09776865656C5F74696D655FA2
:1005F000746F5F6D61780A0A703A097072696E747F
:100600002076616C7565730A643A097365742064B9
:10061000656661756C74730A75703A092B310A64EA
:100620006F776E3A092D310A706775703A092B3170
:10063000300A7067646F776E3A092D31300A0A7399
:1006400070656564203D2064656C7461202A206DAE
:1006500061785F7370656564202A20287265706513
:100660006174202F2074696D655F746F5F6D6178B0
:10067000290A003F004D3E2000433E20004C2564E7
:100680000A0074696D65725F72656164333228298E
:100690003A202530346C580A006B65796D61705FC3
:1006A000636F6E6669672E6E6B726F3A2025580A0B
:1006B000006B6579626F6172645F69646C653A2092
:1006C00025580A006B6579626F6172645F70726FA2
:1006D000746F636F6C3A2025580A00686F73745FFB
:1006E0006B6579626F6172645F6C65647328293A27
:1006F0002025580A000A092D20537461747573204F
:100700002D0A004743433A20342E382E32204156DA
:10071000522D4C4942433A20312E382E302041563A
:10072000525F415243483A20617672350A004F5079
:1007300054494F4E533A204C55464120424F4F5456
:100740004D41474943204D4F5553454B4559204551
:10075000585452414B455920434F4E534F4C45201E
:10076000434F4D4D414E44204E4B524F2034303973
:10077000360A004255494C443A2022302E352E3458
:10078000302D3230302D673736636633372D64694C
:1007900072747922202832313A35393A3138204181
:1007A00070722031372032303137290A00564944DF
:1007B0003A20307846454544284C656A626F756139
:1007C00029205049443A20307836303630286D613F
:1007D00063726F7061645F32783529205645523AF2
:1007E000203078303030320A00444553433A204CB0
:1007F000656A626F756120637573746F6D203278FE
:1008000035206D6163726F7061640A000A092D20E2
:1008100056657273696F6E202D0A000A092D2043F8
:100820006F6E736F6C65202D0A4553432F713A0923
:10083000717569740A6D3A096D6F7573656B6579C9
:100840000A000A092D204D61676963202D0A443A88
:10085000094465627567204D65737361676520544F
:100860006F67676C650A583A094D61747269782040
:100870004465627567204D6F646520546F67676CCF
:1008800065202D2053686F77206B657970726573D2
:1008900073657320696E206D617472697820677268
:1008A00069640A4B3A094B6579626F61726420444E
:1008B0006562756720546F67676C65202D205368EB
:1008C0006F77206B65797072657373207265706FD6
:1008D00072740A4D3A094465627567204D6F7573ED
:1008E0006520546F67676C650A563A0956657273DE
:1008F000696F6E0A533A095374617475730A433A07
:1009000009416374697661746520436F6E736F6C1F
:1009100065204D6F64650A46312D4631303A0953E2
:10092000776974636820746F204C61796572203038
:100930002D392028463130203D204C30290A302DD9
:10094000393A0953776974636820746F204C617970
:10095000657220302D390A4553433A09537769743B
:10096000636820746F204C617965722030202861A3
:100970006C7465726E617465206B65792031290A2B
:1009800047524156453A0953776974636820746F3A
:10099000204C6179657220302028616C7465726E1C
:1009A000617465206B65792032290A5041555345A1
:1009B0003A094A756D7020746F20426F6F746C6FC6
:1009C0006164657220285265736574290A453A0985
:1009D0005072696E7420454550524F4D20536574D6
:1009E00074696E67730A4E3A094E4B524F20546F2A
:1009F00067676C650A5A3A09536C656570204C4507
:100A00004420546573740A000A002575002E6E6B2D
:100A1000726F3A20000A002575002E737761705FAF
:100A20006261636B736C6173685F6261636B737047
:100A30006163653A20000A002575002E73776170A6
:100A40005F67726176655F6573633A20000A00250F
:100A500075002E6E6F5F6775693A20000A00257574
:100A6000002E737761705F72616C745F7267756975
:100A70003A20000A002575002E737761705F6C6163
:100A80006C745F6C6775693A20000A002575002E4A
:100A9000636170736C6F636B5F746F5F636F6E74B1
:100AA000726F6C3A20000A002575002E7377617012
:100AB0005F636F6E74726F6C5F636170736C6F6392
:100AC0006B3A20000A0025303258006B65796D6161
:100AD000705F636F6E6669672E7261773A20000AF5
:100AE000002575002E6D6F7573653A20000A00258C
:100AF00075002E6B6579626F6172643A20000A009E
:100B00002575002E6D61747269783A20000A0025FF
:100B100075002E656E61626C653A20000A00253012
:100B200032580064656275675F636F6E6669672E31
:100B30007261773A20000A00257500646566617568
:100B40006C745F6C617965723A20003F004E4B52C5
:100B50004F3A206F66660A004E4B524F3A206F6E36
:100B60000A000A6D6F7573653A206F66660A000A9F
:100B70006D6F7573653A206F6E0A000A6B65796256
:100B80006F6172643A206F66660A000A6B6579626B
:100B90006F6172643A206F6E0A000A6D6174726947
:100BA000783A206F66660A000A6D61747269783A55
:100BB000206F6E0A000A64656275673A206F666688
:100BC0000A000A64656275673A206F6E0A000A0AB5
:100BD0004A756D70696E6720746F20626F6F746CF8
:100BE0006F616465722E2E2E2000433E20006565E5
:100BF000636F6E6669673A0A00536C656570204CD6
:100C0000454420546573740A000000000000000091
:100C100000000000010204060A0F17202C3A4A5D6A
:100C200071879DB3C7DAE9F5FCFFFCF5E9DAC7B3D4
:100C30009D87715D4A3A2C20170F0A0604020100B5
:100C40000000000000000000005B735D004B657950
:100C5000626F6172642073746172742E0A005B5754
:100C60005D005B535D005B525D005B445D005B4378
:100C70005D001A036D006100630072006F00700078
:100C8000610064005F00320078003500000010034E
:100C90004C0065006A0062006F0075006100000092
:100CA0000403090409028D00050100A0FA090400EB
:100CB0000001030101000921110100012240000788
:100CC00005810308000A090401000103010200096B
:100CD0002111010001224D000705820308000A09C5
:100CE0000402000103000000092111010001223665
:100CF000000705830308000A09040300020300003B
:100D000000092111010001222200070584032000AF
:100D10000107050403200001090404000103000089
:100D20000009211101000122390007058503200077
:100D3000011201100100000008EDFE6060020001D8
:100D400002000105010906A101050719E029E715BF
:100D500000250195087501810205081901290595ED
:100D60000575019102950175039101050719002987
:100D7000F71500250195F875018102C00631FF09BC
:100D800074A1010975150026FF00952075088102E0
:100D90000976150026FF00952075089102C005010F
:100DA0000980A10185021601002603001A81002A8C
:100DB0008300751095018100C0050C0901A1018512
:100DC00003160100269C021A01002A9C0275109548
:100DD000018100C005010902A1010901A100050965
:100DE0001901290515002501950575018102950157
:100DF000750381010501093009311581257F9502AF
:100E00007508810609381581257F950175088106C9
:100E1000050C0A38021581257F950175088106C0E9
:100E2000C005010906A101050719E029E7150025FC
:100E30000195087501810295017508810105081960
:100E4000012905950575019102950175039101052B
:100E500007190029FF150026FF0095067508810077
:100E6000C00011241FBECFEFDAE0DEBFCDBF04B655
:100E700003FE24C08091100290911102A0911202F1
:100E8000B09113028730904BA740B04BB9F4109249
:100E9000100210921102109212021092130214BE4C
:100EA00084B7877F84BF88E10FB6F8948093600091
:100EB000109260000FBEE0E0F8E3099511E0A0E0B9
:100EC000B1E0E2EDFAE502C005900D92AE33B10754
:100ED000D9F712E0AEE3B1E001C01D92A031B10735
:100EE000E1F70E9482260C94672D0C940000FF937A
:100EF000EF93E0913E01F0913F01309709F00995A1
:100F0000EF91FF910895FC018591803011F0EFDFA2
:100F1000FBCF0895FF27E0E230E247FF0CC0419588
:100F200097FF09C0EDE26095709580959095611DE1
:100F3000711D811D911D27FF02C0219530E350E2F4
:100F4000AA27660F771F881F991FAA1FA41710F0E2
:100F5000A41B63955A95A9F7AA3008F0A95FA05D74
:100F6000AF93F395611571058105910541F7ED3258
:100F700011F4EF93F395F21718F43F93F395FBCF29
:100F80008F91B5DFFA95E1F70895E991F99185918F
:100F9000803021F0853219F0AADFF9CF089520E0E2
:100FA000E89455915532C1F3503311F4689455913A
:100FB0005A3348F4505390F3220F022E220F220F7F
:100FC000200D250FF4CF0EF4219589919991533678
:100FD00019F3533729F1533559F1BC018827992763
:100FE000E8945C3621F4899199916894559154362E
:100FF00039F446EF7EF077FF0DC08FEF9FEF0AC008
:1010000055374AE039F0583540E121F0523642E098
:1010100009F00895FF93EF937DDFEF91FF91B7CF34
:10102000FF93EF93FC0181918030B9F360DFFBCF38
:10103000FF93EF9368DFF1CFDF93CF93CDB7DEB7A8
:101040002596A3DFCF91DF9108950C94A9080C9405
:10105000AA080C94AB080C94AD08462F50E042311E
:10106000510508F040C0FA01EA5AFF4FDC01129620
:101070008C910C94172D811139C035C0811139C064
:1010800032C0811139C02FC0811139C02CC08111EB
:1010900039C029C0811139C026C0811139C023C08F
:1010A000811139C020C0811139C01DC0811139C0E2
:1010B0001AC0811139C017C0811139C014C0811103
:1010C00039C011C0811139C00EC0811139C00BC0A7
:1010D000811139C008C0811139C005C0882319F0B9
:1010E0008EE691E0089580E090E008958FE392E02D
:1010F000089586E392E008958DE292E0089584E2F7
:1011000092E0089587E192E008958AE092E00895E0
:1011100089EF91E008958CEE91E008958FED91E0D4
:10112000089586ED91E008958DEC91E0089584ECAA
:1011300091E008958BEB91E0089582EB91E00895A2
:1011400081EA91E0089580E991E008958FE791E0C8
:1011500008950895089581E00895089581E008951F
:101160000E94AB122FEF84E39CE02150804090401E
:10117000E1F700C000000C94181A0F931F93CF934F
:10118000DF938C01FC01C081D181CE010E949717B1
:10119000BE010E94FD09EC01B8010E9429088823C4
:1011A00009F41EC1B801CE010E94200C882309F465
:1011B00017C1C531FCE5DF0708F0A7C0C2308CE5D8
:1011C000D80708F478C0F8018281882309F47FC029
:1011D0000E946319811102C00E9449190E9480195E
:1011E00090E09093020280930102FE01E350FC45DF
:1011F000E231F10520F4E859FF4F0C94172D80914E
:101200000102816003C0809101028260809301022B
:101210004BC0809101028460F9CF8091010213C01C
:10122000809101028061F2CF809101028062EECF55
:10123000809101028064EACF809101028068E6CF4C
:101240008091010284608860E1CF809101028E7FED
:10125000DDCF809101028D7FD9CF809101028B7FFC
:10126000D5CF8091010213C0809101028F7ECECF35
:10127000809101028F7DCACF809101028F7BC6CF02
:10128000809101028F77C2CF809101028B7F877F8F
:10129000BDCF9091010297FB882780F921E082273A
:1012A00080FB97F990930102809101020E948419BA
:1012B0000E94AB1295C0C115ECE5DE0779F0C13094
:1012C000DC45A1F081E08093440180934501C80191
:1012D000DF91CF911F910F910C94AE08F80182819C
:1012E000882309F47DC00E94B0087AC0F801828189
:1012F000882309F475C082E792E00E9483078091F9
:10130000C90181608093C9016BC0C73C8CE5D807D7
:1013100039F5F8018281882361F0109245010E941D
:10132000B119909343018093420180E20E943510ED
:1013300057C08091450181110FC080914201909169
:1013400043010E94C919883C910530F487E20E944C
:10135000130F87E20E94E60F80E20E943C1040C01B
:10136000C83CECE5DE0738F5C63CDC4509F0AACF01
:10137000F8018281882351F0109244010E94B11932
:10138000909341018093400182E0D0CF809144014D
:1013900081110FC080914001909141010E94C919B3
:1013A000883C910530F486E20E94130F86E20E9489
:1013B000E60F82E0D2CFCA3C8CE5D80731F4F801C1
:1013C0008281882369F080E009C0CB3CDC4509F0CC
:1013D00079CFF8018281882319F082E00E942227C8
:1013E00080E0DF91CF911F910F9108950C94250813
:1013F0000C9427080C942B08089595E0799FF00130
:1014000011249AE0899FE00DF11D1124E60FF11DD2
:10141000EE0FFF1FE65BFD4F859194910895880FB5
:10142000991F885B9D4FFC018591949108950E94BE
:10143000FD090E94A30B811520E49207B0F58115E8
:1014400040E3940708F0DBC0803E9105D8F4803C6F
:10145000910508F069C0883A910578F4853A9105BC
:1014600008F065C08130910509F46CC108F423C10E
:101470008430910508F066C11EC18D3B910508F4CA
:1014800061C019C18F3F910509F048F4803F910573
:1014900008F0AFC0883E910508F454C10CC1811515
:1014A00020E2920708F0A7C00895811544E594074B
:1014B000D8F4811523E5920708F0DCC0811541E5D9
:1014C000940740F4811520E5920708F0A2C09F70B0
:1014D000906A0895811542E5940708F0B6C0982FE8
:1014E0008827816F906A0895811526E5920750F448
:1014F000811545E5940708F0D2C0982F8827846F9E
:10150000906A0895811528E5920708F4D4C08115E2
:1015100049E5940708F4C8C09C01305621153042B3
:1015200008F0C9C09F71C5C0805C910965C0853A4B
:10153000910509F4C3C0863A910509F4C2C083E855
:1015400090E40895883A910509F4BEC0893A91055E
:1015500009F4BDC08A3A910509F4BCC08B3A9105E3
:1015600009F4BBC08C3A910509F4BAC08B3B9105D4
:1015700009F4B9C08C3B910509F4B8C08D3A9105C6
:1015800009F4B7C0803B910509F4B6C08E3A9105C5
:1015900009F4B5C08F3A910509F4B4C0813B9105B7
:1015A00009F4B3C0823B910509F4B2C0833B9105B5
:1015B00009F4B1C0843B910509F4B0C0853B9105A5
:1015C00009F4AFC0863B910509F4AEC0873B910595
:1015D00009F4ADC0883B910509F4ACC0893B910585
:1015E00009F4ABC08A3B910509F0AAC08AE296E4EF
:1015F0000895906508959F700E940F0A08959C01B8
:10160000332793FF03C0C901986C0895C901906CFA
:101610000895482F437021E030E002C0220F331FAD
:101620004A95E2F73C68AC0174E0569547957A9587
:10163000E1F74370342B8F708695869540E2849F46
:10164000C0011124822B932B0895282F26952695CF
:1016500040E2249F90011124AC014370552781E0A2
:1016600090E002C0880F991F4A95E2F7822B932BD6
:101670009C680895282F2695269540E2249F900186
:101680001124AC014370552781E090E002C0880F1F
:10169000991F4A95E2F7822B932B9A6808958F71D0
:1016A0009927982F882705C0982F8827806F906AE0
:1016B00008959062089580E090E0089581E890E4B4
:1016C000089582E890E4089582EE94E4089589EE06
:1016D00094E408958AEE94E4089585EB94E40895E3
:1016E00086EB94E4089583EB94E4089584EB94E40A
:1016F000089587EB94E408958CEC94E408958DECC0
:1017000094E4089583E895E408958AE895E40895BB
:1017100082E995E4089584E995E4089581E296E4E8
:10172000089583E296E4089584E296E4089585E2BC
:1017300096E4089586E296E4089587E296E4089593
:1017400080E094E408958238910549F1B0F4813342
:10175000910509F459C048F48932910509F44FC044
:101760008A32910509F455C008958533910509F42D
:1017700041C08933910599F00895833E910531F177
:1017800038F4803E910591F0823E9105A9F00895CC
:10179000863E910501F1873E910539F1089520912A
:1017A000010220FD3BC021FD39C008958091010256
:1017B00080FF34C089E341C08091010282FF32C0C2
:1017C0008091010284FF2CC080E037C0809101022B
:1017D00082FD28C0F5CF8091010283FF25C0809152
:1017E000010284FDF1CF87EE28C08091010283FDC4
:1017F0001BC0F5CF8091010285FF18C019C08091F0
:10180000010285FF15C012C08091010286FF12C03F
:1018100013C08091010286FF0FC00CC080EE0DC086
:1018200083EE0BC082EE09C086EE07C085E305C0DB
:1018300089E203C081E301C08AE290E0089508953F
:10184000CF93DF93EC01FB018281811102C081E023
:1018500040C080915301811125C0C531DC45B9F7E5
:101860000E941F0C81E0809353010E94B119909354
:10187000520180935101109246011092480110923A
:10188000470110924A011092490110924C011092A6
:101890004B0110924E0110924D0110925001109286
:1018A0004F0116C080915101909152010E94C919B7
:1018B000883C910560F680914601E82FF0E0EE0F3C
:1018C000FF1FE95BFE4FD183C0838F5F809346018A
:1018D00080E0DF91CF91089585B7806885BF85B797
:1018E000806885BF23982B9A26982E9AA3E1B1E0B1
:1018F00021E030E08D91E82FE295EF70F0E041A11A
:101900008F70B90102C0660F771F8A95E2F7CB018D
:10191000962F9095492341A392A1982B92A371E011
:10192000A831B70739F7109256011092540110925E
:101930005701109255010C94F6096F927F929F9275
:10194000AF92BF92CF92DF92EF92FF920F931F93CD
:10195000CF93DF9308E111E0C4E5D1E0EE24E394F6
:10196000F12CBB24B394AE0198801882D8012D913C
:101970008D01E22FE295EF70F0E081A12F70B701A9
:1019800002C0660F771F2A95E2F79B01862B81A381
:1019900082A1A62EA0948A2182A370EA7A95F1F7FB
:1019A00063E1662E61E0762E80E090E0D3017D91C8
:1019B0003D01C72EC2943FE0C322D12CD6019096A0
:1019C000DC90C8807F70D70102C0AA0FBB1F7A9538
:1019D000E2F7DA2239F46E2D082E01C0660F0A9460
:1019E000EAF701C060E06C296883019685309105B3
:1019F000E9F681A18A2181A382A1822B82A321966B
:101A0000FA018081981641F0B09258010E94B119F4
:101A100090935A0180935901F1E00A311F0709F0B0
:101A2000A2CF80915801882391F080915901909123
:101A30005A010E94C919069750F080915401809371
:101A400056018091550180935701109258010E94D0
:101A5000F80981E0DF91CF911F910F91FF90EF90F6
:101A6000DF90CF90BF90AF909F907F906F90089540
:101A7000E82FF0E0EA5AFE4F80810895CF92DF927E
:101A8000EF92FF920F931F93CF93DF9383E992E03E
:101A90000E948307E6E5EE2EE1E0FE2EC0E0D0E0F6
:101AA000FEE8CF2EF2E0DF2E06E812E0DF93CF93C0
:101AB000DF92CF920E941C088BE892E00E9483077D
:101AC000F70181917F010E9437191F928F931F9315
:101AD0000F930E941C0884E892E00E9483072196DD
:101AE0008DB79EB708960FB6F8949EBF0FBE8DBFF8
:101AF000C230D105D9F6DF91CF911F910F91FF90A0
:101B0000EF90DF90CF9008959093600180935F01F4
:101B10000895E0915F01F0916001309721F001900C
:101B2000F081E02D099480E00895FF920F931F93B8
:101B3000CF93DF938C01E0915F01F09160013097CA
:101B400099F10280F381E02D09958091C90182FF0E
:101B50002BC080FF04C08AEA92E00E948307E8015C
:101B600080E2F82E04EA12E08091C90180FF0BC0E8
:101B700088811F928F931F930F930E941C080F90D0
:101B80000F900F900F90FA942196F110EDCF809165
:101B9000C90180FF09C082EA92E0DF91CF911F91D5
:101BA0000F91FF900C948307DF91CF911F910F91BC
:101BB000FF900895E0915F01F0916001309721F06E
:101BC0000480F581E02D0994089520915D01309104
:101BD0005E018217930771F090935E0180935D011F
:101BE000E0915F01F0916001309721F00680F7816C
:101BF000E02D0994089520915B0130915C018217DA
:101C0000930771F090935C0180935B01E0915F0119
:101C1000F0916001309721F00084F185E02D099466
:101C2000089508950C94110E0E94A8190E946C0C3E
:101C30000C947F1ACF93C82F8091C90182FF1EC0D8
:101C400080FF04C083EC92E00E9483078091C90169
:101C500080FF0CC01F92CF932EEB32E03F932F9367
:101C60000E941C080F900F900F900F908091C90157
:101C700080FF04C08CEB92E00E9483078C2FCF91F1
:101C80000C94FA09CF92DF92EF92FF920F931F9379
:101C9000CF93DF93CDB7DEB72B970FB6F894DEBFA7
:101CA0000FBECDBF0E949D0C32E6E32E31E0F32E35
:101CB00000E010E0C02E802F0E94380DF701D19077
:101CC0007F01D826B1F40F5F1F4F0230110591F745
:101CD0008FEF89838A831B820E94B1198160782FDC
:101CE0009D838C8349815A816B818D810E94E50E91
:101CF00041C09091C90191FF04C08B870E943E0DA5
:101D00008B8520E030E04D2D50E0922FBA01022E5D
:101D100002C0759567950A94E2F760FF25C02E838F
:101D2000CF82EE24E394F12C02C0EE0CFF1C9A95B6
:101D3000E2F790E08E219F2121E0892B09F420E039
:101D400028870E94B1198160782F9A8789874E81F0
:101D50005F8168858A850E94E50EF801EE59FE4F85
:101D600080818E25808306C02F5F3F4F253031054F
:101D700061F6A9CF0E94A91D109161010E94890DF1
:101D80001817A1F00E94890D809361012B960FB660
:101D9000F894DEBF0FBECDBFDF91CF911F910F91A1
:101DA000FF90EF90DF90CF900C941A0E2B960FB609
:101DB000F894DEBF0FBECDBFDF91CF911F910F9181
:101DC000FF90EF90DF90CF900895CF93DF93CDB742
:101DD000DEB72B970FB6F894DEBF0FBECDBF4F8393
:101DE000588769877A878B87DE01119686E0FD0127
:101DF00011928A95E9F785E0FE01379601900D92E0
:101E00008A95E1F749815A816B817C818D819E8120
:101E10000E9475152B960FB6F894DEBF0FBECDBF8E
:101E2000DF91CF910895CF93C82F882309F4CCC0B8
:101E3000823859F40E94890D81FDC6C089E30E9451
:101E400017180E94031989E30CC0833879F40E94A3
:101E5000890D80FDB9C083E50E9417180E940319FF
:101E600083E50E946818CF910C940319843859F4C3
:101E70000E94890D82FDA8C087E40E9417180E9465
:101E8000031987E4EECF8CEF8C0F813A48F48C2F46
:101E90000E943F22811198C08C2F0E941718E3CF17
:101EA00080E28C0F883048F4C77081E001C0880F51
:101EB000CA95EAF70E94BA18D6CF8BE58C0F83300B
:101EC00078F4C53A29F0C63A31F482E890E005C0CA
:101ED00081E890E002C083E890E0CF910C94E50D9A
:101EE00088E58C0F853108F06FC0C83A61F1C93AB6
:101EF00069F1CA3A71F1CB3A79F1CC3A81F1CB3B35
:101F000089F1CC3B91F1CD3A99F1C03BA1F1CE3AA8
:101F1000A9F1CF3AB1F1C13BB9F1C23BC1F1C33B29
:101F2000C9F1C43BD1F1C53BD9F1C63BE1F1C73B97
:101F3000E9F1C83BF1F1C93BF9F1CA3B09F03FC0F7
:101F40008AE292E03EC082EE90E03BC089EE90E0F3
:101F500038C08AEE90E035C085EB90E032C086EB69
:101F600090E02FC083EB90E02CC084EB90E029C080
:101F700087EB90E026C08CEC90E023C08DEC90E0E5
:101F800020C083E891E01DC08AE891E01AC082E990
:101F900091E017C084E991E014C081E292E011C0A1
:101FA00083E292E00EC084E292E00BC085E292E010
:101FB00008C086E292E005C087E292E002C080E0BD
:101FC00090E0CF910C94FB0DCF910895882309F4F4
:101FD0004BC0823859F40E94890D81FF45C089E3C6
:101FE0000E9417180E94031989E30CC0833871F40A
:101FF0000E94890D80FF38C083E50E9417180E9457
:10200000031983E50E9468180C940319843859F465
:102010000E94890D82FF28C087E40E9417180E9441
:10202000031987E4EFCF9CEF980F913A58F390E2B1
:10203000980F983050F4877091E001C0990F8A95FD
:10204000EAF7892F0E94C018DFCF9BE5980F9330E5
:1020500020F480E090E00C94E50D885A853120F45E
:1020600080E090E00C94FB0D0895882321F00E94FD
:10207000BA180C9403190895882321F00E94C018FF
:102080000C94031908958F929F92AF92BF92CF92B2
:10209000DF92EF92FF920F931F93CF93DF931F92E4
:1020A000CDB7DEB74C01A62E472FFC01E580E294A8
:1020B0008FE0E822F280FF2021F079830E94D71878
:1020C000498149830E9410184981882381F0FF20AB
:1020D00071F080E28A0D883050F082E00E94F9179A
:1020E0000E941018BB24B394B826498101C0B12CBA
:1020F000E42FE295EF70F0E0E658FF4F0C94172DB7
:10210000842F807F142F1F70882311F01295107F69
:10211000FF2099F0112309F499C180E28A0D8830DB
:1021200010F0A11004C0812F0E94BA1803C0812FA3
:102130000E94CA180E94031989C18A2D0E94E60FC5
:10214000112309F49AC180E28A0D883010F0A110A1
:1021500004C0812F0E94C01803C0812F0E94D01894
:102160000E9403198AC1242F207F842F8F70203270
:1021700011F08295807FAA2021F0F1E0AF16B1F036
:1021800021C0FF2041F0EE2039F191E0E91224C096
:102190000E94EA1872C1EE2021F0E1E0EE1609F487
:1021A0006CC189830E94ED1889810BC1FF2029F041
:1021B000F5E0FE1508F461C10FC094E09E1508F427
:1021C0005CC1FFC0FF2059F0EE2031F0F401958191
:1021D00090FF3CC19F7095830E9435104EC1EE2048
:1021E00009F4EFC039C1242F26952695237030E0DD
:1021F0002115310521F02130310561F03EC1FF206C
:1022000021F08A2D942F937002C080E090E00E940C
:10221000E50D33C1FF2021F08A2D942F937002C069
:1022200080E090E00E94FB0D28C18A2DFF2019F06C
:102230000E942F1C02C00E94971C0E941C1D1DC1E1
:10224000842F837009F04EC0F11017C12A2D2295FA
:1022500026952770220F220F8A2D8F70C82ED12C21
:10226000E12CF12C022E04C0CC0CDD1CEE1CFF1C5A
:102270000A94D2F7A4FE10C06FE070E080E090E016
:1022800004C0660F771F881F991F2A95D2F76095A3
:1022900070958095909503C060E070E0CB01242F8D
:1022A00026952695237030E02230310569F02330E1
:1022B000310589F06C297D298E299F29213031052E
:1022C00071F00E94C616D9C06C297D298E299F29DC
:1022D0000E94D816D2C00E94C616C701B6010E943D
:1022E000B416CBC0FF2019F0842F817001C08695F1
:1022F000882309F4C2C02A2D229526952770220F23
:10230000220F8A2D8F70C82ED12CE12CF12C022E99
:1023100004C0CC0CDD1CEE1CFF1C0A94D2F7A4FEFA
:1023200010C06FE070E080E090E004C0660F771F9F
:10233000881F991F2A95D2F7609570958095909582
:1023400003C060E070E0CB01242F26952695237012
:1023500030E02230310569F02330310589F06C29F5
:102360007D298E299F292130310571F00E94721735
:1023700084C06C297D298E299F290E9484177DC0E5
:102380000E947217C701B6010E94601776C00A2D1D
:1023900010E0F801E05EF109E531F10508F052C006
:1023A000E657FF4F0C94172D1A2D1F70842F8F7135
:1023B000FF2021F00E940B17812F0ECF0E942617BD
:1023C000812F0E943C1059C0FF2049F0F4E0FE1517
:1023D00008F453C0842F8F710E9445174EC085E0CA
:1023E0008E1508F44AC0F6CFFF2039F0842F8F7184
:1023F0000E940B1742C0FF20C9F3842F8F710E94E7
:1024000026173BC0FF2029F0842F8F710E94FC16F5
:1024100034C00E94F71631C0FF2051F0142F1F71F5
:10242000812F0E940B1763E0812F0E94F01725C0B7
:1024300081E00E94F91791E09E15F8F482E00E9475
:10244000F9171BC0FF2031F0EE2081F28A2D0E9487
:10245000130F13C0EE2089F28A2D0E94E60F0DC0E3
:102460004F706A2DC4010E942D080E94221605C0DB
:102470004F706A2DC4010E94FC09BB20F1F00E943C
:10248000EC1780FD1AC0F40112820E94E6170E9428
:102490000B17C4010E946B120E94E6170F90DF9188
:1024A000CF911F910F91FF90EF90DF90CF90BF9051
:1024B000AF909F908F900C9426170F90DF91CF9143
:1024C0001F910F91FF90EF90DF90CF90BF90AF9052
:1024D0009F908F9008950F931F93CF93DF93EC01FC
:1024E000288139818B819C81892B31F03F3F11F00C
:1024F00080E003C02F3FE1F781E0811113C0CE01DE
:102500000E94BD08882371F0688179818A810E94C8
:10251000E2178C010E9496170E94B116B801CE01F5
:102520000E944310DF91CF911F910F9108950E9457
:10253000D7180E94E7180E94AC180E9403190E9445
:102540004A1E0E941C1D80E090E00E94E50D80E084
:1025500090E00C94FB0D0E94C7180C9497120E94F7
:10256000D717E92FE295EF70F0E03297EE30F105E2
:10257000B8F4E156FF4F0C94172D803F59F018F432
:10258000803E70F407C0843F59F404C0803E10F0D0
:10259000813F31F481E0089593FB882780F9089505
:1025A00080E00895CF93DF9300D000D01F92CDB785
:1025B000DEB70F900F900F900F900F90DF91CF919B
:1025C0000895CF93DF9300D000D000D0CDB7DEB711
:1025D00026960FB6F894DEBF0FBECDBFDF91CF9128
:1025E00008951F93CF93DF93C091640116E080910B
:1025F0006501C81799F0D0E01C9FF0011D9FF00DF8
:102600001124EA59FE4F4081518162817381848196
:1026100095810E94E1122196C770E9CFDF91CF9199
:102620001F910895409196015091970160919801F2
:102630007091990180919A0190919B010C94E11203
:10264000CF9380919B0182958F7009F05FC080913C
:102650009801882309F45AC020916401A091650172
:1026600060919601709197018091990190919A01E2
:1026700031E06F3F09F030E0B32FC6E02A1709F4CC
:1026800045C0009721F07F3F21F44B2F03C041E06C
:1026900001C040E030E040FD35C0C29FF001C39F63
:1026A000F00D1124EA59FE4F418174132BC0408173
:1026B000641328C04281411125C0438154814817C9
:1026C000590710F441505109481B590B483C51051A
:1026D000C8F480919B018F70806180939B0186E09C
:1026E000829FF001839FF00D1124E559FE4F8081F8
:1026F0008F708061808386E991E00E946B12CF9198
:102700000C94F1122F5F3F4F2770B8CFCF910895EF
:10271000CF92DF92EF92FF920F931F93CF93DF93AD
:10272000CDB7DEB762970FB6F894DEBF0FBECDBF50
:102730008C0185E0F801DE011D9601900D928A95CD
:10274000E1F7D8014C9111965C91119712966C911A
:1027500012971396ED90FC90149770919601E0916A
:1027600097012091990130919A012115310531F09D
:10277000EF3F31F481E07F3F19F403C081E001C0F5
:1027800080E0B82FB170CB2E80FD6CC1D090980145
:10279000DD2009F4F5C0F0919B01E216F30638F054
:1027A000C701821B930B883C910548F09BC0209584
:1027B00030952E0D3F1D283C310508F093C08F2F1A
:1027C000807F09F052C0E51314C0741312C0D62ED6
:1027D00061110FC0FF70F061F0939B010E94121312
:1027E00086E991E00E946B1280919B01F80185833C
:1027F0006CC1EF2831F05F3F31F481E04F3F19F4B5
:1028000003C081E001C080E080FD03C081E0862735
:1028100001C080E0F82FF170FF2E80FF1CC0809176
:1028200064012091650136E0821709F428C190E027
:10283000389FF001399FF00D1124EA59FE4F718144
:10284000571306C07081471303C07281671303C01A
:1028500001968770E9CFD62E662309F436C18091A0
:102860009B01816080939B0153C0E51308C07413E2
:1028700006C0611104C0D8011596FC93AEC04D8707
:102880005E878D859E856A8B0E94AF126A89882338
:1028900029F1D62E662311F120919B01822F82957A
:1028A0008F7090E002970CF460C080919601909137
:1028B000970198878F831986FB86EA862C87CE013D
:1028C000079651C0E51731F14D875E878D859E854E
:1028D0006A8B0E94AF126A8981112EC0C8010E94C2
:1028E0006B12A4C08F2F807F69F77E2DF98AE88A4A
:1028F00089890E94D21286E991E00E946B12E6E972
:10290000F1E086E0DF011D928A95E9F70E9412133B
:10291000D12CDBC07413D8CF6111D6CFD801159656
:10292000FC93C8010E946B12E6E9F1E086E0DF014A
:102930001D928A95E9F7C9C0D62E662379F22091B7
:102940009B01822F82958F7090E0029774F08091A6
:102950009601909197019A8389831B82FD82EC8274
:102960002E83CE0101960E946B1286E0F801A6E943
:10297000B1E001900D928A95E1F70E9420136FC09B
:10298000E216F30628F0C701821B930B9C0104C0DA
:10299000209530952E0D3F1D283C310508F052C082
:1029A000D62E662309F49ACFE5132CC074132AC0DF
:1029B00080919B0180FD1DC0982F92959F70C9F05A
:1029C000D80115968C9315979F3039F09F5F92959B
:1029D000907F8F70892B15968C93C8010E946B1283
:1029E00086E0F801A6E9B1E001900D928A95E1F741
:1029F00036C086E0F801A6E9B1E001900D928A9513
:102A0000E1F763C04D875E878D859E850E94AF127A
:102A1000882379F086E0F801A6E9B1E001900D92F3
:102A20008A95E1F70E9420130E941213DD24D394AB
:102A30004CC080919B01816080939B01C8010E94E2
:102A40006B1243C07E2DF98AE88A89890E94D212CE
:102A5000E6E9F1E086E0DF011D928A95E9F70E9440
:102A6000121333C0662309F439CF4D875E878D85F5
:102A70009E850E94AF12882309F430CFCBCF4D87BB
:102A80005E878D859E850E94D717292F22952F70EE
:102A900030E0223031052CF49F7041F0811106C0E6
:102AA0000CC0243031052CF49F7049F4805E8830CE
:102AB00020F0C8010E946B12CF2CDC2C06C0D8017C
:102AC00015969C91907F91F7F8CF8D2D62960FB659
:102AD000F894DEBF0FBECDBFDF91CF911F910F9154
:102AE000FF90EF90DF90CF9008951F93CF93DF93E7
:102AF000CDB7DEB72C970FB6F894DEBF0FBECDBFB3
:102B00004F83588769877A878B879C87CE01079682
:102B10000E9488138823C1F02F8138858A859B8580
:102B2000892B31F03F3F11F080E003C02F3FE1F7E8
:102B300081E0811147C04F81588569857A858B85F1
:102B40009C850E94E1123EC086E0FE013796DE01C0
:102B5000119601900D928A95E1F7FF81E8854A85EB
:102B60005B854115510531F0EF3F31F481E0FF3FC6
:102B700019F403C081E001C080E080FD23C02091F2
:102B8000650130E0C9010196877099276091640161
:102B900070E086179707F1F1F983EA835D834C8330
:102BA00096E0929FD001939FB00D1124AA59BE4F79
:102BB000FE01319601900D929A95E1F7809365019F
:102BC0000E94F11216E080916401909165018917CD
:102BD00079F1189FC00111248A599E4F0E948813D1
:102BE000882331F1E09164011E9FF0011124EA591C
:102BF000FE4F4081518162817381848195810E9461
:102C0000E1128091640190E001968770992780938A
:102C10006401D9CF0E94AB12109265011092640139
:102C2000E6E9F1E086E0DF011D928A95E9F7CACF77
:102C30002C960FB6F894DEBF0FBECDBFDF91CF91BB
:102C40001F910895EF92FF920F931F93CF93DF93FD
:102C50009C01009709F471C0F12CEE24E394E90182
:102C60002196F9018491843740F4843008F056C0ED
:102C7000813081F0823021F160C0853709F449C08C
:102C8000C0F19CE7980F903708F057C08F770E94EB
:102C9000E60F46C089010E5F1F4FFE01849190E24E
:102CA000980F983050F48770FE2D01C0FF0F8A9561
:102CB000EAF78F2F0E94DA1815C00E94130F14C074
:102CC00089010E5F1F4FFE01849190E2980F9830AA
:102CD00068F48770FE2D01C0FF0F8A95EAF78F2FE9
:102CE0000E94E0180E940319E8011AC00E94E60F32
:102CF000FBCF2E5F3F4FFE01C491CC2341F08FE903
:102D00009FE00197F1F700C00000C150F6CFE90144
:102D100007C0FE01F490E901229602C00E94130F41
:102D20008F2D882341F0EFE9FFE03197F1F700C0E4
:102D300000008150F6CF9E0192CFDF91CF911F917D
:102D40000F91FF90EF90089508950E94A41660934C
:102D5000A0017093A1018093A2019093A3010C9410
:102D6000971208950C94A5160F931F930091A0013C
:102D70001091A1012091A2013091A301602B712B30
:102D8000822B932B1F910F910C94A5160F931F93D9
:102D90000091A0011091A1012091A2013091A30105
:102DA00060237123822393231F910F910C94A51606
:102DB0000F931F930091A0011091A1012091A201F6
:102DC0003091A30160277127822793271F910F91CC
:102DD0000C94A51608950E94EA1660939C017093C6
:102DE0009D0180939E0190939F010C94971260E047
:102DF00070E0CB010C94EB1641E050E060E070E035
:102E000004C0440F551F661F771F8A95D2F7CB0168
:102E1000BA010C94EB1641E050E060E070E004C0B1
:102E2000440F551F661F771F8A95D2F780919C012A
:102E300090919D01A0919E01B0919F01482B592B2B
:102E40006A2B7B2BCB01BA010C94EB1641E050E0CE
:102E500060E070E004C0440F551F661F771F8A951D
:102E6000D2F7409550956095709580919C01909116
:102E70009D01A0919E01B0919F01482359236A238F
:102E80007B23CB01BA010C94EB1641E050E060E0EB
:102E900070E004C0440F551F661F771F8A95D2F754
:102EA00080919C0190919D01A0919E01B0919F0104
:102EB000482759276A277B27CB01BA010C94EB16C8
:102EC0000F931F9300919C0110919D0120919E01F1
:102ED00030919F01602B712B822B932B1F910F91AF
:102EE0000C94EB160F931F9300919C0110919D0180
:102EF00020919E0130919F016023712382239323AF
:102F00001F910F910C94EB160F931F9300919C014E
:102F100010919D0120919E0130919F0160277127A2
:102F2000822793271F910F910C94EB160895CF924F
:102F3000DF92EF92FF920F931F93CF93DF93EC01F9
:102F4000C090A001D090A101E090A201F090A30157
:102F500080919C0190919D01A0919E01B0919F0153
:102F6000C82AD92AEA2AFB2A0FE110E0B701A601F4
:102F7000002E04C076956795579547950A94D2F729
:102F800040FD05C00150110988F780E007C0BE016F
:102F9000802F0E94170A0197A9F3802FDF91CF910C
:102FA0001F910F91FF90EF90DF90CF900895CF93F6
:102FB000DF93EC010E949717BE010E94170ADF9170
:102FC000CF910895CB010E94D71708958091A40155
:102FD00085958595859508958091A40187700895BC
:102FE00098E0899F90011124622B6093A4010C94B6
:102FF0000B174091A401809584238093A401982FFE
:10300000977069F450E0282F332727FD3095421739
:10301000530729F08595859585950C942617089575
:103020009091A401977081E009F480E00895909157
:103030001201992361F19091010297FF28C0982F06
:103040009695969596959F3188F4E0910001F091C0
:103050000101E90FF11D877021E030E001C0220F6E
:103060008A95EAF78181822B818308959091C90125
:1030700090FF2DC01F928F9384EF92E09F938F93C8
:103080000E941C080F900F900F900F900895409190
:1030900000015091010120E030E09FEFFA01E20FC2
:1030A000F31F6281681799F09F3F19F4611101C005
:1030B000922F2F5F3F4F2E31310581F79F3F39F01F
:1030C000FA01E90FF11D97FDFA958283089508959D
:1030D00090911201992369F19091010297FF29C003
:1030E000982F9695969596959F3190F4E0910001D2
:1030F000F0910101E90FF11D877021E030E001C07E
:10310000220F8A95EAF7209581812823218308954B
:103110009091C90190FF1FC01F928F9386ED92E09E
:103120009F938F930E941C080F900F900F900F9009
:103130000895409100015091010120E030E0FA0132
:10314000E20FF31F9281981301C012822F5F3F4F4D
:103150002E313105A1F7089581E090E0E091000162
:10316000F0910101E80FF91F10820196803291055C
:10317000A9F708959091C801982B9093C8010895DC
:1031800080959091C80198239093C801089510925A
:10319000C80108959091C701982B9093C701089595
:1031A00080959091C70198239093C701089510923C
:1031B000C70108959091C601982B9093C601089578
:1031C00080959091C60198239093C601089510921E
:1031D000C60108958093A50108951092A501089550
:1031E000409100015091010120E030E080E0FA01BF
:1031F000E20FF31F918191118F5F2F5F3F4F2F31AE
:103200003105A9F70895E0910001F0910101809145
:10321000C8018083E0910001F091010180819091CB
:10322000C701892B8083E0910001F0910101808129
:103230009091C601892B80839091A501992361F01B
:10324000E0910001F09101018081892B80830E942F
:10325000F01881111092A501809100019091010157
:103260000C94950D90933F0180933E0108958295B3
:10327000982F9C7C96959695837344E0849F90014B
:103280001124922B892F8A7A86959575990F892B0F
:1032900008956DEE7EEF80E090E00E94512D60E099
:1032A00082E090E00E943F2D60E083E090E00E9489
:1032B0003F2D60E084E090E00E943F2D60E085E0DB
:1032C00090E00C943F2D80E090E00E94392D21E0A9
:1032D0008D3E9E4F09F020E0822F089582E090E01D
:1032E0000C94312D682F82E090E00C943F2D83E008
:1032F00090E00C94312D682F83E090E00C943F2DEA
:1033000084E090E00C94312D682F84E090E00C94E0
:103310003F2D0895089508950E948A190E949D0CDA
:103320000E948B1980E00E94380D811108C081E055
:103330000E94380D91E0811103C090E001C091E03E
:10334000892F08950E94AB120E94890D0C94FA09EE
:1033500082E084BD93E095BD9AEF97BD80936E00A7
:1033600008952FB7F8948091FD019091FE01A091EE
:10337000FF01B09100022FBF08952FB7F89460911C
:10338000FD017091FE018091FF01909100022FBF1D
:103390000895CF92DF92EF92FF920F931F932FB772
:1033A000F8944091FD015091FE016091FF017091F0
:1033B00000022FBF6A017B01EE24FF248C0120E074
:1033C00030E0C016D106E206F30610F44150510970
:1033D000481B590BCA011F910F91FF90EF90DF908E
:1033E000CF90089578941F920F920FB60F921124E8
:1033F0008F939F93AF93BF938091FD019091FE01B6
:10340000A091FF01B09100020196A11DB11D809312
:10341000FD019093FE01A093FF01B0930002BF91C4
:10342000AF919F918F910F900FBE0F901F901895A5
:103430000E94E128F8942FEF87EA91E6215080401E
:103440009040E1F700C0000087E090EBDC01809342
:10345000100290931102A0931202B09313022CE079
:1034600088E190E00FB6F894A895809360000FBEB5
:1034700020936000FFCFDF92EF92FF920F931F9394
:10348000CF93DF93D12C082F10E08D2D0E94380DA3
:10349000C0E0D0E0E82EF12C97010C2E02C035954B
:1034A00027950A94E2F720FD05C02196C530D10585
:1034B00099F70AC06C2F7D2D80E00E94FD09081746
:1034C000190799F781E005C0D39482E0D812DDCFC7
:1034D00080E0DF91CF911F910F91FF90EF90DF90EF
:1034E0000895CF93C82F8CE20E943B1A882321F0C5
:1034F0008C2FCF910C943B1A80E0CF910895CF93FD
:103500000E946319811102C00E94491989E193E068
:103510000E948307C5E6C15049F00E949D0C8FE3CD
:103520009CE90197F1F700C00000F5CF82E193E03C
:103530000E94830789E20E94711A81110DC18AE2FB
:103540000E94711A81110E94491985E00E94711A26
:1035500081110E94181A0E946E198093C90187E098
:103560000E94711A882399F18BE10E94711A8823B5
:1035700051F09091C90191FB882780F921E08227C1
:1035800080FB91F922C08EE00E94711A882351F0CD
:103590009091C90192FB882780F921E0822780FB66
:1035A00092F913C080E10E94711A9091C901882399
:1035B00041F093FB882780F921E0822780FB93F973
:1035C00004C0892F809580FB90F99093C901809168
:1035D000C9010E9472190E94801990E09093020222
:1035E0008093010280EE0E94711A882341F080913D
:1035F0000102982F909590FB80F98093010289E356
:103600000E94711A882359F09091010291FB88273A
:1036100080F921E0822780FB91F99093010282EEEC
:103620000E94711A882359F09091010292FB882719
:1036300080F921E0822780FB92F99093010286EEC7
:103640000E94711A882359F09091010293FB8827F8
:1036500080F921E0822780FB93F99093010283EEA9
:103660000E94711A882359F09091010294FB8827D7
:1036700080F921E0822780FB94F99093010285E391
:103680000E94711A882359F09091010295FB8827B6
:1036900080F921E0822780FB95F99093010281E374
:1036A0000E94711A882359F09091010296FB882795
:1036B00080F921E0822780FB96F99093010281E155
:1036C0000E94711A882359F09091010297FB882774
:1036D00080F921E0822780FB97F990930102809185
:1036E00001020E94841987E20E94711AC82F8EE19C
:1036F0000E94711A8111C2608FE10E94711A8111BA
:10370000C46080E20E94711A8111C86081E20E9447
:10371000711A8111C06182E20E94711A8111C06226
:1037200083E20E94711A8111C06484E20E94711ABE
:10373000882311F0C06802C0CC2329F08C2F0E948E
:103740007B196C2F03C00E947719682F70E080E00E
:1037500090E0CF910C94B216CF9108958091CC0156
:1037600080FF0BC06091050185E0689FB0011124C6
:1037700075956795759567952AC081FF09C0609119
:10378000050185E0689FB0011124759567951FC0FC
:1037900082FF07C06091050185E0689FB001112498
:1037A00016C04091CD014423C9F060910401461731
:1037B00088F72091050185E0289F90011124429F00
:1037C000C001439F900D112470E00E94032D6038CA
:1037D000710540F46115710539F002C065E070E0D3
:1037E000862F08958FE7089581E008958091CC0198
:1037F00080FF08C06091030170E07595679575952D
:10380000679521C081FF06C06091030170E0759546
:10381000679519C082FF04C06091030170E010C079
:103820008091CD018823C1F0609102018617A0F735
:1038300090910301989FC001112470E00E94032D14
:103840006038710528F46115710521F0862F0895FF
:103850008FE7089581E0089561E070E0F4CF803F44
:1038600021F40E94AE1B819504C0813F29F40E947F
:10387000AE1B8093D0010895823F21F40E94AE1BBD
:10388000819504C0833F29F40E94AE1B8093CF0131
:103890000895893F19F40E94F61B05C08A3F31F450
:1038A0000E94F61B81958093D10108958B3F21F4EE
:1038B0000E94F61B819504C08C3F29F40E94F61BE0
:1038C0008093D2010895843F21F48091CE018160DC
:1038D00017C0853F21F48091CE01826011C0863FE0
:1038E00021F48091CE0184600BC0873F21F4809148
:1038F000CE01886005C0883F31F48091CE0180619F
:103900008093CE0108958D3F21F48091CC01816098
:103910000BC08E3F21F48091CC01826005C08F3FA7
:1039200029F48091CC0184608093CC010895803F7C
:1039300039F48091D00187FF6CC01092D00169C02A
:10394000813F29F48091D0011816BCF362C0909198
:10395000CF01823F29F497FF5CC01092CF0159C07C
:10396000833F19F41916CCF354C0893F41F4809178
:10397000D10118160CF04DC01092D1014AC08A3FF7
:1039800029F48091D10187FF44C0F6CF8B3F39F4F1
:103990008091D20187FF3DC01092D2013AC08C3F86
:1039A00029F48091D2011816BCF333C0843F21F46E
:1039B0008091CE018E7F17C0853F21F48091CE018A
:1039C0008D7F11C0863F21F48091CE018B7F0BC08B
:1039D000873F21F48091CE01877F05C0883F31F475
:1039E0008091CE018F7E8093CE0113C08D3F21F454
:1039F0008091CC018E7F0BC08E3F21F48091CC0151
:103A00008D7F05C08F3F29F48091CC018B7F8093FF
:103A1000CC018091CF0181110EC08091D001811124
:103A20000AC08091D101811106C08091D20181111B
:103A300002C01092CD0108958091C90183FF7EC01C
:103A400085E593E00E9483078091CE011F928F93BA
:103A500080E593E09F938F930E941C088EE493E08F
:103A60000E9483072091CF01822F992787FD90958F
:103A70009F932F938BE493E09F938F930E941C0856
:103A800089E493E00E9483072091D001822F992737
:103A900087FD90959F932F9386E493E09F938F9358
:103AA0000E941C0884E493E00E9483072091D101C6
:103AB000822F992787FD90959F932F9381E493E020
:103AC0009F938F930E941C088FE393E00E948307CB
:103AD0002091D201822F992787FD90959F932F9354
:103AE0008CE393E09F938F930E941C0889E393E0FB
:103AF0000E9483078091CD011F928F9386E393E00C
:103B00009F938F930E941C0884E393E00E94830795
:103B10008091CC011F928F9381E393E09F938F93C9
:103B20000E941C088EE293E00E9483078DB79EB727
:103B30004C960FB6F8949EBF0FBE8DBF8EEC91E0F1
:103B40000E94DA0D0E94B1199093CB018093CA01B3
:103B500008951F93CF93DF938091CA019091CB0179
:103B60000E94C9194091CD01442321F02091060102
:103B700030E006C0209107015AE0259F90011124F2
:103B80008217930708F482C08091CF011091D00171
:103B9000D091D101C091D201811107C0111105C08E
:103BA000D11103C0CC2309F471C04F3F19F04F5F0E
:103BB0004093CD01181624F40E94AE1B8093CF01D0
:103BC0008091CF0187FF05C00E94AE1B8195809335
:103BD000CF01111624F40E94AE1B8093D001809176
:103BE000D00187FF05C00E94AE1B81958093D00154
:103BF0006091CF01662339F11091D001112319F1A1
:103C0000772767FD7095872F972F0E94082C23E355
:103C100033E343E35FE30E946C2C0E94D52B609357
:103C2000CF01612F772767FD7095872F972F0E940F
:103C3000082C23E333E343E35FE30E946C2C0E94F0
:103C4000D52B6093D0011D1624F40E94F61B80939F
:103C5000D1018091D10187FF05C00E94F61B81959B
:103C60008093D1011C1624F40E94F61B8093D2018C
:103C70008091D20187FF05C00E94F61B8195809339
:103C8000D201DF91CF911F910C941C1DDF91CF9138
:103C90001F910895EEECF1E085E0DF011D928A9519
:103CA000E9F71092CD011092CC01089588E795E0D4
:103CB0000E9483071F9281E08F931F9285E08F936C
:103CC0008AE295E09F938F930E941C080F900F90BB
:103CD0000F900F900F900F9008958330E9F128F422
:103CE000813061F0823009F10895853009F462C0B5
:103CF00008F449C0863009F474C008952091070182
:103D0000862F90E0820F911D8F3F910520F4620F66
:103D10006093070103C08FEF809307018091070133
:103D20001F928F9383E694E072C020910601862F44
:103D300090E0820F911D8F3F910520F4620F6093F8
:103D4000060103C08FEF80930601809106011F9248
:103D50008F9381E594E05BC020910501862F90E070
:103D6000820F911D8F3F910520F4620F6093050132
:103D700003C08FEF80930501809105011F928F93FF
:103D80008EE394E044C020910401862F90E0820FDE
:103D9000911D8F3F910520F4620F6093040103C0D1
:103DA0008FEF80930401809104011F928F9389E229
:103DB00094E02DC020910301862F90E0820F911D89
:103DC0008F3F910520F4620F6093030103C08FEFD2
:103DD00080930301809103011F928F9380E194E00F
:103DE00016C020910201862F90E0820F911D8F3F17
:103DF000910520F4620F6093020103C08FEF80935E
:103E00000201809102011F928F9385EF93E09F93AF
:103E10008F930E941C080F900F900F900F900895A1
:103E2000833081F128F4813059F08230D1F0089547
:103E3000853009F449C0B8F1863009F456C00895B8
:103E400080910701681720F4861B8093070102C048
:103E500010920701809107011F928F9386EE93E0E5
:103E600054C080910601681720F4861B80930601D8
:103E700002C010920601809106011F928F9384ED7B
:103E800093E043C080910501681720F4861B80935E
:103E9000050102C010920501809105011F928F93C8
:103EA00081EC93E032C080910401681720F4861BF6
:103EB0008093040102C010920401809104011F92BA
:103EC0008F938CEA93E021C080910301681720F45E
:103ED000861B8093030102C01092030180910301AD
:103EE0001F928F9383E993E010C0809102016817BD
:103EF00020F4861B8093020102C01092020180917F
:103F000002011F928F9388E793E09F938F930E9403
:103F10001C080F900F900F900F900895CF93C82F0B
:103F20001F928F932DE736E03F932F930E941C083A
:103F300061E070E080E090E004C0660F771F881FAA
:103F4000991FCA95D2F70E94B2160F900F900F904A
:103F50000F90CF910C94AB12CF938D3109F465C0C3
:103F6000B0F58E3009F4CBC100F5873009F49BC160
:103F7000A8F4863009F06CC28091C901817F8E7FE0
:103F80008093C9018BE198E00E9483078AEE9BE051
:103F90000E94830781E08093D40180C1883009F4B6
:103FA0004FC08B3009F47CC153C2863109F4EDC196
:103FB00038F4803109F4B6C1813109F42AC248C20B
:103FC000893109F4CBC18B3109F486C141C28533F3
:103FD00009F43AC248F4873209F436C208F432C20E
:103FE000893209F431C234C2833438F48A3308F098
:103FF00027C2883309F454C12BC2833409F424C284
:10400000883409F025C20E94AB128EEC9BE00E941E
:1040100083079FEF23ED80E3915020408040E1F73C
:1040200000C000000E94181A39C189EF9BE00E946D
:1040300083070E94AC230E94890D0E94FA092EC1B9
:104040008EEE9BE00E9483078BE39BE00E94830738
:104050000E9477191F928F9388E39BE09F938F9321
:104060000E941C0886E39BE00E9483070E946E1951
:10407000C82F83E29BE00E9483071F92CF932EE11B
:104080003BE03F932F930E941C088CE19BE00E9431
:10409000830782E19BE00E9483078C2F81701F922F
:1040A0008F932FE03BE03F932F930E941C088DE0FD
:1040B0009BE00E94830783E09BE00E948307C1FB93
:1040C000882780F91F928F9320E03BE03F932F9346
:1040D0000E941C088EEF9AE00E94830782EF9AE00C
:1040E0000E948307C2FB882780F91F928F932FEECF
:1040F0003AE03F932F930E941C088DEE9AE00E94B5
:10410000830784EE9AE00E948307C3FBCC27C0F9A3
:104110001F92CF9381EE9AE09F938F930E941C0889
:104120008FED9AE00E9483070E948019C82F8BECC4
:104130009AE00E9483071F92CF9326EC3AE03F93C8
:104140002F930E941C0884EC9AE00E9483078BEA5C
:104150009AE00E9483078C2F81701F928F9328EA28
:104160003AE03F932F930E941C088DB79EB780962C
:104170000FB6F8949EBF0FBE8DBF86EA9AE00E94EC
:1041800083078FE89AE00E948307C1FB882780F9A4
:104190001F928F932CE83AE03F932F930E941C08C4
:1041A0008AE89AE00E94830788E79AE00E948307E2
:1041B000C2FB882780F91F928F9325E73AE03F934F
:1041C0002F930E941C0883E79AE00E94830781E6F0
:1041D0009AE00E948307C3FB882780F91F928F9380
:1041E0002EE53AE03F932F930E941C088CE59AE05D
:1041F0000E94830782E59AE00E948307C4FB882718
:1042000080F91F928F932FE43AE03F932F930E94FF
:104210001C088DE49AE00E9483078BE39AE00E94D9
:104220008307C5FB882780F91F928F9328E33AE024
:104230003F932F930E941C0886E39AE00E94830715
:104240008AE19AE00E948307C6FB882780F91F92C3
:104250008F9327E13AE03F932F930E941C0885E15A
:104260009AE00E9483078DE09AE00E948307C7FBD3
:10427000CC27C0F91F92CF938AE09AE09F938F9347
:104280000E941C0888E09AE00E9483078DB79EB7C1
:104290004C960FB6F8949EBF0FBE8DBFC1E0DDC037
:1042A00082E498E058C08091C901C82FC095C170C0
:1042B000C0FB80F98093C901CC2319F082EC9BE00C
:1042C000B9C085EB9BE00E9483078091C901897F7B
:1042D000877F8093C901E2CF8091C90181FBCC2700
:1042E000C0F991E0C927C0FB81F98093C901CC23B3
:1042F00019F088EA9BE025C08AE99BE02CC08091F8
:10430000C90182FBCC27C0F991E0C927C0FB82F923
:104310008093C901CC2319F08BE89BE012C08BE796
:104320009BE019C08091C90183FBCC27C0F991E0C3
:10433000C927C0FB83F98093C901CC2351F08FE6D4
:104340009BE00E9483078091C90181608093C9012D
:1043500084C082E69BE00E948307A0CF8CE098E0B7
:104360000E94830789EE97E00E9483078DEA97E019
:104370000E94830783E797E00E9483078EE297E01D
:104380000E94830783E097E0E6CF85EF96E00E94E6
:1043900083070E94890D1F928F938BED96E09F9368
:1043A0008F930E941C08809112011F928F9384ECBE
:1043B00096E09F938F930E941C088091FB011F92AF
:1043C0008F9381EB96E09F938F930E941C088091BE
:1043D000010287FB882780F91F928F9389E996E075
:1043E0009F938F930E941C080E94BD199F938F93E7
:1043F0007F936F9382E896E09F938F930E941C08AF
:104400008DB79EB746960FB6F8949EBF0FBE8DBF70
:1044100045CF0E94AB128091010287FBCC27C0F9E7
:1044200091E0C927C0FB87F980930102CC2329F0D2
:1044300088E59BE00E94830710C08DE49BE08BCF52
:10444000895303C08D5101C080E00E948E1F26CF8A
:104450008BE49BE00E948307C0E08C2FCF910895EE
:1044600080E0089580E008958E518A3030F4E82F7E
:10447000F0E0E65EFE4F8081089580E00895CF93DE
:10448000C82F8091D401813071F020F0823009F47E
:1044900048C03CC1E0910001F0910101808183306E
:1044A00009F036C107C0E0910001F091010180815F
:1044B000833049F48C2F0E94302281112FC08C2F21
:1044C0000E94AC1F2CC08C2F0E943222811126C06A
:1044D000C431E1F070F4CB3081F0C031D1F40E94EE
:1044E000561E85E796E00E94830782E08093D40100
:1044F00015C0C93259F0C83361F48BE198E00E94CD
:10450000830789E796E00E94830708C01092D401D0
:1045100001C183E796E00E948307FCC081E08170BF
:10452000FBC0C43228F5CE3108F0C1C0CB30A1F1B8
:10453000D0F4C73009F0D0C08EE18093070182E348
:10454000809306018AE08093050184E18093040151
:1045500088E08093030188E28093020189E195E07D
:104560000E948307BCC0C33149F1C431C1F0B4C05B
:10457000CB3409F4A6C028F4C93289F0C83361F0FD
:10458000ABC0C13509F49BC0C23509F496C0CE3426
:1045900009F0A2C06AE09BC00E94561EA0C0809194
:1045A000D301882319F01092D30199C086E295E0D7
:1045B0000E94830781E08093D401AEC080E095E043
:1045C0000E9483078EEE94E00E948307809107018A
:1045D0001F928F938BEE94E09F938F930E941C0801
:1045E00089EE94E00E94830787ED94E00E948307A0
:1045F000809106011F928F9384ED94E09F938F9397
:104600000E941C0882ED94E00E94830783EC94E0F2
:104610000E948307809105011F928F9380EC94E0A4
:104620009F938F930E941C088EEB94E00E94830757
:104630008DEA94E00E948307809104011F928F937A
:104640008AEA94E09F938F930E941C0888EA94E082
:104650000E94830783E994E00E948307809103010D
:104660001F928F9380E994E09F938F930E941C0880
:104670008EE894E00E94830787E794E00E94830716
:10468000809102011F928F9384E794E09F938F9310
:104690000E941C0882E794E00E9483078DB79EB7B2
:1046A00048960FB6F8949EBF0FBE8DBF18C08C2FD2
:1046B0000E9434228093D30112C061E003C061E004
:1046C00006C06AE08091D3010E946D1E08C08091EF
:1046D000D3010E94101F03C087E195E013C08091B1
:1046E000D301882369F01F928F9381E195E09F9316
:1046F0008F930E941C080F900F900F900F9004C092
:104700008EE095E00E94830781E006C01092D401FC
:1047100080E002C080E003CFCF910895E1E8F0E0AF
:104720008081886080838081816080838FB7F894E6
:1047300093E09093890090ED909388008FBF089547
:10474000EFE6F0E08081826080830895EFE6F0E09C
:1047500080818D7F80830895EFE6F0E0808192E094
:104760008927808308951F920F920FB60F9211240C
:104770002F933F934F935F936F937F938F939F9369
:10478000AF93BF93EF93FF938091D5019091D601A2
:1047900001969093D6018093D501811103C082E0E8
:1047A0000E94FA09E091D601E695E695F0E0E75F10
:1047B000F34FE4918091D5018E1303C080E00E94F5
:1047C000FA09FF91EF91BF91AF919F918F917F91E6
:1047D0006F915F914F913F912F910F900FBE0F906E
:1047E0001F9018958091FA0108959FB7F894109240
:1047F000D9019FBF90910702943009F058C0909161
:10480000E9009F702091EC0020FF02C020E801C069
:1048100020E0292B94E09093E9009091EB0090FF29
:1048200043C09091EE0097FF3FC09091D70199232C
:1048300021F09091E80095FF37C01092D70196E0E3
:104840003091E80035FD15C030910702343061F534
:104850003091EB0035FD28C0915021F481E0809328
:10486000D70122C0EFE9FFE03197F1F700C0000067
:10487000E7CF8093F1008091E80085FD0AC0809128
:10488000E80080FFFCCF8091E8008E778093E800FD
:1048900006C08FB7F89491E09093D9018FBF2F7025
:1048A0002093E90080E008952F702093E9008FEFB6
:1048B00008950F931F93CF93DF9300D01F92CDB72E
:1048C000DEB78C010E943227823011F0843019F556
:1048D00083E089831B830A838093E9008FEF9091A3
:1048E000E800815095FD06C095ED9A95F1F700001E
:1048F0008111F5CF8091E80085FF0DC040E050E0C8
:1049000063E070E0CE0101960E944F278091E8009D
:104910008E778093E8000F900F900F90DF91CF91EA
:104920001F910F910895CF93DF9300D01F92CDB7C1
:10493000DEB720910702243031F522E02983805828
:1049400091099B838A8383E08093E9008FEF9091A4
:10495000E800815095FD06C095ED9A95F1F70000AD
:104960008111F5CF8091E80085FF0DC040E050E057
:1049700063E070E0CE0101960E944F278091E8002D
:104980008E778093E8000F900F900F90DF91CF917A
:104990000895CF93DF93EC010E943227823011F00B
:1049A0008430F9F482E08093E9008FEF9091E80081
:1049B000815095FD06C095ED9A95F1F700008111A3
:1049C000F5CF8091E80085FF0CC040E050E065E045
:1049D00070E0CE010E944F278091E8008E7780938F
:1049E000E800DF91CF910895CF93DF93EC010E940F
:1049F0003227823019F0843009F047C080911201CB
:104A00008823E1F08091010287FF18C085E0809340
:104A1000E9008FEF9091E800815095FD06C095E187
:104A20009A95F1F700008111F5CF8091E80085FF9C
:104A30002CC040E050E060E270E017C081E080935D
:104A4000E9008FEF9091E800815095FD06C095ED4B
:104A50009A95F1F700008111F5CF8091E80085FF6C
:104A600014C040E050E068E070E0CE010E944F27A3
:104A70008091E8008E778093E80080E2FE01AAED45
:104A8000B1E001900D928A95E1F7DF91CF91089501
:104A90008EE69CE00E94830780910602811109C086
:104AA0000E94E1280E943E298091E2008460809368
:104AB000E20008958AE69CE00E94830710920602B5
:104AC000089586E69CE00C94830782E69CE00E94B1
:104AD00083070C94A0238EE59CE00E9483070E942C
:104AE000A2190E94A6230E94890D0C94FA098091B4
:104AF000D8018F5F8093D80162E30E94F72C911157
:104B000035C01092D8018091D901882379F1809124
:104B10000702843049F58091E9008F709091EC0094
:104B200090FF02C090E801C090E0982B84E0809351
:104B3000E9008091EB0080FF14C08091EE0087FFB8
:104B400010C08091E80085FF03C01092F100F9CFFA
:104B50008091E80080FF05C08091E8008E77809307
:104B6000E8009F709093E9001092D901089542E007
:104B700061EC81E00E945B2842E061EC82E00E94EF
:104B80005B2842E061EC83E00E945B2842E261EC3A
:104B900084E00E945B2842E261EC85E00C945B2893
:104BA00080910902833009F455C030F4813071F0EE
:104BB000823009F48EC008958A3009F47AC08B30AF
:104BC00009F460C0893009F09CC020C080910802BF
:104BD000813A09F096C08091E800877F8093E800D1
:104BE00080910C0290910D02892B21F060E080E011
:104BF00090E003C060E28AED91E070E00E949827A7
:104C00008091E8008B778093E800089580910802F6
:104C1000813209F076C080910C0290910D020097CC
:104C200019F0049709F06DC08091E800877F8093A8
:104C3000E8008091E80082FD05C0809107028111A3
:104C4000F8CF5FC08091F1008093FA018091E80075
:104C50008B7753C080910802813A09F052C080914D
:104C60000C0290910D02892B09F04BC08091E80055
:104C7000877F8093E8008091E80080FFFCCF8091DF
:104C8000120136C0809108028132D9F580910C0260
:104C900090910D02892BA9F58091E800877F809380
:104CA000E8000E94902880910A02809312010C94DF
:104CB000AB1280910802813221F58091E800877F54
:104CC0008093E8000E94902880910B028093FB0162
:104CD000089580910802813AA1F48091E800877FCD
:104CE0008093E8008091E80080FFFCCF8091FB0179
:104CF0008093F1008091E8008E778093E8000C9417
:104D00009028089584B7877F84BF88E10FB6F89410
:104D100080936000109260000FBE80E88093610075
:104D2000109261000E94120E0E94E1280E943E290A
:104D30008091E20084608093E20085EF93E20E941C
:104D4000321978940E94B82B0E94140E88E091E0EA
:104D50000E94840D0E948E238DE49CE00E948307B4
:104D600080910702853089F489E49CE00E948307E2
:104D70000E94891980910502882391F30E948C1961
:104D8000882371F30E943927EBCF0E94420EE8CFAF
:104D9000292F332723303105A9F06CF42130310558
:104DA00009F442C02230310509F043C08DE890E09B
:104DB00024EA3CE042C021323105C9F022323105FB
:104DC00019F137C099278130910541F08230910562
:104DD00041F0892B71F5E0EAFCE005C0EEE8FCE06B
:104DE00002C0E2E7FCE0849190E09F0126C06530BC
:104DF00000F5E62FF0E0EE0FFF1FED5CFE4F208187
:104E0000318189E090E019C0653098F4E62FF0E038
:104E1000DF01AA0FBB1FA75DBE4F2D913C91EC5D3A
:104E2000FE4F808190E009C082E190E021E33DE007
:104E300004C080E090E020E030E0FA01318320837C
:104E400008950895CF93C82F0E942127C093FC0195
:104E5000CF91089580910702843011F482E0089583
:104E600081E008958091FC01811102C00C942A27F1
:104E7000089580E189BD82E189BD09B400FEFDCFBE
:104E80008091D8008F7D8093D8008091E00082606F
:104E90008093E0008091E00081FDFCCF0895CF92E7
:104EA000DF92EF92FF920F931F93CF93DF937C01DA
:104EB0008B01EA010E94B128811131C0209731F0A5
:104EC00088819981081B190BE80EF91EC12CD12C81
:104ED0000115110519F18091E80085FD14C080913C
:104EE000E8008E778093E800209741F088819981CF
:104EF0008C0D9D1D9983888385E011C00E94B12887
:104F0000882331F30CC0F70181917F018093F10078
:104F100001501109FFEFCF1ADF0ADACF80E0DF91ED
:104F2000CF911F910F91FF90EF90DF90CF90089558
:104F300020910E0230910F022617370748F06115B5
:104F4000710539F42091E8002E772093E80001C024
:104F5000B901FC0120E061157105B9F180910702EA
:104F6000882309F440C0853009F43FC08091E800EF
:104F700083FD3DC08091E80082FF06C08091E8007B
:104F800082FF26C080E008958091E80080FFE3CF93
:104F90002091F3008091F20090E0922B6115710551
:104FA00051F08830910538F421912093F10061503F
:104FB00071090196F3CF21E0089709F020E0809174
:104FC000E8008E778093E800C6CF2111C7CFD6CFF7
:104FD00080910702882339F0853039F08091E8000C
:104FE00083FFCCCF04C082E0089583E0089581E080
:104FF000089520910E0230910F022617370748F0CE
:105000006115710539F42091E8002E772093E800AE
:1050100001C0B901FC0120E061157105C1F1809169
:105020000702882309F441C0853009F440C080910B
:10503000E80083FD3EC08091E80082FF06C08091B9
:10504000E80082FF27C080E008958091E80080FF9B
:10505000E3CF2091F3008091F20090E0922B611554
:10506000710559F08830910540F424912093F100A6
:105070003196615071090196F2CF21E0089709F04D
:1050800020E08091E8008E778093E800C5CF211161
:10509000C6CFD5CF80910702882339F0853039F00B
:1050A0008091E80083FFCBCF04C082E0089583E0C5
:1050B000089581E00895982F973058F59093E9006E
:1050C000981739F07091EC002091ED005091F000AC
:1050D00003C0242F762F50E021FF19C03091EB0040
:1050E0003E7F3093EB003091ED003D7F3093ED003B
:1050F0003091EB0031603093EB007093EC00209323
:10510000ED005093F0002091EE0027FF07C09F5F55
:10511000D3CF8F708093E90081E0089580E00895F7
:105120008091080287FD05C08091E80080FF0EC0D5
:1051300012C08091E80082FD05C0809107028111B4
:10514000F8CF08958091E8008B7708C0809107021E
:105150008111EACF08958091E8008E778093E8006E
:1051600008958091E4009091E50045E62091EC00DF
:1051700020FF21C02091E80020FD21C020910702DE
:10518000222389F0253089F02091EB0025FD0FC006
:105190002091E4003091E5002817390739F3415098
:1051A00041F0C901E3CF82E0089583E0089581E0F2
:1051B000089584E008952091E80022FFDFCF80E089
:1051C00008950E944F290E945729E0EEF0E0808167
:1051D00081608083E8EDF0E080818F77808319BC67
:1051E000A7EDB0E08C918E7F8C9380818F7E808341
:1051F0001092060208950F931F93CF93DF930E949E
:105200004F290E945729C8EDD0E088818F77888385
:1052100088818068888388818F7D888319BC1092FB
:10522000070210920302109205021092040200EE8F
:1052300010E0F80180818B7F808388818160888382
:1052400042E060E080E00E945B28E1EEF0E08081D7
:105250008E7F8083E2EEF0E08081816080838081B8
:1052600088608083F80180818E7F8083888180615F
:105270008883DF91CF911F910F910895E8EDF0E0C1
:1052800080818F7E8083E7EDF0E080818160808384
:1052900084E082BF81E0809306020C94FB28E8ED55
:1052A000F0E080818E7F80831092E200089510925A
:1052B000DA001092E10008951F920F920FB60F923C
:1052C00011242F933F934F935F936F937F938F930B
:1052D0009F93AF93BF93EF93FF938091E10082FF81
:1052E0000BC08091E20082FF07C08091E1008B7FBC
:1052F0008093E1000E9477258091DA0080FF1FC033
:105300008091D80080FF1BC08091DA008E7F80934F
:10531000DA008091D90080FF0DC080E189BD82E173
:1053200089BD09B400FEFDCF81E0809307020E9491
:10533000482505C019BC109207020E945A25809189
:10534000E10080FF19C08091E20080FF15C08091CC
:10535000E2008E7F8093E2008091E2008061809382
:10536000E2008091D80080628093D80019BC85E06B
:10537000809307020E9465258091E10084FF30C080
:105380008091E20084FF2CC080E189BD82E189BD6B
:1053900009B400FEFDCF8091D8008F7D8093D800A6
:1053A0008091E1008F7E8093E1008091E2008F7E0A
:1053B0008093E2008091E20081608093E20080911E
:1053C0000302882311F084E007C08091E30087FF87
:1053D00002C083E001C081E0809307020E946B2538
:1053E0008091E10083FF29C08091E20083FF25C006
:1053F0008091E100877F8093E10082E08093070243
:10540000109203028091E1008E7F8093E1008091F1
:10541000E2008E7F8093E2008091E20080618093C1
:10542000E20042E060E080E00E945B288091F000B2
:1054300088608093F0000E946125FF91EF91BF91F9
:10544000AF919F918F917F916F915F914F913F911C
:105450002F910F900FBE0F901F9018951F920F92D3
:105460000FB60F9211242F933F934F935F936F9337
:105470007F938F939F93AF93BF93CF93EF93FF93BC
:10548000C091E900CF708091EC001092E90080910A
:10549000F000877F8093F00078940E946A2A10922F
:1054A000E9008091F00088608093F000C093E900EB
:1054B000FF91EF91CF91BF91AF919F918F917F918C
:1054C0006F915F914F913F912F910F900FBE0F9071
:1054D0001F9018951F93CF93DF93CDB7DEB7AA9790
:1054E0000FB6F894DEBF0FBECDBFE8E0F2E08091CA
:1054F000F100819322E0E031F207C9F70E94D02544
:105500008091E80083FF1CC12091080230910902BC
:10551000832F90E08A30910508F012C1FC01E35519
:10552000FF4F0C94172D203881F0223809F008C164
:1055300080910C028F708093E9008091EB0085FBD5
:10554000882780F91092E90006C0809104029091AA
:105550000502911182609091E800977F9093E80096
:105560008093F1001092F100C5C0822F8D7F09F069
:10557000E7C0222319F0223061F0E2C080910A02D4
:10558000813009F0DDC0333009F080E080930502FE
:1055900028C080910A02811124C020910C022F7032
:1055A00009F4CEC02093E9008091EB0080FF19C080
:1055B0008091EB00333011F4806211C080618093E0
:1055C000EB0081E090E0022E01C0880F0A94EAF718
:1055D0008093EA001092EA008091EB00886080934B
:1055E000EB001092E9008091E800877F86C02111CE
:1055F000A7C010910A021F778091E3008078812B69
:105600008093E3008091E800877F8093E8000E9408
:1056100090288091E80080FFFCCF8091E3008068B3
:105620008093E300112311F083E001C082E08093B6
:10563000070286C02058223008F082C080910A02FA
:1056400090910B028C3D23E0920779F583E08A83E9
:105650008AE289834FB7F894DE01139620E03EE09A
:1056600051E2E32FF0E050935700E49120FF03C094
:10567000E295EF703F5FEF708E2F90E0EA3010F010
:10568000C79601C0C0968D939D932F5F243149F733
:105690004FBF8091E800877F8093E8006AE270E066
:1056A000CE0101960E94982714C0AE014F5F5F4F54
:1056B00060910C020E94C826009709F441C0209115
:1056C000E800277F2093E800BC0189819A810E942D
:1056D000F9278091E8008B778093E80031C020386B
:1056E00079F58091E800877F8093E800809103023C
:1056F0008093F1008091E8008E778093E8000E940B
:1057000090281EC021111CC090910A029230C0F452
:105710008091E800877F8093E800909303020E94C5
:10572000902880910302811104C08091E30087FFDB
:1057300002C084E001C081E0809307020E94B72587
:105740008091E80083FF0AC08091E800877F809302
:10575000E8008091EB0080628093EB00AA960FB680
:10576000F894DEBF0FBECDBFDF91CF911F9108959A
:10577000CF93809107028823B1F08091E9008F7068
:105780009091EC0090FF02C090E801C090E0C92F1A
:10579000C82B1092E9008091E80083FD0E946A2ADC
:1057A000CF70C093E900CF91089504D06894B111EF
:1057B0008DC0089570D088F09F5790F0B92F992729
:1057C000B751A0F0D1F0660F771F881F991F1AF00C
:1057D000BA95C9F712C0B13081F077D0B1E0089521
:1057E00074C0672F782F8827B85F39F0B93FCCF3A2
:1057F000869577956795B395D9F73EF49095809502
:10580000709561957F4F8F4F9F4F0895E89409C021
:1058100097FB3EF490958095709561957F4F8F4FE3
:105820009F4F9923A9F0F92F96E9BB279395F695F9
:10583000879577956795B795F111F8CFFAF4BB0F77
:1058400011F460FF1BC06F5F7F4F8F4F9F4F16C0DB
:10585000882311F096E911C0772321F09EE8872F65
:10586000762F05C0662371F096E8862F70E060E021
:105870002AF09A95660F771F881FDAF7880F96959A
:10588000879597F9089557FD9058440F551F59F083
:105890005F3F71F04795880F97FB991F61F09F3F1D
:1058A00079F087950895121613061406551FF2CF46
:1058B0004695F1DF08C0161617061806991FF1CF96
:1058C00086957105610508940895E894BB276627BD
:1058D0007727CB0197F908950BD078C069D028F0CD
:1058E0006ED018F0952309F05AC05FC01124EECF96
:1058F000CADFA0F3959FD1F3950F50E0551F629F2B
:10590000F001729FBB27F00DB11D639FAA27F00D18
:10591000B11DAA1F649F6627B00DA11D661F829F3F
:105920002227B00DA11D621F739FB00DA11D621F24
:10593000839FA00D611D221F749F3327A00D611D41
:10594000231F849F600D211D822F762F6A2F112423
:105950009F5750408AF0E1F088234AF0EE0FFF1F76
:10596000BB1F661F771F881F91505040A9F79E3FAD
:10597000510570F014C0AACF5F3FECF3983EDCF302
:10598000869577956795B795F795E7959F5FC1F7EA
:10599000FE2B880F911D9695879597F9089597F995
:1059A0009F6780E870E060E008959FEF80EC0895C5
:1059B00000240A94161617061806090608950024EE
:1059C0000A9412161306140605060895092E039468
:1059D000000C11F4882352F0BB0F40F4BF2B11F4DC
:1059E00060FF04C06F5F7F4F8F4F9F4F0895991BDB
:1059F00079E004C0991F961708F0961B881F7A95C6
:105A0000C9F78095089597FB072E16F4009407D0E8
:105A100077FD09D00E941D2D07FC05D03EF490951E
:105A200081959F4F0895709561957F4F0895EE0F72
:105A3000FF1F0590F491E02D0994AA1BBB1B51E1B7
:105A400007C0AA1FBB1FA617B70710F0A61BB70BEE
:105A5000881F991F5A95A9F780959095BC01CD0193
:105A60000895F999FECF92BD81BDF89A992780B526
:105A70000895A8E1B0E042E050E00C94592D262FA3
:105A8000F999FECF92BD81BDF89A019700B4021634
:105A900039F01FBA20BD0FB6F894FA9AF99A0FBEE2
:105AA00008950196272F0E94402D0C943F2DDC0174
:105AB000CB01FC01F999FECF06C0F2BDE1BDF89A19
:105AC000319600B40D9241505040B8F70895F894C3
:025AD000FFCF06
:105AD200A6012808140A321EF223F424C9249324AE
