:100000000C9466010C94AA010C94AA010C94AA0108
:100010000C94AA010C94AA010C94AA010C94AA01B4
:100020000C94AA010C94AA010C9408180C94DA18E8
:100030000C94DD110C94AA010C94AA010C94AA0151
:100040000C94AA010C94AA010C94AA010C94AA0184
:100050000C94AA010C9444120C94AA010C94AA01C9
:100060000C94AA010C94AA010C94AA010C94AA0164
:100070000C94AA010C94AA010C94AA010C94AA0154
:100080000C94AA010C94AA010C94AA010C94AA0144
:100090000C94AA010C94AA010C94AA010C94AA0134
:1000A0000C94AA010C94AA010C94AA011A02200231
:1000B000240227022B022F02330237023C024002A5
:1000C000440248024B024F02530257025B02600295
:1000D000DF08DF08120912095209910A910A910AF0
:1000E0007409910A1B0A1B0A840A910A910A8C0A54
:1000F000280A280A280A280A280A280A280A280A70
:10010000280A280A280A280A280A280A280A280A5F
:10011000380A480A4F0A560A600A0D0B0D0B200BCD
:10012000200B160B200B200B200B0D0B0D0B1C0BAB
:10013000200B200B1C0B3F1961194C1A61194C1A2A
:10014000A319C6194C1A1B1A2E1A01E10126022600
:100150000127022702E101500250002CA114001ACD
:100160000008001500170000201600070009000A0B
:100170000027001E001F0020002100220023002471
:1001800000250000301A036D006100630072006FEB
:10019000007000610064005F0032007800350000EC
:1001A0000010034C0065006A0062006F007500617A
:1001B0000000000403090409025400030100A0FA2E
:1001C00009040000010301010009211101000122BD
:1001D00040000705810308000A090401000103002B
:1001E00000000921110100012236000705820308E1
:1001F000000A0904020001030000000921110100A6
:1002000001223900070583032000011201100100BB
:10021000000008EDFE606001000102000105010917
:1002200006A101050719E029E715002501950875C4
:1002300001810205081901290595057501910295AD
:1002400001750391010507190029F715002501958E
:10025000F875018102C005010980A101850216011E
:10026000002603001A81002A830075109501810081
:10027000C0050C0901A1018503160100269C021A84
:1002800001002A9C02751095018100C00501090634
:10029000A101050719E029E7150025019508750159
:1002A0008102950175088101050819012905950547
:1002B000750191029501750391010507190029FF48
:1002C000150026FF00950675088100C011241FBE89
:1002D000CFEFDAE0DEBFCDBF04B603FE24C08091CD
:1002E000E4019091E501A091E601B091E70187302A
:1002F000904BA740B04BB9F41092E4011092E50185
:100300001092E6011092E70114BE84B7877F84BF84
:1003100088E10FB6F89480936000109260000FBEE1
:10032000E0E0F8E3099511E0A0E0B1E0E0E8F5E3F2
:1003300002C005900D92A432B107D9F711E0A4E2F2
:10034000B1E001C01D92A43EB107E1F70E943C1547
:100350000C94BE1A0C9400000C94C0010C94C101C2
:100360000C94C2010C94C401611104C0FC0182818F
:10037000811103C080E090E008958AE491E008953F
:100380000895089581E00895089581E008950E94F8
:10039000FB0A2FEF84E39CE0215080409040E1F77E
:1003A00000C000000C946A120F931F93CF93DF9349
:1003B0008C01FC01C081D181CE010E94E70FBE01FA
:1003C0000E941003EC01B8010E94B001882309F4D7
:1003D0001AC1B801CE010E943305882309F413C164
:1003E000C531FCE5DF0708F0A3C0C2308CE5D807B3
:1003F00008F478C0F8018281882309F47FC00E9444
:100400007A11811102C00E9460110E948D1190E04A
:100410009093D6018093D501FE01E350FC45E23173
:10042000F10520F4EA5AFF4F0C94821A8091D5010D
:10043000816003C08091D50182608093D5014BC05B
:100440008091D5018460F9CF8091D50113C080914E
:10045000D5018061F2CF8091D5018062EECF80918D
:10046000D5018064EACF8091D5018068E6CF809184
:10047000D50184608860E1CF8091D5018E7FDDCF8A
:100480008091D5018D7FD9CF8091D5018B7FD5CF3C
:100490008091D50113C08091D5018F7ECECF809100
:1004A000D5018F7DCACF8091D5018F7BC6CF80913A
:1004B000D5018F77C2CF8091D5018B7F877FBDCF4C
:1004C0009091D50197FB882780F921E0822780FB56
:1004D00097F99093D5018091D5010E9491110E94C6
:1004E000FB0A91C0C115ECE5DE0779F0C130DC45AF
:1004F000A1F081E08093260180932701C801DF915C
:10050000CF911F910F910C94C501F801828188232E
:1005100009F479C00E94C70176C0F801828188235E
:1005200009F471C08091AB0181608093AB016BC015
:10053000CD338CE5D80739F5F8018281882361F045
:10054000109227010E940F1290932501809324019D
:1005500080E20E94940857C08091270181110FC04A
:1005600080912401909125010E941B12883C9105E5
:1005700030F487E20E94720787E20E94450880E219
:100580000E949B0840C0CE33ECE5DE0738F5CC3343
:10059000DC4509F0AECFF8018281882351F010923A
:1005A00026010E940F12909325018093240182E07E
:1005B000D0CF8091260181110FC0809124019091AC
:1005C00025010E941B12883C910530F486E20E94AE
:1005D000720786E20E94450882E0D2CFC0348CE5E3
:1005E000D80731F4F8018281882369F080E009C0DE
:1005F000C134DC4509F07DCFF8018281882319F0F0
:1006000082E00E94CE1580E0DF91CF911F910F9183
:1006100008950C94AC010C94AE010C94B2010895B1
:1006200095E0799FF00111249AE0899FE00DF11D7A
:100630001124E60FF11DEE0FFF1FE35AFE4F8591C7
:1006400094910895880F991F855A9E4FFC018591BA
:10065000949108950E9410030E94B604811520E42D
:100660009207B0F5811540E3940708F0DBC0803EA7
:100670009105D8F4803C910508F069C0883A91054D
:1006800078F4853A910508F065C08130910509F448
:100690006CC108F423C18430910508F066C11EC105
:1006A0008D3B910508F461C019C18F3F910509F098
:1006B00048F4803F910508F0AFC0883E910508F4EA
:1006C00054C10CC1811520E2920708F0A7C008951B
:1006D000811544E59407D8F4811523E5920708F0C5
:1006E000DCC0811541E5940740F4811520E59207AF
:1006F00008F0A2C09F70906A0895811542E59407A2
:1007000008F0B6C0982F8827816F906A08958115E8
:1007100026E5920750F4811545E5940708F0D2C00C
:10072000982F8827846F906A0895811528E592078D
:1007300008F4D4C0811549E5940708F4C8C09C01A9
:1007400030562115304208F0C9C09F71C5C0805C89
:10075000910965C0853A910509F4C3C0863A9105AF
:1007600009F4C2C083E890E40895883A910509F439
:10077000BEC0893A910509F4BDC08A3A910509F4D1
:10078000BCC08B3A910509F4BBC08C3A910509F4C1
:10079000BAC08B3B910509F4B9C08C3B910509F4B3
:1007A000B8C08D3A910509F4B7C0803B910509F4B2
:1007B000B6C08E3A910509F4B5C08F3A910509F497
:1007C000B4C0813B910509F4B3C0823B910509F4A3
:1007D000B2C0833B910509F4B1C0843B910509F493
:1007E000B0C0853B910509F4AFC0863B910509F483
:1007F000AEC0873B910509F4ADC0883B910509F473
:10080000ACC0893B910509F4ABC08A3B910509F066
:10081000AAC08AE296E40895906508959F700E94A8
:10082000220308959C01332793FF03C0C901986CEC
:100830000895C901906C0895482F437021E030E07D
:1008400002C0220F331F4A95E2F73C68AC0174E006
:10085000569547957A95E1F74370342B8F708695BE
:10086000869540E2849FC0011124822B932B08952A
:10087000282F2695269540E2249F90011124AC0153
:100880004370552781E090E002C0880F991F4A9578
:10089000E2F7822B932B9C680895282F26952695A6
:1008A00040E2249F90011124AC014370552781E060
:1008B00090E002C0880F991F4A95E2F7822B932B94
:1008C0009A6808958F719927982F882705C0982FC7
:1008D0008827806F906A08959062089580E090E084
:1008E000089581E890E4089582E890E4089582EE06
:1008F00094E4089589EE94E408958AEE94E40895CA
:1009000085EB94E4089586EB94E4089583EB94E4F6
:10091000089584EB94E4089587EB94E408958CECB7
:1009200094E408958DEC94E4089583E895E40895A3
:100930008AE895E4089582E995E4089584E995E4C8
:10094000089581E296E4089583E296E4089584E2AE
:1009500096E4089585E296E4089586E296E4089583
:1009600087E296E4089580E094E408958238910542
:1009700049F1B0F48133910509F459C048F4893242
:10098000910509F44FC08A32910509F455C00895C4
:100990008533910509F441C08933910599F0089593
:1009A000833E910531F138F4803E910591F0823E0D
:1009B0009105A9F00895863E910501F1873E9105C4
:1009C00039F108952091D50120FD3BC021FD39C0AA
:1009D00008958091D50180FF34C089E341C08091A2
:1009E000D50182FF32C08091D50184FF2CC080E008
:1009F00037C08091D50182FD28C0F5CF8091D50107
:100A000083FF25C08091D50184FDF1CF87EE28C0FA
:100A10008091D50183FD1BC0F5CF8091D50185FF65
:100A200018C019C08091D50185FF15C012C08091F2
:100A3000D50186FF12C013C08091D50186FF0FC07B
:100A40000CC080EE0DC083EE0BC082EE09C086EEB6
:100A500007C085E305C089E203C081E301C08AE2E3
:100A600090E008950895CF93DF93EC01FB0182811C
:100A7000811102C081E040C080913501811125C003
:100A8000C531DC45B9F70E94320581E0809335011C
:100A90000E940F1290933401809333011092280129
:100AA00010922A011092290110922C0110922B0110
:100AB00010922E0110922D011092300110922F01F0
:100AC000109232011092310116C080913301909141
:100AD00034010E941B12883C910560F68091280128
:100AE000E82FF0E0EE0FFF1FE75DFE4FD183C083DC
:100AF0008F5F8093280180E0DF91CF91089585B7C3
:100B0000806885BF85B7806885BF23982B9A269813
:100B10002E9AADE0B1E021E030E08D91E82FE29532
:100B2000EF70F0E041A18F70B90102C0660F771F2E
:100B30008A95E2F7CB01962F9095492341A392A184
:100B4000982B92A371E0A231B70739F710923801C0
:100B50001092360110923901109237010C9409035A
:100B60006F927F929F92AF92BF92CF92DF92EF925D
:100B7000FF920F931F93CF93DF9302E111E0C6E33F
:100B8000D1E0EE24E394F12CBB24B394AE01988021
:100B90001882D8012D918D01E22FE295EF70F0E0DF
:100BA00081A12F70B70102C0660F771F2A95E2F767
:100BB0009B01862B81A382A1A62EA0948A2182A3C9
:100BC00070EA7A95F1F76DE0662E61E0762E80E0AE
:100BD00090E0D3017D913D01C72EC2943FE0C32236
:100BE000D12CD6019096DC90C8807F70D70102C0CE
:100BF000AA0FBB1F7A95E2F7DA2239F46E2D082E80
:100C000001C0660F0A94EAF701C060E06C296883AE
:100C1000019685309105E9F681A18A2181A382A1FF
:100C2000822B82A32196FA018081981641F0B0921E
:100C30003A010E940F1290933C0180933B01F1E036
:100C400004311F0709F0A2CF80913A01882391F067
:100C500080913B0190913C010E941B12069750F03D
:100C6000809136018093380180913701809339015A
:100C700010923A010E940B0381E0DF91CF911F9106
:100C80000F91FF90EF90DF90CF90BF90AF909F902B
:100C90007F906F900895E82FF0E0E85CFE4F808130
:100CA0000895089590934201809341010895E09141
:100CB0004101F0914201309721F00190F081E02D47
:100CC000099480E00895E0914101F091420130974C
:100CD00021F00280F381E02D0994089520913F01D5
:100CE000309140018217930771F0909340018093F7
:100CF0003F01E0914101F0914201309721F00680DF
:100D0000F781E02D0994089520913D0130913E0135
:100D10008217930771F090933E0180933D01E0911B
:100D20004101F0914201309721F00084F185E02DDE
:100D30000994089508950C949A060E9406120E9440
:100D40007F050C948D12CF92DF92EF92FF920F935A
:100D50001F93CF93DF93CDB7DEB72B970FB6F894E1
:100D6000DEBF0FBECDBF0E94B00534E4E32E31E0FC
:100D7000F32E00E010E0C02E802F0E944B06F701FA
:100D8000D1907F01D826B1F40F5F1F4F02301105BB
:100D900091F78FEF89838A831B820E940F128160F3
:100DA000782F9D838C8349815A816B818D810E942C
:100DB000440741C09091AB0191FF04C08B870E9412
:100DC00051068B8520E030E04D2D50E0922FBA0186
:100DD000022E02C0759567950A94E2F760FF25C060
:100DE0002E83CF82EE24E394F12C02C0EE0CFF1C84
:100DF0009A95E2F790E08E219F2121E0892B09F45A
:100E000020E028870E940F128160782F9A878987B7
:100E10004E815F8168858A850E944407F801EC5BFA
:100E2000FE4F80818E25808306C02F5F3F4F253087
:100E3000310561F6A9CF109143010E94570618179A
:100E4000A1F00E945706809343012B960FB6F894A9
:100E5000DEBF0FBECDBFDF91CF911F910F91FF90ED
:100E6000EF90DF90CF900C940D032B960FB6F89473
:100E7000DEBF0FBECDBFDF91CF911F910F91FF90CD
:100E8000EF90DF90CF900895CF93DF93CDB7DEB78B
:100E90002B970FB6F894DEBF0FBECDBF4F83588798
:100EA00069877A878B87DE01119686E0FD011192B2
:100EB0008A95E9F785E0FE01379601900D928A95B3
:100EC000E1F749815A816B817C818D819E810E94ED
:100ED000C50D2B960FB6F894DEBF0FBECDBFDF91C8
:100EE000CF910895CF93C82F882309F4CCC08238BE
:100EF00059F40E94570681FDC6C089E30E9467101D
:100F00000E94311189E30CC0833879F40E9457069E
:100F100080FDB9C083E50E9467100E94311183E50E
:100F20000E94A710CF910C943111843859F40E947B
:100F3000570682FDA8C087E40E9467100E94311105
:100F400087E4EECF8CEF8C0F813A48F48C2F0E940F
:100F50005F13811198C08C2F0E946710E3CF80E24D
:100F60008C0F883048F4C77081E001C0880FCA95A3
:100F7000EAF70E94E810D6CF8BE58C0F833078F427
:100F8000C53A29F0C63A31F482E890E005C081E81C
:100F900090E002C083E890E0CF910C946E0688E563
:100FA0008C0F853108F06FC0C83A61F1C93A69F118
:100FB000CA3A71F1CB3A79F1CC3A81F1CB3B89F164
:100FC000CC3B91F1CD3A99F1C03BA1F1CE3AA9F1D8
:100FD000CF3AB1F1C13BB9F1C23BC1F1C33BC9F159
:100FE000C43BD1F1C53BD9F1C63BE1F1C73BE9F1C7
:100FF000C83BF1F1C93BF9F1CA3B09F03FC08AE2B5
:1010000092E03EC082EE90E03BC089EE90E038C0B6
:101010008AEE90E035C085EB90E032C086EB90E040
:101020002FC083EB90E02CC084EB90E029C087EBCD
:1010300090E026C08CEC90E023C08DEC90E020C0C6
:1010400083E891E01DC08AE891E01AC082E991E04E
:1010500017C084E991E014C081E292E011C083E2FC
:1010600092E00EC084E292E00BC085E292E008C0FC
:1010700086E292E005C087E292E002C080E090E064
:10108000CF910C948406CF910895882309F44BC026
:10109000823859F40E94570681FF45C089E30E94B7
:1010A00067100E94311189E30CC0833871F40E94EB
:1010B000570680FF38C083E50E9467100E943111F7
:1010C00083E50E94A7100C943111843859F40E94D2
:1010D000570682FF28C087E40E9467100E943111E2
:1010E00087E4EFCF9CEF980F913A58F390E2980F76
:1010F000983050F4877091E001C0990F8A95EAF713
:10110000892F0E94EE10DFCF9BE5980F933020F4DB
:1011100080E090E00C946E06885A853120F480E0DF
:1011200090E00C9484060895882321F00E94E81032
:101130000C9431110895882321F00E94EE100C9434
:10114000311108958F929F92AF92BF92CF92DF920A
:10115000EF92FF920F931F93CF93DF931F92CDB720
:10116000DEB74C01A62E472FFC01E580E2948FE00C
:10117000E822F280FF2021F079830E940511498145
:1011800049830E9460104981882381F0FF2071F01B
:1011900080E28A0D883050F082E00E9449100E945F
:1011A0006010BB24B394B826498101C0B12CE42F50
:1011B000E295EF70F0E0E859FF4F0C94821A842F0B
:1011C000807F142F1F70882311F01295107FFF204D
:1011D00099F0112309F48EC180E28A0D883010F055
:1011E000A11004C0812F0E94E81003C0812F0E942B
:1011F000F8100E9431117EC18A2D0E9445081123EA
:1012000009F48FC180E28A0D883010F0A11004C06B
:10121000812F0E94EE1003C0812F0E94FE100E94B9
:1012200031117FC1242F207F842F8F70203211F045
:101230008295807FAA2021F0F1E0AF16B1F021C0A5
:10124000FF2041F0EE2039F191E0E91224C00E9424
:10125000181167C1EE2021F0E1E0EE1609F461C13A
:1012600089830E941B11898100C1FF2029F0F5E0CC
:10127000FE1508F456C10FC094E09E1508F451C144
:10128000F4C0FF2059F0EE2031F0F401958190FF79
:1012900031C19F7095830E94940843C1EE2009F4E8
:1012A000E4C02EC1242F26952695237030E0211509
:1012B000310521F02130310561F033C1FF2021F0EB
:1012C0008A2D942F937002C080E090E00E946E06F9
:1012D00028C1FF2021F08A2D942F937002C080E056
:1012E00090E00E9484061DC1842F837009F04EC0D7
:1012F000F11017C12A2D229526952770220F220F53
:101300008A2D8F70C82ED12CE12CF12C022E04C016
:10131000CC0CDD1CEE1CFF1C0A94D2F7A4FE10C0FE
:101320006FE070E080E090E004C0660F771F881FD8
:10133000991F2A95D2F7609570958095909503C076
:1013400060E070E0CB01242F26952695237030E0D5
:101350002230310569F02330310589F06C297D296F
:101360008E299F292130310571F00E94160FD9C0B6
:101370006C297D298E299F290E94280FD2C00E94A6
:10138000160FC701B6010E94040FCBC0FF2019F051
:10139000842F817001C08695882309F4C2C02A2D4C
:1013A000229526952770220F220F8A2D8F70C82E26
:1013B000D12CE12CF12C022E04C0CC0CDD1CEE1C37
:1013C000FF1C0A94D2F7A4FE10C06FE070E080E02A
:1013D00090E004C0660F771F881F991F2A95D2F7E7
:1013E000609570958095909503C060E070E0CB01AA
:1013F000242F26952695237030E02230310569F0A0
:101400002330310589F06C297D298E299F292130CF
:10141000310571F00E94C20F84C06C297D298E298C
:101420009F290E94D40F7DC00E94C20FC701B60140
:101430000E94B00F76C00A2D10E0F801E05EF109BD
:10144000E531F10508F052C0E858FF4F0C94821ABC
:101450001A2D1F70842F8F71FF2021F00E945B0FC7
:10146000812F19CF0E94760F812F0E949B0859C0AF
:10147000FF2049F0F4E0FE1508F453C0842F8F716B
:101480000E94950F4EC085E08E1508F44AC0F6CF35
:10149000FF2039F0842F8F710E945B0F42C0FF2024
:1014A000C9F3842F8F710E94760F3BC0FF2029F073
:1014B000842F8F710E944C0F34C00E94470F31C09F
:1014C000FF2051F0142F1F71812F0E945B0F63E0EA
:1014D000812F0E94401025C081E00E94491091E0B8
:1014E0009E15F8F482E00E9449101BC0FF2031F0E5
:1014F000EE2081F28A2D0E94720713C0EE2089F23D
:101500008A2D0E9445080DC04F706A2DC4010E94AB
:10151000B4010E94720E05C04F706A2DC4010E9472
:101520000F03BB20F1F00E943C1080FD1AC0F401B3
:1015300012820E9436100E945B0FC4010E94BF0AF3
:101540000E9436100F90DF91CF911F910F91FF9065
:10155000EF90DF90CF90BF90AF909F908F900C94C2
:10156000760F0F90DF91CF911F910F91FF90EF9029
:10157000DF90CF90BF90AF909F908F9008950F9382
:101580001F93CF93DF93EC01288139818B819C815C
:10159000892B31F03F3F11F080E003C02F3FE1F78E
:1015A00081E0811113C0CE010E94D401882371F023
:1015B000688179818A810E9432108C010E94E60F35
:1015C0000E94010FB801CE010E94A208DF91CF91C5
:1015D0001F910F9108950E9405110E9415110E94FC
:1015E000DA100E94311180E090E00E946E0680E0E7
:1015F00090E00C9484060E94F5100C94EB0A0E9473
:101600002710E92FE295EF70F0E03297EE30F10508
:10161000B8F4E357FF4F0C94821A803F59F018F446
:10162000803E70F407C0843F59F404C0803E10F03F
:10163000813F31F481E0089593FB882780F9089574
:1016400080E00895CF93DF9300D000D01F92CDB7F4
:10165000DEB70F900F900F900F900F90DF91CF910A
:101660000895CF93DF9300D000D000D0CDB7DEB780
:1016700026960FB6F894DEBF0FBECDBFDF91CF9197
:1016800008951F93CF93DF93C091460116E0809198
:101690004701C81799F0D0E01C9FF0011D9FF00D85
:1016A0001124E85BFE4F4081518162817381848106
:1016B00095810E94310B2196C770E9CFDF91CF91C0
:1016C0001F910895409178015091790160917A01BC
:1016D00070917B0180917C0190917D010C94310B84
:1016E000CF9380917D0182958F7009F05FC08091CA
:1016F0007A01882309F45AC020914601A09147013C
:10170000609178017091790180917B0190917C01C9
:1017100031E06F3F09F030E0B32FC6E02A1709F43B
:1017200045C0009721F07F3F21F44B2F03C041E0DB
:1017300001C040E030E040FD35C0C29FF001C39FD2
:10174000F00D1124E85BFE4F418174132BC04081E2
:10175000641328C04281411125C043815481481738
:10176000590710F441505109481B590B483C510589
:10177000C8F480917D018F70806180937D0186E047
:10178000829FF001839FF00D1124E35BFE4F808167
:101790008F708061808388E791E00E94BF0ACF91BB
:1017A0000C94410B2F5F3F4F2770B8CFCF91089516
:1017B000CF92DF92EF92FF920F931F93CF93DF931D
:1017C000CDB7DEB762970FB6F894DEBF0FBECDBFC0
:1017D0008C0185E0F801DE011D9601900D928A953D
:1017E000E1F7D8014C9111965C91119712966C918A
:1017F00012971396ED90FC90149770917801E091F8
:10180000790120917B0130917C012115310531F066
:10181000EF3F31F481E07F3F19F403C081E001C064
:1018200080E0B82FB170CB2E80FD6CC1D0907A01D2
:10183000DD2009F4F5C0F0917D01E216F30638F0E1
:10184000C701821B930B883C910548F09BC02095F3
:1018500030952E0D3F1D283C310508F093C08F2F89
:10186000807F09F052C0E51314C0741312C0D62E45
:1018700061110FC0FF70F061F0937D010E94620B57
:1018800088E791E00E94BF0A80917D01F80185837D
:101890006CC1EF2831F05F3F31F481E04F3F19F424
:1018A00003C081E001C080E080FD03C081E08627A5
:1018B00001C080E0F82FF170FF2E80FF1CC08091E6
:1018C00046012091470136E0821709F428C190E0D3
:1018D000389FF001399FF00D1124E85BFE4F7181B4
:1018E000571306C07081471303C07281671303C08A
:1018F00001968770E9CFD62E662309F436C1809110
:101900007D01816080937D0153C0E51308C074138D
:1019100006C0611104C0D8011596FC93AEC04D8776
:101920005E878D859E856A8B0E94FF0A6A8988235F
:1019300029F1D62E662311F120917D01822F829507
:101940008F7090E002970CF460C0809178019091C4
:10195000790198878F831986FB86EA862C87CE01CA
:10196000079651C0E51731F14D875E878D859E85BD
:101970006A8B0E94FF0A6A8981112EC0C8010E94E9
:10198000BF0AA4C08F2F807F69F77E2DF98AE88A6D
:1019900089890E94220B88E791E00E94BF0AE8E74C
:1019A000F1E086E0DF011D928A95E9F70E94620B63
:1019B000D12CDBC07413D8CF6111D6CFD8011596C6
:1019C000FC93C8010E94BF0AE8E7F1E086E0DF016E
:1019D0001D928A95E9F7C9C0D62E662379F2209127
:1019E0007D01822F82958F7090E0029774F0809134
:1019F0007801909179019A8389831B82FD82EC8220
:101A00002E83CE0101960E94BF0A86E0F801A8E766
:101A1000B1E001900D928A95E1F70E94700B6FC0C2
:101A2000E216F30628F0C701821B930B9C0104C049
:101A3000209530952E0D3F1D283C310508F052C0F1
:101A4000D62E662309F49ACFE5132CC074132AC04E
:101A500080917D0180FD1DC0982F92959F70C9F0E7
:101A6000D80115968C9315979F3039F09F5F92950A
:101A7000907F8F70892B15968C93C8010E94BF0AA6
:101A800086E0F801A8E7B1E001900D928A95E1F7B0
:101A900036C086E0F801A8E7B1E001900D928A9582
:101AA000E1F763C04D875E878D859E850E94FF0AA2
:101AB000882379F086E0F801A8E7B1E001900D9263
:101AC0008A95E1F70E94700B0E94620BDD24D3948B
:101AD0004CC080917D01816080937D01C8010E948E
:101AE000BF0A43C07E2DF98AE88A89890E94220BA9
:101AF000E8E7F1E086E0DF011D928A95E9F70E94B0
:101B0000620B33C0662309F439CF4D875E878D851C
:101B10009E850E94FF0A882309F430CFCBCF4D87E2
:101B20005E878D859E850E942710292F22952F7014
:101B300030E0223031052CF49F7041F0811106C055
:101B40000CC0243031052CF49F7049F4805E88303D
:101B500020F0C8010E94BF0ACF2CDC2C06C0D8019F
:101B600015969C91907F91F7F8CF8D2D62960FB6C8
:101B7000F894DEBF0FBECDBFDF91CF911F910F91C3
:101B8000FF90EF90DF90CF9008951F93CF93DF9356
:101B9000CDB7DEB72C970FB6F894DEBF0FBECDBF22
:101BA0004F83588769877A878B879C87CE010796F2
:101BB0000E94D80B8823C1F02F8138858A859B85A8
:101BC000892B31F03F3F11F080E003C02F3FE1F758
:101BD00081E0811147C04F81588569857A858B8561
:101BE0009C850E94310B3EC086E0FE013796DE01E7
:101BF000119601900D928A95E1F7FF81E8854A855B
:101C00005B854115510531F0EF3F31F481E0FF3F35
:101C100019F403C081E001C080E080FD23C0209161
:101C2000470130E0C901019687709927609146010C
:101C300070E086179707F1F1F983EA835D834C839F
:101C400096E0929FD001939FB00D1124A85BBE4FE8
:101C5000FE01319601900D929A95E1F7809347012C
:101C60000E94410B16E0809146019091470189172F
:101C700079F1189FC0011124885B9E4F0E94D80BF8
:101C8000882331F1E09146011E9FF0011124E85BA9
:101C9000FE4F4081518162817381848195810E94D0
:101CA000310B8091460190E00196877099278093CF
:101CB0004601D9CF0E94FB0A1092470110924601BB
:101CC000E8E7F1E086E0DF011D928A95E9F7CACFE7
:101CD0002C960FB6F894DEBF0FBECDBFDF91CF912B
:101CE0001F910895EF92FF920F931F93CF93DF936D
:101CF0009C01009709F471C0F12CEE24E394E901F2
:101D00002196F9018491843740F4843008F056C05C
:101D1000813081F0823021F160C0853709F449C0FB
:101D2000C0F19CE7980F903708F057C08F770E945A
:101D3000450846C089010E5F1F4FFE01849190E265
:101D4000980F983050F48770FE2D01C0FF0F8A95D0
:101D5000EAF78F2F0E94081115C00E94720714C065
:101D600089010E5F1F4FFE01849190E2980F983019
:101D700068F48770FE2D01C0FF0F8A95EAF78F2F58
:101D80000E940E110E943111E8011AC00E944508FC
:101D9000FBCF2E5F3F4FFE01C491CC2341F08FE972
:101DA0009FE00197F1F700C00000C150F6CFE901B4
:101DB00007C0FE01F490E901229602C00E9472075A
:101DC0008F2D882341F0EFE9FFE03197F1F700C054
:101DD00000008150F6CF9E0192CFDF91CF911F91ED
:101DE0000F91FF90EF90089508950E94F40E609374
:101DF00082017093830180938401909385010C94F8
:101E0000EB0A08950C94F50E0F931F930091820135
:101E1000109183012091840130918501602B712BF9
:101E2000822B932B1F910F910C94F50E0F931F9300
:101E300000918201109183012091840130918501EC
:101E400060237123822393231F910F910C94F50E2D
:101E50000F931F93009182011091830120918401BF
:101E60003091850160277127822793271F910F9159
:101E70000C94F50E08950E943A0F60937E017093C2
:101E80007F0180938001909381010C94EB0A60E0C4
:101E900070E0CB010C943B0F41E050E060E070E05B
:101EA00004C0440F551F661F771F8A95D2F7CB01D8
:101EB000BA010C943B0F41E050E060E070E004C0D8
:101EC000440F551F661F771F8A95D2F780917E01B8
:101ED00090917F01A0918001B0918101482B592BF5
:101EE0006A2B7B2BCB01BA010C943B0F41E050E0F5
:101EF00060E070E004C0440F551F661F771F8A958D
:101F0000D2F7409550956095709580917E019091A3
:101F10007F01A0918001B0918101482359236A2358
:101F20007B23CB01BA010C943B0F41E050E060E011
:101F300070E004C0440F551F661F771F8A95D2F7C3
:101F400080917E0190917F01A0918001B0918101EB
:101F5000482759276A277B27CB01BA010C943B0FEE
:101F60000F931F9300917E0110917F0120918001BA
:101F700030918101602B712B822B932B1F910F913C
:101F80000C943B0F0F931F9300917E0110917F01E2
:101F9000209180013091810160237123822393235A
:101FA0001F910F910C943B0F0F931F9300917E0193
:101FB00010917F012091800130918101602771276C
:101FC000822793271F910F910C943B0F0895CF9276
:101FD000DF92EF92FF920F931F93CF93DF93EC0169
:101FE000C0908201D0908301E0908401F09085013F
:101FF00080917E0190917F01A0918001B09181013B
:10200000C82AD92AEA2AFB2A0FE110E0B701A60163
:10201000002E04C076956795579547950A94D2F798
:1020200040FD05C00150110988F780E007C0BE01DE
:10203000802F0E942A030197A9F3802FDF91CF916F
:102040001F910F91FF90EF90DF90CF900895CF9365
:10205000DF93EC010E94E70FBE010E942A03DF918B
:10206000CF910895CB010E94271008958091860199
:102070008595859585950895809186018770089549
:1020800098E0899F90011124622B609386010C9443
:102090005B0F409186018095842380938601982F61
:1020A000977069F450E0282F332727FD30954217A9
:1020B000530729F08595859585950C94760F08959D
:1020C00090918601977081E009F480E008959091E5
:1020D0000C019923D9F09091D50197FF17C0982F43
:1020E0009695969596959F3188F5E0910001F0912F
:1020F0000101E90FF11D877021E030E001C0220FDE
:102100008A95EAF78181822B8183089540910001AD
:102110005091010120E030E09FEFFA01E20FF31F40
:102120006281681799F09F3F19F4611101C0922FE5
:102130002F5F3F4F2E31310581F79F3F39F0FA0174
:10214000E90FF11D97FDFA95828308950895909106
:102150000C019923E1F09091D50197FF18C0982FB9
:102160009695969596959F3120F5E0910001F09116
:102170000101E90FF11D877021E030E001C0220F5D
:102180008A95EAF72095818128232183089540913B
:1021900000015091010120E030E0FA01E20FF31F4D
:1021A0009281981301C012822F5F3F4F2E3131056B
:1021B000A1F7089581E090E0E0910001F091010124
:1021C000E80FF91F1082019680329105A9F7089552
:1021D0009091AA01982B9093AA01089580959091CF
:1021E000AA0198239093AA0108951092AA01089534
:1021F0009091A901982B9093A901089580959091B1
:10220000A90198239093A90108951092A901089516
:102210009091A801982B9093A80108958095909192
:10222000A80198239093A80108951092A8010895F9
:1022300080938701089510928701089540910001CD
:102240005091010120E030E080E0FA01E20FF31F3D
:10225000918191118F5F2F5F3F4F2F313105A9F78A
:102260000895E0910001F09101018091AA0180831D
:10227000E0910001F091010180819091A901892BE9
:102280008083E0910001F091010180819091A8018B
:10229000892B808390918701992361F0E09100015F
:1022A000F09101018081892B80830E941E11811190
:1022B0001092870180910001909101010C946306B6
:1022C0006DEE7EEF80E090E00E94A81A60E082E070
:1022D00090E00E94961A60E083E090E00E94961AD7
:1022E00060E084E090E00E94961A60E085E090E073
:1022F0000C94961A80E090E00E94901A21E08D3EA6
:102300009E4F09F020E0822F089582E090E00C9427
:10231000881A83E090E00C94881A84E090E00C9492
:10232000881A682F84E090E00C94961A8091DB0163
:10233000843021F11092AC0120E488E190E00FB6E6
:10234000F894A895809360000FBE2093600080E011
:102350000E940D0383B7817F846083BF83B7816050
:1023600083BF7894889583B78E7F83BF88E10FB64B
:10237000F89480936000109260000FBE0895089555
:1023800008950E94BF110E94B0050E94C01180E014
:102390000E944B06811108C081E00E944B0691E02B
:1023A000811103C090E001C091E0892F08950E943F
:1023B000FB0A0E9457060C940D031F920F920FB652
:1023C0000F9211248F939F93AF93BF938091AC0191
:1023D000811113C08091D1019091D201A091D301BC
:1023E000B091D4014196A11DB11D8093D10190936C
:1023F000D201A093D301B093D401BF91AF919F912B
:102400008F910F900FBE0F901F90189582E084BDA2
:1024100093E095BD9AEF97BD80936E0008952FB716
:10242000F8948091D1019091D201A091D301B09103
:10243000D4012FBF0895CF92DF92EF92FF920F93B6
:102440001F932FB7F8944091D1015091D201609120
:10245000D3017091D4012FBF6A017B01EE24FF24C8
:102460008C0120E030E0C016D106E206F30610F43D
:1024700041505109481B590BCA011F910F91FF9000
:10248000EF90DF90CF90089578941F920F920FB63F
:102490000F9211248F939F93AF93BF938091D1019B
:1024A0009091D201A091D301B091D4010196A11DC8
:1024B000B11D8093D1019093D201A093D301B09329
:1024C000D401BF91AF919F918F910F900FBE0F904C
:1024D0001F9018950E948D17F8942FEF87EA91E6C8
:1024E000215080409040E1F700C0000087E090EB71
:1024F000DC018093E4019093E501A093E601B093A1
:10250000E7012CE088E190E00FB6F894A89580935D
:1025100060000FBE20936000FFCF0E947A118111EE
:1025200002C00E9460110E9485118093AB010E943D
:102530008D1190E09093D6018093D5010E9489116E
:10254000682F70E080E090E00C94020F873220F555
:102550008E3108F098C0803109F474C070F487306F
:1025600009F44CC018F4863089F12EC08B3009F480
:10257000A0C08E3009F45CC027C0863109F499C030
:1025800020F4813109F46FC01FC0893109F491C072
:102590008B3109F443C018C0883309F48AC050F461
:1025A000893209F47EC0853309F47BC0873209F48F
:1025B00078C00AC0833409F474C020F48A3308F068
:1025C00060C002C0883461F080E008958091AB0162
:1025D000817F8E7F8093AB0181E08093AD01089570
:1025E0000E94FB0A2FEF83ED90E321508040904042
:1025F000E1F700C000000E946A125BC09091AB013D
:10260000892F8095817080FB90F99093AB018111A7
:1026100050C0997F977F9093AB014BC09091AB01D5
:1026200091FB882780F921E0822780FB91F913C074
:102630009091AB0192FB882780F921E0822780FBF3
:1026400092F909C09091AB0193FB882780F921E0B2
:10265000822780FB93F99093AB01882351F191601D
:102660009093AB0108950E94FB0A9091D50197FBCE
:10267000882780F921E0822780FB97F99093D50184
:1026800018C027EC01C023EE280F61E070E080E065
:1026900090E004C0660F771F881F991F2A95D2F714
:1026A00004C061E070E080E090E00E94020F0E94B0
:1026B000FB0A81E0089580E0089580E00895CF93BB
:1026C000C82F8091AD01882319F0813049F02EC0C8
:1026D000E0910001F09101018081823249F507C04B
:1026E000E0910001F09101018081823249F48C2F48
:1026F0000E945B13811117C08C2F0E94A61214C078
:102700008C2F0E945D1381110EC0C43149F018F462
:10271000CB3049F00FC0C93219F0C83321F00AC0DC
:102720001092AD0107C081E0817006C01092AD012A
:1027300080E002C080E0F8CFCF9108958091CE0173
:10274000089508950F931F93CF93DF9300D01F92A6
:10275000CDB7DEB78C010E94DE15823011F08530D6
:1027600021F583E089831B830A8382E08093E9005B
:102770008FEF9091E800815095FD06C095ED9A95F8
:10278000F1F700008111F5CF8091E80085FF0DC0C1
:1027900040E050E063E070E0CE0101960E94FB153E
:1027A0008091E8008E778093E8000F900F900F9053
:1027B000DF91CF911F910F910895CF93DF9300D0B8
:1027C0001F92CDB7DEB72091DB01243029F522E03E
:1027D0002983805891099B838A832093E9008FEF96
:1027E0009091E800815095FD06C095ED9A95F1F71E
:1027F00000008111F5CF8091E80085FF0DC040E019
:1028000050E063E070E0CE0101960E94FB158091DC
:10281000E8008E778093E8000F900F900F90DF9183
:10282000CF910895CF93DF93EC010E94DE158230A3
:1028300019F0853009F047C080910C018823E1F040
:102840008091D50187FF18C083E08093E9008FEF66
:102850009091E800815095FD06C095E19A95F1F7B9
:1028600000008111F5CF8091E80085FF2CC040E089
:1028700050E060E270E017C081E08093E9008FEFE4
:102880009091E800815095FD06C095ED9A95F1F77D
:1028900000008111F5CF8091E80085FF14C040E071
:1028A00050E068E070E0CE010E94FB158091E800E6
:1028B0008E778093E80080E2FE01AEEAB1E00190FD
:1028C0000D928A95E1F7DF91CF9108958091DA0119
:1028D000811109C00E948D170E94EA178091E200C1
:1028E00084608093E20008951092DA0108950895BB
:1028F00008950C94D71142E061EC81E00E94071723
:1029000042E061EC82E00E94071742E261EC83E062
:102910000C9407178091DD01833009F455C030F421
:10292000813071F0823009F48EC008958A3009F444
:102930007AC08B3009F460C0893009F09CC020C097
:102940008091DC01813A09F096C08091E800877F90
:102950008093E8008091E0019091E101892B21F0C2
:1029600060E080E090E003C060E28EEA91E070E019
:102970000E9444168091E8008B778093E8000895C8
:102980008091DC01813209F076C08091E001909164
:10299000E101009719F0029709F06DC08091E800FD
:1029A000877F8093E8008091E80082FD05C08091D8
:1029B000DB018111F8CF5FC08091F1008093CE01DF
:1029C0008091E8008B7753C08091DC01813A09F057
:1029D00052C08091E0019091E101892B09F04BC038
:1029E0008091E800877F8093E8008091E80080FF75
:1029F000FCCF80910C0136C08091DC018132D9F589
:102A00008091E0019091E101892BA9F58091E80086
:102A1000877F8093E8000E943C178091DE018093BD
:102A20000C010C94FB0A8091DC01813221F580912C
:102A3000E800877F8093E8000E943C178091DF01C7
:102A40008093CF0108958091DC01813AA1F48091B7
:102A5000E800877F8093E8008091E80080FFFCCF4A
:102A60008091CF018093F1008091E8008E77809370
:102A7000E8000C943C17089584B7877F84BF88E1F1
:102A80000FB6F89480936000109260000FBE80E84B
:102A900080936100109261000E949B060E948D1736
:102AA0000E94EA178091E20084608093E2007894AB
:102AB0000E94651A0E949D0682E091E00E945206E3
:102AC0008091DB01853069F40E9496118091D901D3
:102AD0008823B1F30E94C111882391F30E94E51568
:102AE000EFCF0E94A306ECCF292F332723303105E7
:102AF000A9F06CF42130310509F442C022303105CF
:102B000009F043C084E590E027EB31E042C0213278
:102B10003105C9F02232310519F137C099278130CA
:102B2000910541F08230910541F0892B71F5E3EB7D
:102B3000F1E005C0E1EAF1E002C0E5E8F1E08491EE
:102B400090E09F0126C0633000F5E62FF0E0EE0F25
:102B5000FF1FE35EFE4F2081318189E090E019C0C4
:102B6000633098F4E62FF0E0DF01AA0FBB1FA95EE7
:102B7000BE4F2D913C91EC5EFE4F808190E009C0EC
:102B800082E190E02BE032E004C080E090E020E0C1
:102B900030E0FA013183208308950895CF93C82F40
:102BA0000E94CD15C093D001CF9108958091DB0193
:102BB000843011F482E0089581E008958091D0017D
:102BC000811102C00C94D615089580E189BD82E17F
:102BD00089BD09B400FEFDCF8091D8008F7D809320
:102BE000D8008091E00082608093E0008091E00056
:102BF00081FDFCCF0895CF92DF92EF92FF920F9369
:102C00001F93CF93DF937C018B01EA010E945D1734
:102C1000811131C0209731F088819981081B190BEF
:102C2000E80EF91EC12CD12C0115110519F1809166
:102C3000E80085FD14C08091E8008E778093E8005D
:102C4000209741F0888199818C0D9D1D99838883FF
:102C500085E011C00E945D17882331F30CC0F70195
:102C600081917F018093F10001501109FFEFCF1A8C
:102C7000DF0ADACF80E0DF91CF911F910F91FF90B3
:102C8000EF90DF90CF9008952091E2013091E30121
:102C90002617370748F06115710539F42091E800CF
:102CA0002E772093E80001C0B901FC0120E06115F6
:102CB0007105B9F18091DB01882309F440C08530AA
:102CC00009F43FC08091E80083FD3DC08091E80099
:102CD00082FF06C08091E80082FF26C080E0089550
:102CE0008091E80080FFE3CF2091F3008091F20013
:102CF00090E0922B6115710551F08830910538F400
:102D000021912093F100615071090196F3CF21E0E8
:102D1000089709F020E08091E8008E778093E80022
:102D2000C6CF2111C7CFD6CF8091DB01882339F0E0
:102D3000853039F08091E80083FFCCCF04C082E079
:102D4000089583E0089581E008952091E201309193
:102D5000E3012617370748F06115710539F4209112
:102D6000E8002E772093E80001C0B901FC0120E0C3
:102D700061157105C1F18091DB01882309F441C01F
:102D8000853009F440C08091E80083FD3EC0809109
:102D9000E80082FF06C08091E80082FF27C080E043
:102DA00008958091E80080FFE3CF2091F3008091A7
:102DB000F20090E0922B6115710559F08830910571
:102DC00040F424912093F1003196615071090196ED
:102DD000F2CF21E0089709F020E08091E8008E779B
:102DE0008093E800C5CF2111C6CFD5CF8091DB01FC
:102DF000882339F0853039F08091E80083FFCBCF0C
:102E000004C082E0089583E0089581E00895982F3A
:102E1000973058F59093E900981739F07091EC00CD
:102E20002091ED005091F00003C0242F762F50E048
:102E300021FF19C03091EB003E7F3093EB003091C1
:102E4000ED003D7F3093ED003091EB003160309329
:102E5000EB007093EC002093ED005093F000209174
:102E6000EE0027FF07C09F5FD3CF8F708093E900EC
:102E700081E0089580E008958091DC0187FD05C020
:102E80008091E80080FF0EC012C08091E80082FDB2
:102E900005C08091DB018111F8CF08958091E80091
:102EA0008B7708C08091DB018111EACF0895809172
:102EB000E8008E778093E80008958091E400909177
:102EC000E50045E62091EC0020FF21C02091E800BC
:102ED00020FD21C02091DB01222389F0253089F0DB
:102EE0002091EB0025FD0FC02091E4003091E5001A
:102EF0002817390739F3415041F0C901E3CF82E087
:102F0000089583E0089581E0089584E00895209174
:102F1000E80022FFDFCF80E008950E94FB170E94A7
:102F20000318E0EEF0E0808181608083E8EDF0E05E
:102F300080818F77808319BCA7EDB0E08C918E7F64
:102F40008C9380818F7E80831092DA0108950F9395
:102F50001F93CF93DF930E94FB170E940318C8EDC5
:102F6000D0E088818F778883888180688883888192
:102F70008F7D888319BC1092DB011092D7011092CB
:102F8000D9011092D80100EE10E0F80180818B7F0A
:102F9000808388818160888342E060E080E00E94D5
:102FA0000717E1EEF0E080818E7F8083E2EEF0E0B3
:102FB000808181608083808188608083F801808146
:102FC0008E7F8083888180618883DF91CF911F917C
:102FD0000F910895E8EDF0E080818F7E8083E7ED2A
:102FE000F0E080818160808384E082BF81E0809313
:102FF000DA010C94A717E8EDF0E080818E7F8083E2
:103000001092E20008951092DA001092E100089503
:103010001F920F920FB60F9211242F933F934F934D
:103020005F936F937F938F939F93AF93BF93EF9330
:10303000FF938091E10082FF0BC08091E20082FF4C
:1030400007C08091E1008B7F8093E1000E94641AA9
:103050008091DA0080FF1FC08091D80080FF1BC0E4
:103060008091DA008E7F8093DA008091D90080FF12
:103070000DC080E189BD82E189BD09B400FEFDCFAC
:1030800081E08093DB010E94661405C019BC109298
:10309000DB010E9474148091E10080FF19C08091CF
:1030A000E20080FF15C08091E2008E7F8093E200F5
:1030B0008091E20080618093E2008091D80080627C
:1030C0008093D80019BC85E08093DB010E947814BE
:1030D0008091E10084FF30C08091E20084FF2CC029
:1030E00080E189BD82E189BD09B400FEFDCF8091F8
:1030F000D8008F7D8093D8008091E1008F7E8093EF
:10310000E1008091E2008F7E8093E2008091E200F6
:1031100081608093E2008091D701882311F084E0E0
:1031200007C08091E30087FF02C083E001C081E017
:103130008093DB010E9479148091E10083FF29C014
:103140008091E20083FF25C08091E100877F80931A
:10315000E10082E08093DB011092D7018091E100D1
:103160008E7F8093E1008091E2008E7F8093E20069
:103170008091E20080618093E20042E060E080E0C4
:103180000E9407178091F00088608093F0000E94F1
:103190007714FF91EF91BF91AF919F918F917F91A4
:1031A0006F915F914F913F912F910F900FBE0F90B4
:1031B0001F9018951F920F920FB60F9211242F9304
:1031C0003F934F935F936F937F938F939F93AF93AF
:1031D000BF93CF93EF93FF93C091E900CF7080919D
:1031E000EC001092E9008091F000877F8093F0005E
:1031F00078940E9416191092E9008091F00088607E
:103200008093F000C093E900FF91EF91CF91BF91BF
:10321000AF919F918F917F916F915F914F913F916E
:103220002F910F900FBE0F901F9018951F93CF9363
:10323000DF93CDB7DEB7AA970FB6F894DEBF0FBE07
:10324000CDBFECEDF1E08091F100819321E0E43E0F
:10325000F207C9F70E948A148091E80083FF1CC11D
:103260002091DC013091DD01832F90E08A309105BF
:1032700008F012C1FC01E556FF4F0C94821A203869
:1032800081F0223809F008C18091E0018F708093AD
:10329000E9008091EB0085FB882780F91092E90016
:1032A00006C08091D8019091D901911182609091CE
:1032B000E800977F9093E8008093F1001092F1006E
:1032C000C5C0822F8D7F09F0E7C0222319F022307C
:1032D00061F0E2C08091DE01813009F0DDC0333061
:1032E00009F080E08093D90128C08091DE0181112E
:1032F00024C02091E0012F7009F4CEC02093E90092
:103300008091EB0080FF19C08091EB00333011F405
:10331000806211C080618093EB0081E090E0022E1A
:1033200001C0880F0A94EAF78093EA001092EA003D
:103330008091EB0088608093EB001092E90080910F
:10334000E800877F86C02111A7C01091DE011F779A
:103350008091E3008078812B8093E3008091E800E6
:10336000877F8093E8000E943C178091E80080FFEF
:10337000FCCF8091E30080688093E300112311F07B
:1033800083E001C082E08093DB0186C020582230B8
:1033900008F082C08091DE019091DF018C3D23E036
:1033A000920779F583E08A838AE289834FB7F8949C
:1033B000DE01139620E03EE051E2E32FF0E050936F
:1033C0005700E49120FF03C0E295EF703F5FEF707C
:1033D0008E2F90E0EA3010F0C79601C0C0968D9312
:1033E0009D932F5F243149F74FBF8091E800877F7D
:1033F0008093E8006AE270E0CE0101960E944416D4
:1034000014C0AE014F5F5F4F6091E0010E947415E0
:10341000009709F441C02091E800277F2093E8003D
:10342000BC0189819A810E94A5168091E8008B7762
:103430008093E80031C0203879F58091E800877FDB
:103440008093E8008091D7018093F1008091E8009B
:103450008E778093E8000E943C171EC021111CC08B
:103460009091DE019230C0F48091E800877F8093D4
:10347000E8009093D7010E943C178091D7018111F9
:1034800004C08091E30087FF02C084E001C081E0B6
:103490008093DB010E947B148091E80083FF0AC0C7
:1034A0008091E800877F8093E8008091EB00806244
:1034B0008093EB00AA960FB6F894DEBF0FBECDBF87
:1034C000DF91CF911F9108950895CF938091DB01F3
:1034D0008823B1F08091E9008F709091EC0090FF0B
:1034E00002C090E801C090E0C92FC82B1092E900FB
:1034F0008091E80083FD0E941619CF70C093E90007
:10350000CF910895EE0FFF1F0590F491E02D0994DF
:10351000F999FECF92BD81BDF89A992780B508959B
:10352000A8E1B0E042E050E00C94B01A262FF999DF
:10353000FECF92BD81BDF89A019700B4021639F012
:103540001FBA20BD0FB6F894FA9AF99A0FBE0895E3
:103550000196272F0E94971A0C94961ADC01CB0132
:10356000FC01F999FECF06C0F2BDE1BDF89A319693
:1035700000B40D9241505040B8F70895F894FFCF31
:1035800088019E131214A113DD13A21301F4F5F6A2
:10359000F73133364036398C0256021D02C901E23A
:0435A00001FB01002A
:00000001FF
